S01800005333324B3134345F5374616E6450726A2E73726563EB
S3150000800000700020218400008984000025D2000031
S3150000801061D10000C1D1000015D1000000000000B0
S31500008020000000000000000000000000898400003D
S31500008030898400000000000089840000594F010077
S31500008040A5780100AF780100B9780100C378010076
S31500008050CD780100D7780100E1780100EB780100C6
S31500008060F5780100FF780100097901001379010014
S315000080701D79010027790100317901003B79010062
S315000080804579010089840000898400008984000004
S3150000809089840000898400008984000089840000A6
S315000080A08984000089840000898400008984000096
S315000080B08984000089840000898400008984000086
S315000080C08984000089840000898400008984000076
S315000080D089840000898400008984000029DB00006F
S315000080E03DDB00008984000089840000898400004B
S315000080F089840000898400008984000019DB00005F
S31500008100E9DA00008984000089840000898400007F
S315000081108984000089840000898400008984000025
S315000081208984000089840000898400008984000015
S315000081308984000089840000898400008984000005
S3150000814089840000898400008984000089840000F5
S3150000815089840000898400008984000089840000E5
S3150000816089840000898400008984000089840000D5
S315000081708984000089840000E1620100EB6201004D
S31500008180F5620100FF6201000963010089840000B5
S3150000819089840000136301001D63010089840000C7
S315000081A02763010089840000898400008984000017
S315000081B0316301003B6301008984000045630100CF
S315000081C08984000089840000898400008984000075
S315000081D08984000089840000898400008984000065
S315000081E08984000089840000898400008984000055
S315000081F08984000089840000898400008984000045
S315000083F0898400008984000089840000FFFFFFFF54
S31500008400FFFFFFFFFFFFFFFFFFFFFFFFFE7FFFFFF7
S315000084104101012D45010011000200020001000288
S3150000842072B64FF000014FF000024FF000034FF01C
S3150000843000044FF000054FF000064FF00007B84665
S31500008440B946BA46BB46BC460A490B4A521A013AD5
S3150000845005DD0020042308601944043AFBDA0748C6
S315000084608546074880470748804762B604F020FEE5
S31500008470FEE700000090FF1F007000200070002043
S31500008480C9930100F1920100FFF7FEBF53B94AB943
S31500008490002908BF00281CBF4FF0FF314FF0FF3006
S315000084A000F07EB9ADF1080C6DE904CE00F006F8D7
S315000084B0DDF804E0DDE9022304B070472DE9F0475A
S315000084C0089D04468E46002B4ED18A4294466DD9AD
S315000084D0B2FA82F757B1C7F1200EB94020FA0EFE64
S315000084E002FA07FC4EEA010E00FA07F44FEA1C49AD
S315000084F0210CBEFBF9F61FFA8CF809FB16EE41EAD1
S315000085000E4106FB08F38B420AD91CEB010106F16A
S31500008510FF3280F027818B4240F22481023E614483
S31500008520C91AA4B2B1FBF9F009FB101144EA0144DF
S3150000853000FB08F8A0450AD91CEB040400F1FF3340
S3150000854080F00E81A04540F20B810238644440EA77
S315000085500640A4EB080400267DB1FC4000232C60F5
S315000085606B603146BDE8F0878B4209D9002D00F0DB
S315000085701481002685E8030030463146BDE8F087C1
S31500008580B3FA83F6002E40F090808B4202D38242EB
S3150000859000F2FD80841A61EB030101208E46002D56
S315000085A0EBD085E810403146BDE8F0871AB94FF0A8
S315000085B0010CBCFBF2FCBCFA8CF7A7BBA1EB0C03CD
S315000085C04FEA1C421FFA8CF80126B3FBF2FE210C7F
S315000085D002FB1E3341EA034108FB0EF38B4208D926
S315000085E01CEB01010EF1FF3002D28B4200F2D1806A
S315000085F08646C91AA3B2B1FBF2F002FB101143EA98
S31500008600014408FB00F8A04508D91CEB040400F15E
S31500008610FF3302D2A04500F2B7801846A4EB080447
S3150000862040EA0E4098E7C7F1200301FA07F40CFA76
S3150000863007FC20FA03FED9404FEA1C424EEA040E1C
S31500008640B1FBF2F64FEA1E4302FB16111FFA8CF835
S3150000865043EA014306FB08F1994200FA07F40AD9F6
S315000086601CEB030306F1FF3080F08C80994240F248
S315000086708980023E63445B1A1FFA8EF1B3FBF2F067
S3150000868002FB103341EA034100FB08F38B4208D991
S315000086901CEB010100F1FF3E70D28B426ED902380D
S315000086A06144CB1A40EA06468FE7C6F1200722FA54
S315000086B007F8B34001FA06F448EA030320FA07FC78
S315000086C04FEA134EF9404CEA040CB1FBFEF94FEAAF
S315000086D01C440EFB19111FFA83F844EA014109FBF9
S315000086E008F48C4202FA06F200FA06FA08D959187A
S315000086F009F1FF3044D28C4242D9A9F1020919444A
S31500008700091B1FFA8CFCB1FBFEF00EFB10114CEAA4
S31500008710014400FB08F8A04507D91C1900F1FF31F8
S315000087202AD2A04528D902381C4440EA0940A4EBC5
S315000087300804A0FB02894C45C446494616D313D00B
S3150000874055B1BAEB0C0364EB010404FA07F7F340E6
S315000087501F43F4402F606C6000263146BDE8F08769
S315000087601846F4E61646DBE6C245E9D2B8EB020C3B
S3150000877069EB03010138E3E70846D6E7704690E760
S315000087808146BDE7064676E70238644446E730464A
S3150000879005E7AEF1020E61442BE72E462846ECE6CD
S315000087A0704700BF50B10B4B1A6822F01F021A60C7
S315000087B01A6801F01F01114319607047064B1A68C9
S315000087C022F01F021A601A6801F01F011143196096
S315000087D0704700BF0070024000B0034003680B60A2
S315000087E043684B6083688B60C3680B6103698B6168
S315000087F02C4BDB6CC3F303330F2B4DD8DFE803F0B0
S31500008800080F13171E2125292D3034383C404448C3
S315000088104FF48033CB6000234B61002070474FF04C
S31500008820FF33CB60F7E74FF0FF33CB60F3E74FF44E
S315000088300043CB604FF480534B61EEE70023CB60DF
S31500008840F8E74FF0FF33CB60E5E74FF0FF33CB603F
S31500008850E1E74FF0FF33CB60DDE70023CB60E9E7CC
S315000088604FF0FF33CB60D6E74FF48043CB60E1E7B0
S315000088704FF40043CB60DDE74FF48033CB60CAE7AB
S315000088804FF0FF33CB60C6E74FF0FF33CB60C2E754
S315000088904FF48033CB60BEE7CB68B3F5803FC9D3D6
S315000088A0B9E700BF0080044038B5184C247814F0AE
S315000088B0800F01D1022038BD1D460C46134B702196
S315000088C019708121D9719C71552C15D011F09CFE1F
S315000088D0772C19D1C0B9B5B10C4B9A7A2A70DA7BCC
S315000088E01202AA80997B0A43AA805A7A12026A80E7
S315000088F01B7A1A436A8038BD110AD972D2B29A72AB
S3150000890011F082FE38BD012038BD00BF00000240D4
S315000089102DE9F84F9846344B5B7813F0010F02D1DE
S315000089200420BDE8F88F05460E46914603698B4242
S3150000893041D88A1841690B449A423FD8B9F1000FD1
S315000089403FD04FF0040B4FF0010A274C1CE098F87B
S31500008950032098F802301B0443EA026398F80020CB
S31500008960134398F8012043EA022333605F462FE061
S31500008970237813F0710314BF012000203E44B8444D
S31500008980B9EB07092ED0A3B916F0030F02D1B9F13E
S31500008990030FDCD816F0010F16D1B9F1010F13D968
S315000089A098F8012098F8003043EA02233380022722
S315000089B00EE0BDE8F88F0120BDE8F88F0120BDE884
S315000089C0F88F0020BDE8F88F98F8003033705746CE
S315000089D0637813F0010FCBD1AB69B3F1FF3FF7D04A
S315000089E09847F5E7BDE8F88F0000024038B50D4C12
S315000089F0247814F0800F01D1022038BD094C70256F
S31500008A0025708025E571A3719DF8103063719DF87E
S31500008A10143083F001032371E172A27211F0F4FDA8
S31500008A2038BD00BF0000024070B5B4B0114D00243F
S31500008A3005F124062A7A696801AB181906F0B0FD1B
S31500008A402B7A1C44E4B20C35B542F3D1C72C01D9BC
S31500008A5000BFFDE709F020FA8DF8CC000322064995
S31500008A600DF1CD0006F09CFD01A9022000F026FACA
S31500008A7034B070BD0499FF1F340E002000B585B0D8
S31500008A8005F08AF900F0A8F91823ADF80630EA23B4
S31500008A90ADF808301C23ADF80A300923ADF80030D4
S31500008AA0F123ADF80230CC23ADF80430F023ADF855
S31500008AB00C30ADF80E306946082000F0CDF905B04F
S31500008AC05DF804FB70B588B001A9032000F034FA04
S31500008AD068B10026094D0A4C28686968AA68EB68DF
S31500008AE00FC42869696903C4304608B070BD1822EE
S31500008AF001A9024806F054FD0126EBE72080FF1F7E
S31500008B000000002030B589B00521144805F0BAF9F7
S31500008B1008B909B030BD124A1388013313801822F0
S31500008B201049114806F04BFD0028F2D10D4D1822D0
S31500008B30294601A806F034FD01A9032000F0BEF97C
S31500008B40094C28686968AA68EB680FC428696969CE
S31500008B5003C40022024B1A80DBE700BF1800002086
S31500008B601A0000202080FF1F0000002000B5BDB0C5
S31500008B701222084901A806F013FDD82206490DF174
S31500008B80160006F00DFD01A9042000F097F93DB08E
S31500008B905DF804FBC00F0020D40F002000B5BDB067
S31500008BA001A9042000F0C8F968B1122200210C487E
S31500008BB006F005FDD82200210A4806F000FD002037
S31500008BC03DB05DF804FB122201A9054806F0E8FC59
S31500008BD0D8220DF11601034806F0E2FC0120EFE76A
S31500008BE0C00F0020D40F002000B5BFB001A9062099
S31500008BF000F0A2F940B101A9072000F09DF938B1B3
S31500008C0000203FB05DF804FB01A803F00BFBF2E780
S31500008C1001A803F04FFB0120F3E708B50146062043
S31500008C2000F04CF908BD08B50146072000F046F9EA
S31500008C3008BD000000B5BFB0F022074901A806F044
S31500008C40AFFC064B1B788DF8F43001A9012000F02B
S31500008C5035F93FB05DF804FB0898FF1F5811002056
S31500008C6010B50A4C0023E371621E0634511CCB7901
S31500008C7012F8010F0344DBB2CB71A242F7D10349CC
S31500008C80DB43CB71002000F019F910BD5C11002008
S31500008C9008B50A49002000F04FF958B1074BFF22EA
S31500008CA01A705A7000229A70DA701A715A719A7193
S31500008CB01A7208BD0122014B1A7208BD5C11002010
S31500008CC0F0B5C1B06946012000F036F988B3214CF1
S31500008CD004F1F007204E10252A463146204606F0BC
S31500008CE05FFC1034A742F7D100221C4B1A7069466C
S31500008CF0022000F021F9054628BB194C04F1240690
S31500008D00227A0DEB0501606806F04AFC237A1D44C1
S31500008D10EDB20C34B442F3D19DF8C80009F0C2F8A4
S31500008D2003220DF1C9010F4806F03AFC012041B0BB
S31500008D30F0BDF0226946074806F032FC9DF8F020A7
S31500008D40064B1A70D3E70024064B1C70FFF76CFE27
S31500008D502046ECE70898FF1FF897FF1F58110020E0
S31500008D600499FF1F340E002008B5FFF75DFE08BD0D
S31500008D7008B5FFF759FE08BD08B5FFF755FE08BD53
S31500008D8000B589B01C220549684606F009FC69460B
S31500008D90052000F093F809B05DF804FB0080FF1F82
S31500008DA000B589B06946052000F0C6F818B1002064
S31500008DB009B05DF804FB1C226946024806F0F0FB88
S31500008DC00120F5E70080FF1F024A537803F07F0376
S31500008DD0537070470000024030B583B00022164938
S31500008DE012200DF03BFA12200DF058FA134C2146D2
S31500008DF01348FFF7F3FC63693BB100231A46194693
S31500008E000E48FFF751FD03B030BD254601230193FF
S31500008E10002400942346082202212846FFF7E6FD97
S31500008E2029460748FFF7DAFC23462246214628460C
S31500008E30FFF73AFDE7E700BFC98D0000400D0020AF
S31500008E401CA6010008B50B4600F1A0510148FFF72A
S31500008E505FFD08BD400D002070B4064610B31548EE
S31500008E608C1E731EDBB201EB4301002234F8023F75
S31500008E7020F8083C40F80C2C13F0030F1CBF23F01D
S31500008E800303043320F8063C30F8063C04339BB257
S31500008E9020F8063C1A4492B2B2F5805F07D20C3035
S31500008EA08C42E3D1044B1E70002070BC7047032037
S31500008EB0FBE700BF28000020940000201C4B1B7815
S31500008EC0834201D80420704770B582B00C4605462F
S31500008ED0184805EB45039B00C618B288C058FFF733
S31500008EE0B1FFB2880AB3631E013A14FA82F1002276
S31500008EF013F8014F22448B42FAD1524202A941F89B
S31500008F00042D0C4B6A00501953F820000438154400
S31500008F1003EB8503DB8804221844FFF793FF002840
S31500008F200CBF0020042002B070BD0022E5E700BFA0
S31500008F30940000201C0000201E4B1B78834201D8A1
S31500008F4006207047F0B406461B4B00EB400080003D
S31500008F501A181C5804F1A055D388234403F1A053D2
S31500008F6053F8047C93880BB3013B2C46013414FA66
S31500008F7083F42B46002213F8010B02449C42FAD1DB
S31500008F80D74202D00620F0BC7047084606EB4606DC
S31500008F90094B03EB860615F8013B01F8013B0B1A5A
S31500008FA0DBB2B2889342F6D30020ECE7002FFBD069
S31500008FB00620E8E7940000201C00002000487047C7
S31500008FC02080FF1F024AD37943F00F03D371704705
S31500008FD02080FF1F00F1180210F8013B1944C9B2A6
S31500008FE08242F9D1FF2914BF00200120704700F109
S31500008FF01801002310F8012B1344DBB28142F9D18A
S31500009000D843C0B27047000070B5084E084D3446CC
S3150000901028686968AA68EB680FC42869696903C487
S315000090203046FFF7E4FF307670BD00BF5080FF1F6B
S315000090302080FF1F08B50948017EFFF7CBFF48B126
S31500009040074B064A9178997011791971D178D970C0
S31500009050D279DA710022024B9A7108BD5080FF1F47
S315000090602080FF1F70B50E4D0E4E05F13804306896
S315000090707168B268F3680FC43069716903C405F199
S315000090803800FFF7B4FF85F85000012385F8563005
S3150000909085F8553085F8543085F8573070BD00BFD7
S315000090A05080FF1F2080FF1F0138032816D8DFE8F5
S315000090B000F002070C110022094B83F85620704776
S315000090C00022074B83F8572070470022044B83F891
S315000090D0542070470022024B83F85520704700BF8A
S315000090E05080FF1F08B52E4890F850103830FFF713
S315000090F071FF002849D02A4B93F8563053B1294BBB
S31500009100274A92F83A10997092F83F10DA7961F38B
S315000091100002DA71224B93F8543063B1214B204A96
S3150000912092F83D10597192F83F20D979C2F3400266
S3150000913062F34101D9711A4B93F8553063B1194B5B
S31500009140174A92F83C10197192F83F20D979C2F368
S31500009150C00262F3C301D971114B93F8573063B162
S31500009160104B0F4A92F83B10D97092F83F20D979EC
S31500009170C2F3800262F38201D9710A4B5B79042B38
S3150000918006D00022074B9A7108BDFFF71BFFF4E7D4
S31500009190044B00215971DA7961F34102DA71F0E783
S315000091A05080FF1F2080FF1F7047000008B5104B3E
S315000091B093F82230012B08D00E4B1B788BB90E4941
S315000091C00B4809F0BDFF00B208BD094BB3F90220F8
S315000091D0B3F900309A42EFDD0222054B83F82220D4
S315000091E0EAE70649024809F0ABFF00B208BD00BF36
S315000091F0440E0020950000200094FF1F1C94FF1FC2
S31500009200014B1870704700BF9500002008B5154B3C
S31500009210187B00F05BFC0138042821D8DFE800F059
S31500009220030711191D0000220E4B5A7308BD0D4B82
S3150000923000225A731B79032B12D90422094B1A7187
S3150000924008BD084B1B79032B0AD90422054B1A715A
S3150000925008BD0022034B5A7308BD0022014B9A70C9
S3150000926008BD00BF2080FF1F0A4B1B7B0C2B04D0C0
S315000092700D2B06D00E2B08D070470022054B5A71D5
S3150000928070470122034B5A7170470222014B5A71F3
S31500009290F2E700BF2080FF1F10B5964B9C7A06F0C0
S315000092A0E5F901380F286BD8DFE800F093546A6AB5
S315000092B06A6A6A6A6A6A6A6A6A6A31088E4B9B795E
S315000092C0002B5DD18C4B1C7B0134E4B2204600F0B0
S315000092D0FDFB204600F0FAFB172C06D8874B1B88AF
S315000092E04BB1854BDB7C834202D0FFF7BDFF47E0E5
S315000092F0814B1C73F9E7062802D07F4B1C73F4E7F9
S315000093007F4B1B78002BF0D07B4B1C73EDE77A4B21
S315000093109B79002B34D1784B1C7B012C40F20182C7
S31500009320013CE4B2204600F0D1FB002C40F0FD8168
S315000093300422714B1A73FFF797FF21E0062802D02B
S315000093406D4B1C73F7E76E4B1B78002BF3D06A4B03
S315000093501C73F0E7684B9B79002B31D10134E4B2E2
S31500009360072C28BF0724644B1C71634BDA796FF313
S31500009370C302DA71FF2005F051FE0420FFF794FEC8
S31500009380FFF744FF5F4B1B7A042B4CD95C4B1B78D1
S31500009390012B40D0584B1A7B531EDBB2012B3ED912
S315000093A0172A3CD01421584804F06CFD002842D0FE
S315000093B0534B1B78012B3ED10022514B1A703AE0D9
S315000093C04D4B00229A715B79042BCED1FFF78AFEB2
S315000093D0CBE7494B9B794BB9012C03D9013C464B52
S315000093E01C7109E00122444B1A7105E0424B002230
S315000093F09A715B79042B0BD0FF2005F00FFE3E4BD4
S31500009400DA796FF3C302DA710420FFF74DFEB7E78E
S31500009410FFF768FEF0E70022394B1A70BAE704221C
S31500009420354B1A73BEE7344B1A7B531EDBB2012B46
S3150000943001D9172AB6D105F051FB002800F0828128
S31500009440B0F5C05F00F03B8130D8102800F0D7801F
S3150000945014D9B0F5807F00F09580B0F5006F7DD00F
S31500009460802840F08C80244B9B79002B40F087802D
S31500009470FFF7CAFD0122204B9A7180E0012800F017
S31500009480A08002287BD11C4BDB78002B40F0838028
S315000094900122194BDA70184BDA796FF38202DA710E
S315000094A000225A720220FFF7FFFD68E04AF202022C
S315000094B090425DD02AD94FF60272904200F01E818A
S315000094C04FF60372904200F009814FF60362904214
S315000094D055D1094B9B79002B51D1074BB3F900307D
S315000094E0B3F5A07F4BD102200BF080F802200BF0E1
S315000094F04DF844E0A40D00202080FF1FD00D002071
S31500009500980000203880FF1F96000020B0F5005F0D
S3150000951045D0B0F5004F32D18B4B9B79002B40F0F4
S31500009520A080894B5B79042B00F0BF80FFF79AFD82
S31500009530854B1B79042B40F2BB80834B04225A7166
S315000095400021D97001229A70DA7902F0F80261F3EB
S31500009550C302DA7100227C4B5A7210E07A4B9B7977
S31500009560012B0CD1FFF766FD0022774B9A7106E0BE
S315000095700122764B1A700021754804F083FCFFF730
S3150000958045FE10BD704B1B7A012B0CBF0022012239
S315000095906D4B1A72F3E700226B4BDA707BE76A4B6E
S315000095A09B7943B9684B5B7B012B0CBF00220122E0
S315000095B0654B5A73E3E7FFF73DFD0122624B5A7391
S315000095C0DDE7614B9B7983B95F4B9B78012B0CBF21
S315000095D0002201225C4B9A705B4BDA796FF3000232
S315000095E0DA710120FFF760FDC9E7FFF723FD564B4F
S315000095F0DA796FF30002DA7101229A70F1E7524BC1
S315000096009B7993B9504B5B79042B23D00133DBB2A2
S31500009610032B22D84C4A53710320FFF745FD4A4BD2
S31500009620DA796FF34102DA71A9E7FFF703FD464BDA
S31500009630DA796FF3C302DA7101221A715B79134486
S31500009640DBB2032B02D8404A5371E5E700223E4BBA
S315000096505A71E1E7FFF746FDDEE700223A4B5A7101
S31500009660DAE7FFF7E7FC384B5B79042B19D0FFF7F5
S31500009670F9FC354B04225A710021D97001229A70E7
S31500009680DA7902F0FC0261F3C302DA711B79042B6A
S315000096903FF660AF05222C4B1A71142005F0BEFC74
S315000096A058E70022284B5A71E1E7FFF71BFD51E707
S315000096B00522254B1A71142005F0B0FC3DE7224B1C
S315000096C09B79002B7FF45BAF1F4BB3F90030B3F5EA
S315000096D0A07F7FF454AF03F0C7FE50E71A4B9B7987
S315000096E0002B7FF44CAF184BB3F90030B3F5A07FD5
S315000096F07FF445AF14200AF079FF40E7124B9B79BF
S31500009700002B7FF43CAF104BB3F90030B3F5A07FCC
S315000097107FF435AF01200AF069FF01200AF036FF19
S315000097202DE7012000F0D2F901240A4B1B88002BFB
S315000097303FF404AE044BDB7C83427FF4FCAD024B6A
S315000097401C73F8E510BD00BF2080FF1F98000020A5
S3150000975096000020D00D00207047704708B5104BCA
S3150000976093F82230012B08D00E4B1B788BB90E498B
S315000097700B4809F0E5FC00B208BD094BB3F902201D
S31500009780B3F900309A42EFDD0222054B83F822201E
S31500009790EAE70649024809F0D3FC00B208BD00BF5B
S315000097A06C0E0020990000205494FF1F3894FF1F70
S315000097B0014B1870704700BF99000020064B1B88AC
S315000097C001339BB2632B03D96422034B1A80704783
S315000097D0014A1380704700BFA000002010B582B078
S315000097E09E4B1B7813F0040F11D09D4AD37903F0DA
S315000097F0F4036FF38203D3710A219A4804F0F2FA54
S3150000980050B9FFF7A9FFFFF747FD02B010BD09F0F9
S31500009810E3FD09F097FEEFE701F0C6FD904B1B7ADA
S31500009820914A12789A4205D08F4A137000218F48C8
S3150000983004F03CFB8A4B1B7A012B00F09E80002231
S315000098408B4BDA71864B5B79042B99BF894AD25CC4
S31500009850884B1A79864B5A71814B9B79002B40F0C5
S3150000986099807F4BDB7913F0080F40F09F807C4B8B
S315000098701B79072B02D90722794B1A71784B1A7973
S315000098807D4B33F912307D4A1380794A5380744BED
S315000098901A797B4B1A7001227A4B1A70704B9B799E
S315000098A0002B00F09380774A002393729371D37252
S315000098B09370537053731373D371734A9370684BD9
S315000098C01988704A91801B7A012B0CBF0122002255
S315000098D06C4B9A73624B597B6A4A5174DB78012B45
S315000098E000F0B280674B00221A7201225A72664B50
S315000098F0644A9179D970117A5971917A9971517C2A
S31500009900D971917B1972D2791A7101229A72022247
S315000099105A7253490A7B02EB820252001A808B79F3
S31500009920002B40F097804E4BDB8823F480631B05A9
S315000099301B0DB3F5306F0CBF012300238DF80630E5
S3150000994000200AF05FFE464B9A788DF802204C4ABA
S3150000995012788DF805205A798DF80320DA788DF87B
S3150000996004201B7B03EB83035B0002A820F8083D61
S315000099700AF04EFEFFF722FF43E74FF461713B48C2
S3150000998004F094FA20B10022354B1A72012257E7EF
S31500009990012255E700223A4B1A7001F017FD012803
S315000099A07FF479AF0022324B5A8074E704200AF024
S315000099B04FF9324C208005F03DFB294B1871228867
S315000099C02B4B5A80142005F029FB60E701222E4B11
S315000099D09A702B4B1A782B4B9A72214B9B78012B42
S315000099E004D01F4BDB7913F0010F21D00122254B48
S315000099F09A711B4BDB7903F00B030B2B0CBF012277
S31500009A000022204BDA721F4B00229A7001225A70F4
S31500009A10134B5B7A83B11B4B5A73114B9B7A7BB109
S31500009A200122184B1A730E4B5A79164BDA7146E718
S31500009A300022144B9A71DCE70022124B5A73ECE7B2
S31500009A400022104B1A73EEE7134601221A72002207
S31500009A505A724CE702200AF0D5FD8BE7340E00203F
S31500009A602080FF1F9C000020A30000209E000020F5
S31500009A70C40D00208094FF1F7094FF1FA4000020D7
S31500009A80A2000020A40D0020280E002038B50A4BA5
S31500009A9000241C705C70094D2C722146084804F0A5
S31500009AA0F1F9084B1C70FFF757FE074B1C80EC744E
S31500009AB06C74AC7438BD00BF640D00202080FF1F9D
S31500009AC09A000020A2000020A0000020031FDBB2A5
S31500009AD0022B24D9A0F10803DBB2032B01D8022004
S31500009AE07047A0F10C03DBB2022B01D803207047AC
S31500009AF0A0F11003DBB2022B01D804207047A0F1BD
S31500009B001403DBB2022B01D805207047172808D0B2
S31500009B10431EDBB2022B34BF062000207047012013
S31500009B20704706207047C31EDBB2042B09D9A0F18B
S31500009B300803DBB2012B06D90D280CBF022000203A
S31500009B40704701207047022070470000134BDB7CF2
S31500009B50013B042B20D8DFE803F003090E141A009A
S31500009B600E4B00225A710122DA7070470B4B00220D
S31500009B705A71DA707047094B01225A710022DA7065
S31500009B807047064B02225A710022DA707047034B67
S31500009B9002225A710022DA70704700BF2080FF1F30
S31500009BA004380A2814D8DFE800F0060B1313131341
S31500009BB0131313101000074B1A88074B1A817047AE
S31500009BC0044B1A88044B1A8170473222024B5A8082
S31500009BD0704700BF1A95FF1FC80E002010B5994B9D
S31500009BE09B79012B4ED0974B187BFFF76FFF0446EE
S31500009BF0954BB3F9003013F1460F02DB0021934A6F
S31500009C00117013F1770F02DA0122904B1A70904B04
S31500009C101B78A3424CD08B4BDB7C002B34D000212D
S31500009C208C4804F02FF9874A0023D37493748A4A28
S31500009C3013708A4A138843F040031380062C49D0D8
S31500009C40804B9B79012B4FD07E4B9B7C013B162B87
S31500009C507FD8DFE813F084009E007E00B900B900CB
S31500009C60B9007E00110111011101110144014401E5
S31500009C7044017E006901690169017E008A018A0149
S31500009C808A01AB010024B3E74FF41671714804F062
S31500009C90F9F818B9704B1B78002BCAD0694BDC74E5
S31500009CA06B4A14701A7B9A742046FFF74FFFC0E781
S31500009CB0644BDB7CA34204D0624BDC742046FFF786
S31500009CC045FF604B1A7B9A74644A138823F040035D
S31500009CD01380B3E75B4B0620D8745D4A10701A7B7D
S31500009CE09A74FFF733FFABE70022564B5A74564B74
S31500009CF0B3F90020952A40F35D810021584B197075
S31500009D0093B2C82B94BF00200120564908704633F1
S31500009D109BB2DC2B94BF00210121534B1970962A6C
S31500009D2000F351810022514B1A70464B5B7C033B7A
S31500009D300B2B00F26381DFE813F056015601560142
S31500009D407701770193019301AE016101AE019301A1
S31500009D50AE013C4B00225A745A759A75C7E7444BBC
S31500009D6032221A805A8000229A805A814FF420713A
S31500009D70D980FA2119811A735A739A73DA731A748D
S31500009D805A769A835A742F4B012159745A759A75CB
S31500009D90ADE7374B32221A805A8000229A805A81C8
S31500009DA04FF42071D980FA2119811A735A7301214F
S31500009DB09973D97319745A769A835A74214B02216E
S31500009DC059745A759A7592E72A4B5B78FBB11F4B0B
S31500009DD01B78C3B10A221B4B5A74254B64221A8086
S31500009DE000225A809A805A814FF42071D980FA2134
S31500009DF019811A735A7301219973D9731974597693
S31500009E009A835A7473E709220E4B5A74E5E70D4B91
S31500009E109B78012B06D0174B1B7873B10422094B94
S31500009E205A74DAE7134B1B781BB10522054B5A749B
S31500009E30D3E70322034B5A74CFE70022014B5A742F
S31500009E40CBE700BF2080FF1F3880FF1FBC0000202B
S31500009E50A8000020B40000200295FF1F940E0020E9
S31500009E60BF000020C0000020C1000020C20000206A
S31500009E70980E0020D00D00208A4B5B78FBB18A4BF0
S31500009E801B78C3B10A22894B5A74894B64221A8003
S31500009E9000225A809A805A814FF42071D980FA2183
S31500009EA019811A735A7301219973D97319745976E2
S31500009EB09A835A741BE709227C4B5A74E5E7794B5F
S31500009EC01B781BB10422794B5A74DEE7774B9B78DB
S31500009ED0012B0CBF06220022744B5A74D5E7714B36
S31500009EE05B7853B1704B1B781BB10A226F4B5A74C7
S31500009EF0FDE609226D4B5A74F9E66A4B1B781BB1D5
S31500009F0004226A4B5A74F2E6684B9B78012B07D001
S31500009F10664B5B7B012B03D00022644B5A74E6E64A
S31500009F200722624B5A74E2E65E4B1B781BB1042291
S31500009F305E4B5A74DBE65D4B9B78012B06D0594B82
S31500009F405B7873B10922594B5A74D0E6554B5B784E
S31500009F501BB10D22554B5A74C9E60822534B5A744D
S31500009F60C5E60022514B5A74C1E64E4B1B781BB115
S31500009F7004224E4B5A74BAE64C4B5B7B012B06D03F
S31500009F80484B5B7873B10A22484B5A74AFE6454B8F
S31500009F905B781BB10E22454B5A74A8E60C22434B44
S31500009FA05A74A4E60022414B5A74A0E60F223F4B96
S31500009FB05A749CE63F4B5B8A002B7FF4A1AE0121CD
S31500009FC03D4B19709CE601223C4B1A70374B5B7C6B
S31500009FD0033B0B2B12D8DFE803F0060606272743C0
S31500009FE0437B117B437B344B1B78BBB100222F4B49
S31500009FF05A742C4A938A43F0010393822B4C607C5B
S3150000A000FFF791FD20752E4B1B78012B3AD0022BC2
S3150000A0103BD0264B1A7D2A4B1A7010BD214A938AD3
S3150000A02023F001039382E9E7264B1B786BB10022EC
S3150000A0301E4B5A741B4A938A43F001039382224AA9
S3150000A040138843F020031380D8E7164A938A23F037
S3150000A050010393821C4A138823F020031380CDE763
S3150000A0601A4B1B7843B10022104B5A740D4A938A3F
S3150000A07043F001039382C1E70A4A938A23F001035E
S3150000A0809382BBE70228C4D101E00128C1D1002296
S3150000A090064B1A75BDE7034A938A23F001039382A0
S3150000A0A0ACE700BFD00D0020BC0000202080FF1FC1
S3150000A0B0980E0020E80D0020BF000020C2000020FE
S3150000A0C0C6000020C0000020940E0020C100002021
S3150000A0D00022044B5A74044A938A43F00103938284
S3150000A0E08CE700BF2080FF1FD00D002070B582B026
S3150000A0F001F076F9FFF75AF8934B587C934B1B788F
S3150000A100834203D0914B1870FFF74AFD8E4B5B7C60
S3150000A110032B22D0052B5AD0042B7ED0062B00F021
S3150000A120A280072B00F0C180082B00F03B810D2B8D
S3150000A13000F09381092B00F0E6810C2B00F01A82C7
S3150000A1400E2B00F054820A2B00F0B5827E4A0023C3
S3150000A150537593757E4A137637E07B4B00255D7504
S3150000A16001209875997C043909B27A4B33F911307C
S3150000A170794C2380794A9383794B9A886280B3F924
S3150000A1800030B3F5D77FA8BF4FF4D773FA2BB8BF0B
S3150000A190FA23A3F5D772734BB3F9003003FB02F32E
S3150000A1A0714A82FB0362DB17C3EBA2036F4A32F8E4
S3150000A1B0112013446381664B5D8258766C4A12887F
S3150000A1C0DA836C4A12881A84187602B070BD5E492A
S3150000A1D001224A758A755E4B1A76897C04395D4878
S3150000A1E030F911005C4908805C4CA0835C4880888B
S3150000A1F04880614800884881002159825F49098862
S3150000A200D9835C4909881984DA735D4B1B78032B63
S3150000A210DBD94F4B5A745A76D7E74B4B01225A7506
S3150000A220002098754A4B1A764B494C4C258A0D806E
S3150000A230A4894C80504C24884C8158825149098805
S3150000A240D9834C4909881984DA734D4B1B78032B43
S3150000A25003D93F4B5A745A76B7E73D4B00225A76DC
S3150000A2601A765A74B1E7384B00225A7501249C7548
S3150000A270374A147638491E200880384DA883384856
S3150000A280808848809B7C083B1BB23F4830F813000F
S3150000A29048813E4931F8133053825476344B1B883B
S3150000A2A0D383344B1B8813848FE7274B00225A75C0
S3150000A2B09A75274A33490988D1832E49098811841A
S3150000A2C0997809B101229A751F4B5B7B1BB11E4A17
S3150000A2D0937D02339375204A1E2313801F48838380
S3150000A2E01F4B9B885380184B9B7C0C3B1BB228480A
S3150000A2F030F813005081274A32F81300144A50826E
S3150000A30001291CBF124A002151761176224A32F9E0
S3150000A3101310224A11801248C08850800F48C1830A
S3150000A3201F4931F813305381074B5B7B3BB1012248
S3150000A330074B9A8341F28832054B5A8445E700223F
S3150000A340034B9A83F6E700BF2080FF1FA900002079
S3150000A350980E0020BC94FF1FEC0E00201C0D002060
S3150000A3603880FF1F9494FF1F67666666B494FF1FCC
S3150000A3702695FF1F2A95FF1F0895FF1F1295FF1FA1
S3150000A380C00E00202495FF1FC494FF1FCC94FF1F0E
S3150000A390EC94FF1FF494FF1FFC94FF1F440E002053
S3150000A3A0E494FF1FAF4D00226A750223AB75AE4ED3
S3150000A3B03376ADF800203222ADF80220AB4A1168A0
S3150000A3C002AA42F8041DAA490988F183A94C6946E4
S3150000A3D0B4F9000004F05CFB3084AA7C103A12B297
S3150000A3E0A54B33F91210A54B1980A548C183E18806
S3150000A3F05980B4F9003003F14601A24BB3F900309D
S3150000A40003FB01F3A04981FB0301DB17A3EBA103C7
S3150000A4109E4931F8122013441BB2B3F5487F11DB75
S3150000A420964A53814FF47A728F4B5A828D4B9B78A2
S3150000A430012B0CD08C4B00225A761A7601228A4BBD
S3150000A440DA73C2E64FF448728C4B5A81EAE7864BC0
S3150000A45001225A7602221A76F0E7824B02225A75B8
S3150000A4609A7581490A7601224A769A7C103A12B286
S3150000A470814B33F9123081490B808148C3837D4B70
S3150000A480D8884880B3F9000000F146017D4BB3F946
S3150000A490003003FB01F37C4981FB0341DB17A3EB8F
S3150000A4A0A1037A4931F8122013441BB2B3F5487F51
S3150000A4B024DB724A53814FF47A726B4B5A82694B92
S3150000A4C09B78012B03D0684B00225A761A7600231C
S3150000A4D0ADF800303223ADF80230644B1B6802AA97
S3150000A4E042F8043D0223694604F0D2FA5E4B188412
S3150000A4F0674A1288DA830122DA7366E64FF44872F5
S3150000A5005E4B5A81D7E7574B02225A75002199753F
S3150000A51055490A76594A5A48048A148080895080D7
S3150000A5205C48008850814FF47A724A829B78012BEE
S3150000A5301DD04D4B00225A761A760023ADF8003016
S3150000A5403223ADF80230494B1B6802AA42F8043D9B
S3150000A550022369464748B0F9000004F099FA424BD5
S3150000A5601884434A1288DA830122DA732DE601221F
S3150000A5704A76E2E73B4A00215175022393753A4B2E
S3150000A5801976597601219983434909885984927C21
S3150000A590143A12B2414B33F9123041490B80384814
S3150000A5A0C383344BD8884880B3F9003003F1C8011F
S3150000A5B03C4BB3F9003003FB01F3334981FB030144
S3150000A5C0DB17A3EBA103384931F8122013441BB261
S3150000A5D0B3F5967F08DC4FF49672314B5A814FF4EF
S3150000A5E07A72214B5A82F0E52D4A5381F7E71D4ACC
S3150000A5F00223537593751C4B002119765976012158
S3150000A60099832A4909885984927C143A12B2234BB9
S3150000A61033F9123022490B801948C383154BD88869
S3150000A6204880B3F9003003F1C8011E4BB3F900307E
S3150000A63003FB01F3144981FB0301DB17A3EBA10321
S3150000A640194931F8122013441BB2B3F5967F2FDC5B
S3150000A6504FF49672124B5A814FF47A72024B5A8219
S3150000A660B3E500BF2080FF1F980E002010A6010052
S3150000A6702895FF1F3880FF1FDC94FF1F6C0E0020FB
S3150000A6801C0D00209494FF1F67666666D494FF1F16
S3150000A6901495FF1F0A95FF1F1895FF1FA494FF1F0F
S3150000A6A0440E00209894FF1F9C94FF1F1695FF1FD1
S3150000A6B0134A5381D0E7134B02225A7500229A752A
S3150000A6C0114B1A765A7601229A83104A12885A84B6
S3150000A6D00B4B0F4A118A198092895A800D4BB3F998
S3150000A6E00030B3F5967F08DC4FF49672044B5A811E
S3150000A6F04FF47A72044B5A8267E5014A5381F7E7B1
S3150000A700440E00202080FF1F980E00201095FF1F8A
S3150000A7101C0D00200E95FF1F38B500F061FEFFF7F7
S3150000A7201DF89E4BB3F904209D4BB3F900309A42B5
S3150000A73045DA9A4BB3F904209A4BB3F900309A42A2
S3150000A74005DC994B5A8A40F23E339A4246D9934BDE
S3150000A7501B8803F1460292B2DC2A07D80021934AED
S3150000A760117093490A8822F020020A8077339BB23F
S3150000A770B3F59F7F07D901228C4B1A708C4A138838
S3150000A78063F0200313808B4B9B7D13F0010132D0C5
S3150000A7900122894B9A76894B1B78002B41D1884B35
S3150000A7A01B78002B3DD1874B83F824205A8A864B91
S3150000A7B05A82002931D0002000F03EFE37E00A21FF
S3150000A7C0824803F073FB0028B3D000227B4B1A703B
S3150000A7D0774A138823F010031380AAE700217B48E9
S3150000A7E003F064FB0122754B1A70714A138843F01B
S3150000A7F010031380ABE76F4A527D12F0010FC7D1E9
S3150000A80013F002034ED06B4A9278012A4ED00023F1
S3150000A810694A93766C4A538209E0012000F00CFEE7
S3150000A82005E00023674A82F82430674A53820A21EA
S3150000A830674803F027FB00285DD0664B1A78013283
S3150000A840D2B21A706449654B5B88088803441BB210
S3150000A8500B806349B1F900108A424CDB00215D4A46
S3150000A8601170604A82FB0302DB17C3EBA2031BB223
S3150000A8705A4A5380584A11805B4A1278012A57D0A7
S3150000A880022A7FD040F63402934230DD464B5B8A83
S3150000A890B3F57A7F26DDC83B544A13800122524B1A
S3150000A8A01A702CE012F0020FADD1B0E70121424A36
S3150000A8B091763E4A127872B94D4A82F82410518A2E
S3150000A8C0414A51821BB10020FEF772FFAFE701201B
S3150000A8D0FEF76EFFABE70023454A82F824303A4A7A
S3150000A8E05382A4E74FF44872404B1A80D6E742F2EF
S3150000A8F010723E4B1A803C4B1B78022B45D02C4ADB
S3150000A900138823F0010313802B4B9B7E002B00F052
S3150000A910418101222C4B5A76364B1B78013B042B86
S3150000A9206AD8DFE813F094009E00E500EA00F5001F
S3150000A93040F63402934215DD1B4B5B8A40F25232DD
S3150000A940934203DC0222284B1A701EE0B3F57A7F8D
S3150000A95003DDC83B254A1380D1E74FF44872234BE9
S3150000A9601A80CCE7B3F5C86FC9DA204A1388643376
S3150000A9701BB2138042F210729342C0DD00221A4BC2
S3150000A9801A70BCE70022194B1A8000220E4B5A821D
S3150000A990074A138843F001031380B5E73880FF1F89
S3150000A9A08C94FF1F8A94FF1FE80D0020BB00002037
S3150000A9B0940E00202080FF1F980E0020BA00002071
S3150000A9C0BF000020EC0E0020C80E0020B8000020BA
S3150000A9D0B2000020C7000020C40000201C0D00208B
S3150000A9E09294FF1F67666666A70000202095FF1FEA
S3150000A9F06C0E0020A60000200122714B1A70002167
S3150000AA00704803F03FFA6E4B1B78032B32D06E4A28
S3150000AA10138843F00203138000246C4B93F8243010
S3150000AA20012B00F08E806A4B93F82430012B00F046
S3150000AA308D803221674803F0D5F9002800F0BE80EA
S3150000AA40002C40F088800022634B5A8238BD0A21D0
S3150000AA505C4803F017FA0028D5D00222584B1A702A
S3150000AA60D5E70A21574803F00DFA0028CBD0032278
S3150000AA70534B1A70594B5C8A594BB3F90600594926
S3150000AA80B1F91E30B1F920505749B1F90010002C28
S3150000AA9049D024B28342A8BF03469C42A8BF1C46A5
S3150000AAA0AC42B8BF2C468C42A8BF0C46B0F5487FD6
S3150000AAB03BDA454A138843F0040313800024424AD4
S3150000AAC0138823F002031380A7E7454BB3F904303C
S3150000AAD04BB932213B4803F0D5F9002893D0042224
S3150000AAE0374B1A7093E70021364803F0CBF98AE713
S3150000AAF00021344803F0C6F985E70A21314803F0FE
S3150000AB00C1F900283FF47FAF05222D4B1A707EE76E
S3150000AB100A212C4803F0B6F900283FF474AF00224E
S3150000AB20274B1A7073E70024C0E7274A138823F0DF
S3150000AB3004031380B4F5487FC1DB0022224B1A8040
S3150000AB406BE72146214808F0EFFB72E721462048D3
S3150000AB5008F0EAFB6DE7204B588A001B00B203F0B1
S3150000AB6060FF1D282ADD1C4B5B8AA3420CDD1E3BC1
S3150000AB70194A5382184B5B8AB3F5487F1EDA4FF4A5
S3150000AB804872154B5A8238BDA342F3DA1E33124A75
S3150000AB905382EFE70A4B1B78013B042B3FF62FAF9E
S3150000ABA001A252F823F000BF4FAA000063AA0000DA
S3150000ABB0CBAA0000FBAA000011AB000038BD00BF05
S3150000ABC0A6000020AC000020940E0020EC0E002011
S3150000ABD06C0E0020B6000020E80D0020C80E0020F4
S3150000ABE0D00D0020980E00202095FF1F08B5FEF717
S3150000ABF0DDFA304B5B7B002B50D02E4B5B7D13F088
S3150000AC00020F3AD02C4B012283F824205A8A2B4B70
S3150000AC109A82284B9B7D13F0020F3BD00020FEF753
S3150000AC20EFFA274BB3F90030244A928A9A42BCBF06
S3150000AC30224A9382234BB3F90830204A928A9A42D9
S3150000AC40C4BF1E4A9382204BB3F92230B3F5FA6F84
S3150000AC5003DA4FF4FA621C4B5A841B4BB3F92230C9
S3150000AC60164A928A9A42C4BF144A9382134BB3F986
S3150000AC701410114808F058FB16E00E4B9B7D13F09C
S3150000AC80020F0BD00C4B012283F824205A8A0B4B5F
S3150000AC909A82C3E70120FEF7B3FAC2E70023064A09
S3150000ACA082F82430054A9382044B9A8A074B9A828B
S3150000ACB008BD00BF2080FF1F440E0020C80E0020E4
S3150000ACC02295FF1FD00D0020980E0020E80D0020D1
S3150000ACD008B5804B5B7C042B1DD07F4B1B7E022B63
S3150000ACE07E4B0CBF012200221A735A737C4B1B78D1
S3150000ACF0022B16D0042B14D0032B4DD0774B1B7B85
S3150000AD0013B90022774B1A73744B5B7B7BB9002215
S3150000AD10744B5A730BE0714B00221A7301225A735B
S3150000AD20E4E7704B6D4A117B1973527B5A73694B7A
S3150000AD305A7C531EDBB2012B43D93AB1664B1B7EBC
S3150000AD40022B43D0684B1A88644BDA80634BDA884F
S3150000AD50644BDA805F4B5B7C63B15E4B9B7C013B53
S3150000AD60DBB2012B3CD95B4B5B7D012B3CD0002237
S3150000AD705A4B1A81594B1A895A4B1A81554B5B7C8F
S3150000AD805A1E0D2A62D8DFE802F05E5E858585854B
S3150000AD908585858561858585524B9A894F4B9B892B
S3150000ADA09A4207D04D4B5B8A23B1504A136843F051
S3150000ADB0010313604B4B494A117B1973527B5A733B
S3150000ADC0B5E74FF42072454BDA80BFE7484A494958
S3150000ADD04448B0F9120003F05BFE404BD880B5E75B
S3150000ADE0FA223E4B1A81C5E73D4B1B78022B21D038
S3150000ADF0042B1FD0032BBDD13F4B19783F4803F0DE
S3150000AE0055F80028B6D03E4BB3F90C20B3F91030F4
S3150000AE10143B9A42AEDC314A3A4B197813895B1AD5
S3150000AE209BB21381384AB2F900209342A2DA2B4B27
S3150000AE301A819FE7354B1A88284B1A8100212F4823
S3150000AE4003F034F896E73221244A1180234A118808
S3150000AE50244A11802BB3A3F10902D2B2012A1DD9CB
S3150000AE605A1ED2B2012A31D90D3BDBB2012B53D97E
S3150000AE701A4BDB7B1E2B40F29580254B1B78002B53
S3150000AE8040F086803222154B5A800021214803F07B
S3150000AE900DF806E06421114A1180D7E764220F4BB2
S3150000AEA05A800E4BD97B1A4A11705A880D4B5A801C
S3150000AEB0084B5B7C013B0D2B7BD8DFE803F07777F3
S3150000AEC07F7F7F7F7F7F7F7F7A7F7F7F3222034BEB
S3150000AED05A80E6E72080FF1F980E0020C80E00204B
S3150000AEE0A6000020E80D00200695FF1FE80E0020B2
S3150000AEF0B094FF1FAC94FF1F2E95FF1FB0000020DB
S3150000AF001C0D00202D95FF1F1E95FF1F1A95FF1F74
S3150000AF10BD000020AE0000202A4B5B8AB3F5487FB7
S3150000AF201DD0294B1988294802F0C0FF0028B8D047
S3150000AF30274BB3F90C20B3F91030A3F114018A4260
S3150000AF4015DA244A244B1B7851880B445380214B35
S3150000AF505B88642BA5D964221E4B5A80A1E7322256
S3150000AF601C4B5A800021194802F0A0FF99E71433C0
S3150000AF709A42ECDD174B5B88174A1278934203D846
S3150000AF800022144B5A808CE79B1A124A5380DEE744
S3150000AF903C21124802F08AFF002882D000220D4B85
S3150000AFA05A807EE700220B4B5A807AE70022094B33
S3150000AFB09A80084B9A88034B9A8008BD0122054B5C
S3150000AFC09A80F6E7E80D00209094FF1FAA00002063
S3150000AFD01C0D0020C80E00202C95FF1FAE0000207F
S3150000AFE03B4B5B7C072B35D03A49B1F9023003EB7A
S3150000AFF083031B01384A82FB0302DB17C3EBE20320
S3150000B000CB80364B5A8A2B2303FB02F3344A82FB4E
S3150000B0100312DB17C3EB621319B22E4A9181314832
S3150000B020808A5081B2F90220914227DAD31A1BB2E4
S3150000B030284A1381B3F5FA7F20DB254B5B7D0BBBDA
S3150000B040234A927D002A36D1264B00225A769A76DA
S3150000B050DA7670471F4BB3F90230B3F5FA7FD0DDCD
S3150000B060A3F5FA7303EB83031B011B4A82FB03124E
S3150000B070DB17C3EBE203174AD380C2E70022154B66
S3150000B0801A81DAE70121174A517613F0010F15D01C
S3150000B0900121144AD17613F0020F04D10C4B9B7D8B
S3150000B0A013F0020F03D001220E4B9A76704700224E
S3150000B0B00C4B9A76704701210A4A5176044A927DD2
S3150000B0C012F0010FE4D10021064AD176E3E700BF72
S3150000B0D02080FF1FD00D002083BEA02FC80E0020A9
S3150000B0E067666666E80D00202DE9F843844B5B7CB5
S3150000B0F0012B50D0022B52D0824D834F834C02231A
S3150000B1002A463946B4F9180003F0C2FC0646022363
S3150000B1102A467F49B4F9160003F0BAFC8146022399
S3150000B1202A463946B4F91A0003F0B2FC80460223D7
S3150000B1302A463946B4F9140003F0AAFCF3B24B458B
S3150000B140A7BF744A9373734B83F80E90714B9B7B26
S3150000B1504345BCBF6F4B83F80E806E4B9B7B83428F
S3150000B160BCBF6C4B98736B4B9A7B6B4B9A73644B5F
S3150000B1705B7C012B17D0022B23D06149497D002926
S3150000B18049D064216348C1736348C173063BDBB28F
S3150000B190012B0DD81AE000225E4B9A73E3E7642276
S3150000B1A05C4B9A73DFE700235A49CB735A49CB733A
S3150000B1B0534B5B7D13F0020F36D06421554B197447
S3150000B1C007E064235349CB735349CB736421514B36
S3150000B1D01974504B197C504B1974504B1B7A552BD4
S3150000B1E002D901204E4908704F2B02D800214C4B42
S3150000B1F01970434B1B7D002B5CD0002A3CD0484A7B
S3150000B2001278012A19D0642142484181424841817D
S3150000B210002A3AD016E000213E48C1733E48C17369
S3150000B220063BDBB2012BD1D9354B9B7D13F0020FC8
S3150000B230C3D10021374B1974CBE74623354A5381D6
S3150000B240354A5381334B0022DA759A75324B314AAF
S3150000B250D17DD975927D9A75BDE8F8832B4BB3F9EC
S3150000B2600230B3F5966FC8BFD175B3F57A7FEDDAC4
S3150000B2700022284BDA75E9E7002226494A81264949
S3150000B2804A81274A1278002ADCD10121214A917588
S3150000B2908B42E3D01D4BB3F90230B3F5C86F02DD24
S3150000B2A001211C4AD175B3F5966FCFDA0022194BEE
S3150000B2B0DA75CBE70023174A5381174A5381184B97
S3150000B2C01B78002BBED1114BB3F91430B3F5C87FF0
S3150000B2D002DB01210F4A9175B3F5B97F02DC00212B
S3150000B2E00C4A9175B3F5FA7F02DB0121094AD17543
S3150000B2F0B3F5EB7FAADC0022064BDA75A6E700BFA2
S3150000B3002080FF1F34A6010038A601001C0D002076
S3150000B31030A60100C80E0020E80D00203880FF1F6F
S3150000B320BE000020194BDB7C042B1BD0174BDB78AF
S3150000B330012B174B0CBF5A781A78164B1A71164BFD
S3150000B3401A78164B1B78991A154B5B8A03FB01F387
S3150000B350144981FB0301DB17C3EBA11313440D4A08
S3150000B36093717047094BDB78012B0AD0084A137892
S3150000B3705278D21A48BF033203EBA203054A13716F
S3150000B380DDE7034B5A78034B1A71D8E72080FF1F7D
S3150000B3908894FF1FC40D00208F94FF1F8E94FF1FFB
S3150000B3A0980E0020D34D621008B5FEF717FCFEF785
S3150000B3B09DFEFFF7B1F9FFF719FCFFF789FCFFF7D0
S3150000B3C093FEFFF70DFEFFF7ADFF08BD024B1878A1
S3150000B3D0033818BF01207047A60000207047000000
S3150000B3E008B5114B03221A8493F82230012B08D09A
S3150000B3F00E4B1B788BB90E490B4807F0A1FE00B225
S3150000B40008BD094BB3F90220B3F900309A42EFDACE
S3150000B4100222054B83F82220EAE70649024807F094
S3150000B4208FFE00B208BD00BFEC0E0020C800002051
S3150000B4304C95FF1F3095FF1F014B1870704700BFDA
S3150000B440C80000207047704708B509F0EBF81C4AA1
S3150000B45000239371D37213729372937053701374A3
S3150000B46013705373137353729373D373D37193809F
S3150000B470144A13705380D37153721372124A538154
S3150000B480137353739373D3731374538293829375A5
S3150000B490D37553769376D37613774FF47A610B4848
S3150000B4A002F0A0FC30B10122094B1A70012000F015
S3150000B4B0C5FA03E0064B1B78002BF7D108BD00BF89
S3150000B4C0A40D0020C40D0020E80D0020CA000020B5
S3150000B4D0CC00002008B50021044802F083FC0020BF
S3150000B4E0034B187000F0AAFA08BD00BFCA0000207E
S3150000B4F0CC00002008B530B10122094B1A70002299
S3150000B500084B1A7006E0064B1B78002BF7D1012278
S3150000B510044B1A700021044802F0B4FC08BD00BFB9
S3150000B5206895FF1FCD000020CE00002010B5134BFC
S3150000B53000229A70DA705A719A71DA711A721A7157
S3150000B5409A725A721A800E4B1B78012B08D90D4B32
S3150000B5501A70012403F0C2FA04F088F8204610BDE0
S3150000B5600A21094802F08EFC10B10222044B1A701F
S3150000B570022009F047F80024ECE700BF280E00205F
S3150000B580CD0000206895FF1FCE00002010B40028D3
S3150000B59008BF01200C4B1C7800230C490130C0B2B7
S3150000B5A0132828BF01200A1812F8012C144207D1CB
S3150000B5B00133DBB2122BF1D100205DF8044B70474A
S3150000B5C0122B28BF0020F8E76995FF1FC00F002047
S3150000B5D0014B1870704700BFD000002038B504F04A
S3150000B5E045F803F07BFA80280CD1FF227F4B1A70B6
S3150000B5F07F4AD37943F00F03D371002009F002F894
S3150000B600012038BD0446794B1B78052BF0D8DFE8BE
S3150000B61003F003143E7B86990021764802F032FC43
S3150000B6200024754B1C700125744B1D70204608F0D4
S3150000B630E9FF6E4B1D70204638BD0A216D4802F0A9
S3150000B64021FC30B16C4A13780133DBB21370052B41
S3150000B6500DD8694B1B7813F0010F0FD008F082FF4D
S3150000B66009F01AF8022008F0CDFF002038BD0222AA
S3150000B6705E4B1A700020604B187038BD08F07CFFD6
S3150000B68009F018F8012008F0BDFF002038BD0A2196
S3150000B690584802F0F7FB30B1574A13780133DBB252
S3150000B6A013700F2B15D8544B1B78082B1AD90F2162
S3150000B6B0002002F0E7FC0F21012002F0E3FC0F213D
S3150000B6C0022002F0DFFC0021084602F065FC0020A3
S3150000B6D038BD0322454B1A700020474B187008F0FE
S3150000B6E091FFE0E7F021002002F0CCFCF0210120E0
S3150000B6F002F0C8FCF021022002F0C4FC0121002067
S3150000B70002F04AFC002038BD142008F06FFF02202A
S3150000B71008F03CFF0422354B1A70002038BD08F0B3
S3150000B7205FFF002860D10522304B1A700024344B8D
S3150000B7301C70344B1C702046FFF728FF324B1870E4
S3150000B740204638BD05212B4802F09CFB38B12C4B16
S3150000B7501B780133DBB2042B1BD8294A1370284B04
S3150000B7601B7813F0010F1FD0002008F04BFF264B6B
S3150000B770187800EB8000400008F038FFB4F5004F61
S3150000B7801DD048F201039C4229D0012C10D0002084
S3150000B79038BD00221A4B1A701A4B1B7823B91A4D62
S3150000B7A02878FFF7F3FE2870022008F02BFFE5E764
S3150000B7B0154C2078FFF7EAFE2070002038BD0F4BAD
S3150000B7C01B78012B04D001220C4B1A70002038BDC7
S3150000B7D008220A4B1A7000200B4B187038BDFF2048
S3150000B7E001F092FA002038BD002038BDD0000020BC
S3150000B7F02080FF1FD2000020D70000206995FF1F80
S3150000B800D6000020D5000020D400002008B5FFF7A0
S3150000B81061FE08F0EFFC08BD08B501F0C9FD02F0B5
S3150000B82019FC08F0CBFC01F02BFF08BD08B503F0AE
S3150000B83075F801F03DFF01F0EDFF08BD08B501F018
S3150000B840C5FF01F0B5FD08BD08B54B1E032B11D889
S3150000B850DFE803F00A020D05FFF7DEFF08BD032847
S3150000B8600DD0FFF7D3FF08BDFFF7E0FF08BDFFF7D8
S3150000B870EAFD08BD012802D109B9FFF7DFFF08BDBF
S3150000B88010B5002004F050F8044607F00DF9002129
S3150000B890594802F0A7FA1E21584802F0A3FA60B1EF
S3150000B8A00022574B1A70574B1B78013B042B0ED8BE
S3150000B8B0DFE803F08B9E51377C00524B1B78013B2F
S3150000B8C0042B04D8DFE803F08121472D72004FF4E2
S3150000B8D0FA714D4802F086FA002800F089800120AE
S3150000B8E007F014F9464B1B783BB9464C02212078E9
S3150000B8F0FFF7AAFF0223237010BD424C04212078D3
S3150000B900FFF7A2FF0423237010BD3D4B1B78012BCC
S3150000B9106ED104210220FFF797FF0422394B1A70DB
S3150000B92010BD374B1B7873B1384B1B78002B5FD09B
S3150000B930B4F5167F5CDA334C03212078FFF784FFD9
S3150000B9400323237010BD02210420FFF77DFF02228E
S3150000B9502C4B1A70E8E72A4B1B78BBB12B4B1B7894
S3150000B960E3B107F09BF8002842D1264C0521207848
S3150000B970FFF76AFF052323700021234802F032FAFD
S3150000B980002007F0C3F807F0CFF810BD022103200E
S3150000B990FFF75AFF02221B4B1A70DFE7194C0421EE
S3150000B9A02078FFF751FF04232370DAE76421164855
S3150000B9B002F018FAE0B1012007F0A8F8114C0121B5
S3150000B9C02078FFF741FF01232370002402F0FDF8E1
S3150000B9D007F06AF807F062F828B9204604F00CF977
S3150000B9E0B0F52F7FF2DD07F059F810B902F0F6F83E
S3150000B9F010BD02F0F3F810BDD8000020DA000020D8
S3150000BA00DE000020DF000020DC0000206A95FF1F1A
S3150000BA10014B1878704700BFDF00002010B5064CB8
S3150000BA2000212078FFF710FF0023237007F086F827
S3150000BA3006F0AEFA10BD00BFDF000020014B187003
S3150000BA40704700BF6A95FF1F70470000034648B164
S3150000BA5001280CD0022803BF074B1868C0F34040EA
S3150000BA6000207047044B1868C0F3C0207047034B92
S3150000BA701868C0F34000704750F00F4010F10F40B7
S3150000BA8088B1012841F2883303FB01F10C4B83FB9B
S3150000BA9001234FEAE171C1EB631107BF094B9963BB
S3150000BAA0094B1964704741F2883303FB01F1044BDB
S3150000BAB083FB0123C917C1EB6311024B196470475D
S3150000BAC01F85EB5100900340008003402DE9F843A9
S3150000BAD00A21304802F086F9002858D02E4A1388E9
S3150000BAE0013313802D4C00252F4690464FF0010957
S3150000BAF027E0224634F80C3C1BB9B8F8001024F8AD
S3150000BB000A1C013322F80C3C12E0022104F8011C45
S3150000BB1028E0BE2A2CD9042203F8022C33F80A2C7A
S3150000BB2023F8042CB8F8002023F8062C23F80C7C04
S3150000BB3034F8101C3046FFF7A3FF01351034032DEF
S3150000BB4025D0EEB23046FFF781FF0128D1D023463B
S3150000BB5034F80C2C5A2A13D914F8011C0029D4D114
S3150000BB6004F8019CF02AD4D9082203F8022CD5E760
S3150000BB708C2A86BF022203F8022C03F8029CCDE72A
S3150000BB803C2A84BF04F8017C04F8027CCEE7BDE8B9
S3150000BB90F88300BFE2000020E0000020240F002010
S3150000BBA00001014B19527047140F00200B4651B18A
S3150000BBB0421E4B1E50FA83F1002312F8010F034474
S3150000BBC0DBB28A42F9D1D843C0B270470B4651B1B5
S3150000BBD0421E4B1E50FA83F1002312F8010F034454
S3150000BBE0DBB28A42F9D1FF2B14BF00200120704737
S3150000BBF000B585B00221744802F0F4F898B1734B91
S3150000BC001B78012B12D90022704B1A7003F0FDF835
S3150000BC10102003F03FF9012865D06D4A13880133DF
S3150000BC20138003F004F905B05DF804FB03F0EDF8AA
S3150000BC30112003F02FF9012816D0654A1388013325
S3150000BC40138003F0F4F805216846FFF7BFFF18B12B
S3150000BC509DF80330AA2B32D000BF00BF00BF5C4A5C
S3150000BC60138801331380DEE7584A137801331370C3
S3150000BC70142002F07EF803F048F98DF80000012048
S3150000BC8003F0F2F803F041F98DF80100012003F00A
S3150000BC90EBF803F03AF98DF80200012003F0E4F81E
S3150000BCA003F033F98DF80300012003F0DDF803F00B
S3150000BCB02CF98DF80400002003F0D6F8C1E79DF8B2
S3150000BCC0000068B99DF801309DF8020000EB0320E2
S3150000BCD080B2404B18800028A5D002F017FFA2E7DB
S3150000BCE003F094FCEEE70C223B49684603F058FC4F
S3150000BCF00C216846FFF75AFF8DF80C009DF80000EE
S3150000BD0003F0C8F8354B18701B78DBB2012B88D1CD
S3150000BD109DF8010003F0BEF8304B18700A2002F0BF
S3150000BD2028F89DF8020003F0B5F80A2002F021F881
S3150000BD309DF8030003F0AEF80A2002F01AF89DF809
S3150000BD40040003F0A7F80A2002F013F89DF8050096
S3150000BD5003F0A0F80A2002F00CF89DF8060003F0A4
S3150000BD6099F80A2002F005F89DF8070003F092F80A
S3150000BD700A2001F0FEFF9DF8080003F08BF80A2068
S3150000BD8001F0F7FF9DF8090003F084F80A2001F09E
S3150000BD90F0FF9DF80A0003F07DF80A2001F0E9FFA4
S3150000BDA09DF80B0003F076F80A2001F0E2FF9DF8FB
S3150000BDB00C0003F06FF80A2001F0DBFF9DF80D0080
S3150000BDC003F068F82DE700BFE4000020E60000203D
S3150000BDD04C0F0020460F0020280E00204A0F00209E
S3150000BDE008B5112800F2AF80DFE800F0090B12ADAC
S3150000BDF019222BADADAD34475A6D8093ADA6012007
S3150000BE0008BD042003F09CFD003018BF012008BDCA
S3150000BE10052003F095FD003018BF012008BD012064
S3150000BE2002F0B6F910F00C0F14BF0120002008BD77
S3150000BE30002002F0ADF910F00C0F14BF0120002015
S3150000BE4008BD022002F0A4F910F00C0F14BF012067
S3150000BE50002008BD0221062003F03CFD092801D878
S3150000BE60012008BD0221062003F034FD40F2DE3336
S3150000BE70984294BF0020012008BD0221072003F04C
S3150000BE8029FD092801D8012008BD0221072003F059
S3150000BE9021FD40F2DE33984294BF0020012008BD08
S3150000BEA00221082003F016FD092801D8012008BD4B
S3150000BEB00221082003F00EFD40F2DE33984294BFC3
S3150000BEC00020012008BD02210A2003F003FD0928F5
S3150000BED001D8012008BD02210A2003F0FBFC40F234
S3150000BEE0DE33984294BF0020012008BD02210B20BA
S3150000BEF003F0F0FC092801D8012008BD02210B201F
S3150000BF0003F0E8FC40F2DE33984294BF00200120A3
S3150000BF1008BD02210C2003F0DDFC092801D8012010
S3150000BF2008BD02210C2003F0D5FC40F2DE33984216
S3150000BF3094BF0020012008BD06F01AFB002814BF9C
S3150000BF40C120802008BD002008BD000038B5044689
S3150000BF50002003F0E9FC0A4A61000B1902EB830397
S3150000BF60084D85FB00C5C017C0EBA50098704FF4BF
S3150000BF70807098608C2018711A46FF23D37038BDE4
S3150000BF80D40F00206766666638B504468A4B1A7B6E
S3150000BF9002705A7C4270DB7913F0020F12BF5523F0
S3150000BFA0854B5B798370844BDB7913F0040F12BFEA
S3150000BFB05523814BDB78C3707F4BDB7913F0080F79
S3150000BFC012BF55237C4B1B7903717B4BDB7913F036
S3150000BFD0010F12BF5523784B9B784371774DB5F906
S3150000BFE0023083711B12C371032003F09DFC207283
S3150000BFF0032003F099FC00126072B5F90030A372B9
S3150000C0001B12E372042003F08FFC2073042003F05C
S3150000C0108BFC00126073B5F90430A3731B12E37333
S3150000C020674B9A8B227493F91D206274B5F906202A
S3150000C030A2741212E274DA8B227593F91F206275CC
S3150000C0402A7AA275B3F90620E27512122276B3F99E
S3150000C050042062761212A276B3F90A20E276121250
S3150000C0602277B3F9082062771212A277B3F9022079
S3150000C070E277121284F82020B3F9002084F82120F8
S3150000C080121284F82220B3F90C2084F8232012120D
S3150000C09084F82420B3F90E2084F82520121284F89F
S3150000C0A02620B3F9102084F82720121284F82820BD
S3150000C0B0B3F9123084F829301B1284F82A30414D26
S3150000C0C0B5F90230404A82FB0312DB17C3EBA20329
S3150000C0D084F82B3002F0AEFF84F82C002B7884F81D
S3150000C0E02D30002002F032F884F82E00002002F0F5
S3150000C0F03FF884F82F00012002F028F884F8300079
S3150000C100012002F035F884F83100022002F01EF812
S3150000C11084F83200022002F02BF884F833002B4B0F
S3150000C1205A8A84F83420120A84F835209A8A84F8C8
S3150000C1303620120A84F83720254AB2F9022084F8FC
S3150000C1403820121284F839201A8884F83A205A883E
S3150000C15084F83B209A8884F83C201A8984F83D208C
S3150000C160120A84F83E20DA8884F83F20120A84F8FE
S3150000C17040205A8984F84120120A84F842201A7B0A
S3150000C18084F843205A7B84F844209A7B84F845201F
S3150000C190DA7B84F846201A7C84F84720DA7D84F816
S3150000C1A048209B7D84F849300A4B1B8884F84A3026
S3150000C1B01B0A84F84B3038BD2080FF1F3880FF1FD4
S3150000C1C01C0D0020C40D002067666666E80D002081
S3150000C1D0D00D0020940E0020114B1968F1B12DE905
S3150000C1E0F04106460025A8462C461F4607EBC50526
S3150000C1F02A79304603F0D4F92B791E4443441FFABA
S3150000C20083F8013424B2254657F834100029EDD1BD
S3150000C210B8F1F00F00D900BEBDE8F081704700BF4D
S3150000C2208495FF1F2DE9F04180460E4B186890B1AA
S3150000C230464600252C461F4607EBC5052A7931469A
S3150000C24003F0AEF92B791E44013424B2254657F883
S3150000C25034000028F0D14046FCF7DFFC0120BDE8A1
S3150000C260F08100BF8495FF1F114B1968F1B12DE9CC
S3150000C270F04106460025A8462C461F4607EBC50595
S3150000C2802A79304603F08CF92B791E4443441FFA71
S3150000C29083F8013424B2254657F834100029EDD12D
S3150000C2A0B8F1F00F00D900BEBDE8F081704700BFBD
S3150000C2B0F496FF1F2DE9F04180460E4B186890B1A9
S3150000C2C0464600252C461F4607EBC5052A7931460A
S3150000C2D003F066F92B791E44013424B2254657F83B
S3150000C2E034000028F0D14046FCF79DFC0120BDE853
S3150000C2F0F08100BFF496FF1F38B5044602783B4B29
S3150000C3001A7342789A708278DA70C2785A71027912
S3150000C3101A7142791A7282795A73354BC2791A7038
S3150000C320417A027A02EB01225A80827A9A71C27AA3
S3150000C3305A71027B1A71427BDA71092200F10E01F1
S3150000C3402C4803F02DF9222204F117012A4803F0A4
S3150000C35027F92A4D0A2204F1E601284603F020F9BE
S3150000C3602B7813F0040004D0204AD1796FF3000132
S3150000C370D17113F0080104D01C4AD4796FF38204FA
S3150000C380D47113F0100204D0184CE5796FF341050F
S3150000C390E57113F0200F04D0144CE5796FF3C30553
S3150000C3A0E57113F0020F04D0104BDC796FF3000433
S3150000C3B0DC7120B10D4BD8796FF38200D87121B1B1
S3150000C3C00A4BD9796FF34101D9714AB1074BDA7932
S3150000C3D06FF3C302DA711B7923B10022034B9A7102
S3150000C3E0012038BD0122014B9A71F9E72080FF1F19
S3150000C3F0B80D0020680D0020800D0020380E0020AA
S3150000C40010B50446184B1A7B02709A784270DA7897
S3150000C41082705A79C2701A7902711A7A42715B7BFC
S3150000C4208371124B1A78C271B3F90220027212128A
S3150000C43042729A7982725A79C2721A790273DB79D8
S3150000C440437309220A490E3003F0AAF82222094949
S3150000C45004F1170003F0A4F80A22074904F1E600E4
S3150000C46003F09EF810BD00BF2080FF1FC40D002002
S3150000C4703880FF1F1C0D0020380E0020F0B4204B22
S3150000C4805B7813F0200F03D01E4A11881E4A1180D4
S3150000C49013F0400F03D01B4A51881B4A518013F0FA
S3150000C4A0800F28D1164B9B7813F0010F03D0154A45
S3150000C4B0D188154AD18013F0020F03D0114B1A7A96
S3150000C4C0114B1A721223114C114901270C4E01F11E
S3150000C4D02205C3F3C400A3EBC00207FA02F2305CE4
S3150000C4E002421CBF22880A80023102340133A9426B
S3150000C4F0EFD1F0BC7047034B9A88034B9A80D1E783
S3150000C500380E0020680D00203880FF1F800D0020A7
S3150000C5101C0D00207F4B93F90030002B29DB7D4B4F
S3150000C5205B7813F0010F03D07B4A51887B4A518018
S3150000C53013F0020F03D0784A9179784A917113F07B
S3150000C540040F03D0744A5179744A517113F0080FDD
S3150000C55003D0714A1179714A117113F0100F03D08B
S3150000C5606D4BDA796D4BDA716D4B5B7C0F2B05D019
S3150000C5707047694B1A78694B1A70D0E730B469492D
S3150000C5804A6802F001024B68C3F3813303EB82036E
S3150000C590634A53714B68C3F34303604803EB830359
S3150000C5A003EB83039B0043800A68C2F304624B6873
S3150000C5B0C3F342135C4C257803EBC203DBB262780B
S3150000C5C0521B02FB03F2594C84FB02C3D217C2EB87
S3150000C5D0E3022A4402710A68C2F304420B68544D0E
S3150000C5E02D78D20002EB5372D2B2524B1B785B1BF2
S3150000C5F003FB02F384FB0324DB17C3EBE4032B44A6
S3150000C60083710A68C2F304220B68C3F3425303EB37
S3150000C610C20303EB830303EB83035B009BB2464C2D
S3150000C620A382086800F003000A68C2F3423202EBF4
S3150000C630C002C2EB421102EB8102920092B2628208
S3150000C640002B55D001226276A276364B1A68C2F3C9
S3150000C650C00239490A731A68C2F380024A731A681B
S3150000C660C2F30312642303FB02F3344A82FB030280
S3150000C6701A44DB17C3EBE2034B81314A5368C3F319
S3150000C68002435068DB0103EB50630B815068C0F333
S3150000C69004205368C3F3C44303EB4013CB805368B1
S3150000C6A0C3F34133022B2FD0254B5B68C3F34133D1
S3150000C6B0012B214B4FF00002DA7508BF01229A7553
S3150000C6C01F4A5168C1F3C0311B4B99801168090E8E
S3150000C6D019805168C9B25980116899731168C1F3FC
S3150000C6E00721D9731268C2F307421A7430BC3FE7B8
S3150000C6F022B1114B01225A76DA76A6E70E4B0022BA
S3150000C7005A76DA769A76A0E70122CA7500228A75E9
S3150000C710D6E700BF380E0020B80D0020C40D00205B
S3150000C7202080FF1FD41300208894FF1F676666666B
S3150000C7308F94FF1F8E94FF1FE80D0020898888883C
S3150000C740101300202DE9F047284CA61C002541F2C5
S3150000C750883A4FF00109A84626E01421304601F038
S3150000C76091FBE0B1022304F80A3C04F8099C24F882
S3150000C770088C637113E014F8023C83B1022304F8B9
S3150000C7800A3C04F8099C34F8063C24F8083C06E008
S3150000C7905146204601F026FB08B184F80490013585
S3150000C7A010341036072D1ED0E9B2A4F10A0000F0AD
S3150000C7B027F80028ECD04146204601F013FB84F808
S3150000C7C004806379012BC8D0022BD4D04146304671
S3150000C7D001F058FB04F80A9C04F8099C24F8088C1C
S3150000C7E084F80590DBE7BDE8F08700BF5A0F00200C
S3150000C7F0024B03EB00108180704700BF500F0020F2
S3150000C80030B402460B46002962D1B149C97981B1DB
S3150000C8100021AF4BD971AF4991F83830C3F34103CA
S3150000C820037291F83A3091F83B1003EB0123C38071
S3150000C8300123A84890F83010C9B2A74D2970A7491E
S3150000C8408C7944F001048C7190F83040947880F82B
S3150000C850304090F83140E4B26C708C7944F00204B8
S3150000C8608C7190F831405488240A80F831408879D8
S3150000C87000F0FC0088719A48817901F0FE0181710F
S3150000C8805178E9B1934890F8321041F0010180F8EF
S3150000C89032109349887900F0FD0088718D4C94F828
S3150000C8A03300127802F0070200F0F800024384F821
S3150000C8B033208A7902F0FB028A71184630BC704731
S3150000C8C0844890F8321001F0FE0180F83210E0E75B
S3150000C8D001290FD0022971D0032900F0998004297B
S3150000C8E000F0C080052900F00581062900F051817D
S3150000C8F00020E3E77649497A002955D0002074499B
S3150000C9004872744890F84810C1F34101117290F8CA
S3150000C9104A1090F84B0001EB0021D18018466D4972
S3150000C92091F84030DBB26C4D2B706C4B1C7A44F0A6
S3150000C93001041C7291F84040947881F8404091F8C7
S3150000C9404140E4B26C701C7A44F002041C7291F807
S3150000C95041405488240A81F84140197A01F0FC01CB
S3150000C96019725F490B7A03F0FE030B725378EBB131
S3150000C970584991F8423043F0010381F84230584952
S3150000C9800B7A03F0FD030B72524D95F84340137872
S3150000C99003F0070304F0F802134385F843300B7ADB
S3150000C9A003F0FB030B7289E70020B8E7494991F8C9
S3150000C9B0423003F0FE0381F84230E0E7444B5B78F7
S3150000C9C0F3B10021424B5970424B9B7AC380012040
S3150000C9D0012313723F4B59789178597040490B786F
S3150000C9E003F0FD030B70537863B13A4A137843F0B2
S3150000C9F0010313703A4A137803F0FE0313705DE7E0
S3150000CA000020E5E7334A137803F0FE031370F1E7DD
S3150000CA102F4BDB78F3B100212D4BD9702D4B9B7E2C
S3150000CA20C3800120012313722A4B597C91785974D3
S3150000CA302B498B7803F0FD038B70537863B1254A3D
S3150000CA40137C43F001031374254A937803F0FE0325
S3150000CA50937033E70020E5E71E4A137C03F0FE03DC
S3150000CA601374F1E71A4B5B794BB10021184B5971DE
S3150000CA70184B93F828309B09C380012000E0002062
S3150000CA80012313725388D3B1124991F8203043F031
S3150000CA90020381F8203012490B7903F0FD030B7174
S3150000CAA05378FBB10B4A92F8203043F0010382F829
S3150000CAB020300B4A137903F0FE031371FEE6054995
S3150000CAC091F8203003F0FD0381F82030E3E700BF42
S3150000CAD0EC0C0020BCA1FF1FE40C0020FC0C002085
S3150000CAE0A8A1FF1F514A92F8203003F0FE0382F8F6
S3150000CAF02030DEE74E4BDB7A002B3BD000214C4B3F
S3150000CB00D9724A4991F85530C3F3C003037291F8BC
S3150000CB105430C3800120454991F85030002381F8F4
S3150000CB205030444B9C7A04F0FE049C7291F85240BB
S3150000CB300F2481F85240997A01F0F70199725388CF
S3150000CB40D3B13A4A92F8513003F0FB0382F85130E0
S3150000CB50384A937A03F0FB039372344A92F85130C1
S3150000CB6043F0010382F85130324A937A03F0FD0311
S3150000CB709372A3E60020CEE72C4A92F8513043F098
S3150000CB80040382F851302B4A937A03F0FB03937225
S3150000CB90E3E7274B5B7B002B39D00021244B5973ED
S3150000CBA0224991F85D30C3F3C003037291F85C30FB
S3150000CBB0C38001201D4991F85830002381F8583070
S3150000CBC01C4B5C7B04F0FE045C7391F85A400F2406
S3150000CBD081F85A405C7B04F0F7045C7391F8594085
S3150000CBE044F0010481F85940597B01F0FD01597365
S3150000CBF0538873B90D4A92F8593043F0040382F80A
S3150000CC0059300C4A537B03F0FB03537356E600205E
S3150000CC10D0E7064A92F8593003F0FB0382F8593000
S3150000CC20044A537B03F0FB03537347E6BCA1FF1F83
S3150000CC30EC0C0020A8A1FF1FF8B5FBF7AFFFA8B9C1
S3150000CC401E4B187888B11E4A1E490138531C53FAE8
S3150000CC5080F00024537823F0030343F0400302F8E6
S3150000CC60013F01F8014F8242F4D1F8BD164B174A35
S3150000CC7002F1D804002612E012F8015C092D87BFE4
S3150000CC8021F028011970013502F8015C1670197837
S3150000CC9021F00401197001330C32A24209D019782F
S3150000CCA011F0400FF7D111F0020FE5D002F8016C38
S3150000CCB0F1E70122064B1A70C2E700BFE700002029
S3150000CCC0BF0F0020F3000020C00F0020D50F00206A
S3150000CCD0D497FF1F08B5122806D900200023074A5B
S3150000CCE01370074A137008BD064B18700022044BD8
S3150000CCF01A70FFF7A1FF0120F0E700BFE80000204F
S3150000CD0008010020E7000020FF2813D0164B1B78EF
S3150000CD10834228D95022154B1A540022144B1A5418
S3150000CD2000EB4000134B03EB800042700122124BD4
S3150000CD301A70704730B40C4B1C7884B10F4B1048F6
S3150000CD400C4A013C591C51FA84F45025002103F881
S3150000CD50015F00F8011F51700C32A342F7D1012286
S3150000CD60054B1A7030BC7047E7000020C00F00204A
S3150000CD70F4000020D40F0020D497FF1FBF0F00201F
S3150000CD80F30000202DE9F0410821B04801F02AF80F
S3150000CD9090B90024AE4B1B88F92B0AD90022AC4B64
S3150000CDA01A80AC4B1B7823B1AB4B1B78012B00F0E0
S3150000CDB0F1802046BDE8F081A54A1388013313802F
S3150000CDC0002002F0B1FD0446A34B1B78022B1ED0B7
S3150000CDD0032B58D0012B10D040F2DC519F4801F0B4
S3150000CDE001F8D8B1A4F561739BB2B3F52F7F8CBF60
S3150000CDF002220122984B1A7010E0A0F561739BB2D3
S3150000CE00B3F52F7F0AD90222934B1A7006E0A0F2DF
S3150000CE10B7339BB240F2562293422CD9B4F5FA7F2F
S3150000CE2047DA00228C4B1A708D4B1B7813B90122FE
S3150000CE308B4B1A70002002F077FD0446A0F2F51322
S3150000CE409BB2B3F5C77F42D840F21451854800F033
S3150000CE50C9FF10B10122844B1A70B4F5C86F42DDC8
S3150000CE6040F21451814800F0BDFF002846D001224F
S3150000CE707F4B1A7042E00021784800F0B3FF03228E
S3150000CE80754B1A70CAE7A0F561739BB2B3F52F7F95
S3150000CE900AD84FF4FA71714800F0A4FF0028BDD0FB
S3150000CEA001226D4B1A70B9E700216C4800F09AFF19
S3150000CEB0EFE740F2B6339C42BCDD694B1B78012B91
S3150000CEC0B8D10022664B1A70FFF7B6FEB2E7002112
S3150000CED0644800F087FF40F2B6339C42BDDD002275
S3150000CEE0614B1A70B9E70021604800F07BFF40F201
S3150000CEF00D639C4202DC00225D4B1A70564B1B7878
S3150000CF000BB9FE2446E704F095FF08B9FF2441E774
S3150000CF10584B1B78002B3BD00024574F574EDFF859
S3150000CF20348186E0504B1878012838D081283FD0CC
S3150000CF30C1283BD0002800F0A580802808BF2246E3
S3150000CF4071D1E223BB54B35C13F0100F17D123F059
S3150000CF504103B35467E0464B1878E5E7C1283BD058
S3150000CF6005EB450301EB83035A7042E023F05003BF
S3150000CF7043F001037355012388F8003049E023F09C
S3150000CF805103B354012388F800304CE0012401E733
S3150000CF900124FFE62F4B1A70FBF7E8FD09E725464B
S3150000CFA03B571B2B05DC02333B553CE0254600E096
S3150000CFB025461E237B55735D13F0020F20D143F0E7
S3150000CFC00202725505EB45022D4901EB82025278A9
S3150000CFD00132D2B2012AC1D905EB4502284901EB3B
S3150000CFE082020221517043F00A0373552046FEF770
S3150000CFF0ADFF735D43F004037355012388F80030D9
S3150000D000735D13F0100FB1D123F0400343F0010319
S3150000D0107355735D13F0200F05D143F0200373554C
S3150000D020012388F800300134E4B2124B1B78A34286
S3150000D030ACD9072C3FF476AF082C8CD0064B1B7866
S3150000D040012BF0D12046FEF7CBFE6DE7EA0000206B
S3150000D05006010020D497FF1FE8000020EC00002006
S3150000D06008010020F00000200A010020EE00002048
S3150000D07009010020E7000020F4000020C00F002076
S3150000D080D40F002022463B5713F11C0FFFF659AF71
S3150000D090013B3B55C7E700BF08B50DF06DF8002012
S3150000D0A00DF042FA0022042110460DF067F808BD83
S3150000D0B008B500F071FE00F0AFFB00F015F900F0C6
S3150000D0C01CF900F0E3F900F07DF9FEF7A7FCFFF785
S3150000D0D0E3FF00F05DFE03E000F0B4FA00F038F97B
S3150000D0E000F052FE00F078FA00F028F9FEF7C8FBCF
S3150000D0F0FEF78EFC0228EFD0FEF78AFC042806D045
S3150000D100FEF786FC0328EBD1FEF79CF9E8E7FEF76D
S3150000D1109BF9E5E704207146014214BFEFF309814C
S3150000D120EFF308810D480160084B1B68084A13603D
S3150000D1309A69084B1A604FF0E023D3F8283D1B0C80
S3150000D1401B04054A136000BEFEE700BF1001002065
S3150000D1500C010020E0100020D0100020100100205B
S3150000D16004207146014214BFEFF30981EFF30881F1
S3150000D170124801600C4B1B680C4A13609A690C4BF1
S3150000D1801A604FF0E023D3F8283DDBB2094A13605A
S3150000D190136813F0800F05D04FF0E023D3F8342D39
S3150000D1A0054B1A6000BEFEE7100100200C010020AE
S3150000D1B0E0100020D8100020EC1000201001002004
S3150000D1C004207146014214BFEFF30981EFF3088191
S3150000D1D0134801600D4B1B680D4A13609A690D4B8D
S3150000D1E01A604FF0E023D3F8283D03F47F430A4A40
S3150000D1F01360136813F4004F05D04FF0E023D3F803
S3150000D200382D064B1A6000BE704700BF1001002083
S3150000D2100C010020E0100020E4100020E81000209F
S3150000D2201001002004207146014214BFEFF309816A
S3150000D230EFF308812B480160204B1B68204A1360DE
S3150000D2409A69204B1A604FF0E023D3F82C2D1E4B21
S3150000D2501A601B6813F0804F05D04FF0E023D3F817
S3150000D260242D1A4B1A604FF0E022D2F8283D1B0CF1
S3150000D2701B0417490B60D2F8283D03F47F43154A77
S3150000D2801360136813F4004F05D04FF0E023D3F872
S3150000D290382D114B1A604FF0E023D3F8283DDBB24E
S3150000D2A00E4A1360136813F0800F05D04FF0E02389
S3150000D2B0D3F8342D0A4B1A6000BE704710010020C7
S3150000D2C00C010020E0100020D4100020DC1000200B
S3150000D2D0D0100020E4100020E8100020D810002014
S3150000D2E0EC100020100100204FF0E022D2F8243D7F
S3150000D2F043F4E023C2F8243D70474FF0E022D2F811
S3150000D300183D43F0101343F48053C2F8183D70479C
S3150000D310094B01219971DA7902F0F4026FF3820266
S3150000D320DA719970197100225A71DA701A72042230
S3150000D3301A7328221A8070472080FF1F08B5034BF6
S3150000D3401B78022B01D0FBF7DDFB08BDF010002097
S3150000D35008B5154B1B78012B14D03BB1022B14D00A
S3150000D3600020114B1870FEF7C5F808BDFEF7DEF871
S3150000D3700028FAD001220C4B1A7006F085FCFCF747
S3150000D38085FB08BDFCF72AFA08BDFEF727F9002839
S3150000D390EBD00122044B1A70044BF0221A80DA7982
S3150000D3A042F00F02DA7108BDF01000202080FF1F46
S3150000D3B008B50020FEF79EF80022014B1A7008BD42
S3150000D3C0F010002008B500F0BDF928B9FBF77AFB8C
S3150000D3D070B9FFF79DFF0BE0FFF79AFF1D4BC822C0
S3150000D3E01A805A824FF4C872DA80FA229A825A80D8
S3150000D3F0194B1B88AA3B9BB2962B02D9F022164BDF
S3150000D4001A80154B1B7913B90122134B1A7100238D
S3150000D410114A1372114A13705370114A9371D372E1
S3150000D4201372937293705370137413705373137350
S3150000D43053729373D373D37193800A4A13705380D4
S3150000D440FF21917151711171D37153721372FFF7EC
S3150000D450AFFF08BD3880FF1F2080FF1F640D00202E
S3150000D460A40D0020C40D002008B50222024B1A703C
S3150000D4700020FEF7ADF808BDF0100020024A137830
S3150000D48001331370704700BF1601002010B590B02D
S3150000D49000240D940E940F94484B0A93484B0B931B
S3150000D4A0484B0C93484BCDF81834FBF7E7FA0121AB
S3150000D4B0102002F0BBF90AAB06222146032002F037
S3150000D4C0D7F9002863D003220121642000F07AFDF9
S3150000D4D000285FD00121052000F0A4FD012196203F
S3150000D4E000F032FD002858D0384B93E8030008902E
S3150000D4F0ADF8241008A9032001F0A0F900284FD0A8
S3150000D5000E2001F01BFB00284DD01220FFF7E2FB96
S3150000D5102F4B069300238DF80830ADF810306423A6
S3150000D520ADF80C301423ADF80E308DF80B30ADF895
S3150000D53012304FF47A73ADF8143007238DF80A30A1
S3150000D540F8238DF81C3002A801F004FD07F06EF8F0
S3150000D55002F052F804F0A4FD05F020F8FBF744FBB6
S3150000D560FBF7AEFBFBF794FB04F06CFC194B9B78C6
S3150000D570012B1BD000F0AEF810238DF804300220EA
S3150000D5808DF8050001A901F07BFF10B010BDFFF773
S3150000D59075FF98E7FFF772FF9CE7FFF76FFFA3E7BA
S3150000D5A0FFF76CFFACE7FFF769FFAEE70022094B18
S3150000D5B09A70FBF755FB04F069FCDBE7D8A601007F
S3150000D5C070A60100A4A601003CA6010014A6010055
S3150000D5D07094FF1F5C11002008B500F017FC00F0E6
S3150000D5E025FC02F0F9F901F0D3FA00F073FC00F023
S3150000D5F08FFC04F0FFFD05F07DF803F079F804F0E8
S3150000D600ADFB02210E4800F021FCB0B9FEF782FF07
S3150000D61007F05EF807F0BCF806F0B8FBFEF72EFF41
S3150000D62000F0C8FD01F00CFDFEF750FAFFF78AF88E
S3150000D63001F04EFFFEF7DCFA08BD04F0BDFCE5E79D
S3150000D6401401002070470000094B1860094B1A6846
S3150000D650094B9A4206D0084A064B1A600022074B2D
S3150000D6601A607047054A136801331360704700BF9C
S3150000D670F4100020E080FF1FAA55AA551C80FF1F4A
S3150000D68008B50A4B5A6801325A605B69DAB2012A58
S3150000D69003D006490A6901320A6123F0FF0343F009
S3150000D6A00103024A5361FBF76BFB08BD0080FF1FB5
S3150000D6B008B5074B5B69DAB2022A07D023F0FF03ED
S3150000D6C043F00203024A5361FBF75AFB08BD00BF51
S3150000D6D00080FF1F08B5FBF763FB88B1164B1A687D
S3150000D6E09A60164A12681A60DA680132DA605B6973
