S01800005333324B3134345F5374616E6450726A2E73726563EB
S3150000000000700020218400008984000005D70000CC
S3150000001041D60000A1D60000F5D500000000000082
S3150000002000000000000000000000000089840000BD
S31500000030898400000000000089840000D155010079
S315000000401D7F0100277F0100317F01003B7F0100FA
S31500000050457F01004F7F0100597F0100637F01004A
S315000000606D7F0100777F0100817F01008B7F01009A
S31500000070957F01009F7F0100A97F0100B37F0100EA
S31500000080BD7F010089840000898400008984000006
S315000000908984000089840000898400008984000026
S315000000A08984000089840000898400008984000016
S315000000B08984000089840000898400008984000006
S315000000C089840000898400008984000089840000F6
S315000000D089840000898400008984000039E00000DA
S315000000E04DE00000898400008984000089840000B6
S315000000F089840000898400008984000029E00000CA
S31500000100F9DF0000898400008984000089840000EA
S3150000011089840000898400008984000089840000A5
S315000001208984000089840000898400008984000095
S315000001308984000089840000898400008984000085
S315000001408984000089840000898400008984000075
S315000001508984000089840000898400008984000065
S315000001608984000089840000898400008984000055
S3150000017089840000898400005969010063690100CF
S315000001806D690100776901008169010089840000B9
S31500000190898400008B69010095690100898400004B
S315000001A09F69010089840000898400008984000019
S315000001B0A9690100B369010089840000BD690100D5
S315000001C089840000898400008984000089840000F5
S315000001D089840000898400008984000089840000E5
S315000001E089840000898400008984000089840000D5
S315000001F089840000898400008984000089840000C5
S315000003F0898400008984000089840000FFFFFFFFD4
S31500008400FFFFFFFFFFFFFFFFFFFFFFFFFE7FFFFFF7
S315000084104101012D4501001101050002000100087E
S3150000842072B64FF000014FF000024FF000034FF01C
S3150000843000044FF000054FF000064FF00007B84665
S31500008440B946BA46BB46BC460A490B4A521A013AD5
S3150000845005DD0020042308601944043AFBDA0748C6
S315000084608546074880470748804762B605F090F87A
S31500008470FEE700000090FF1F007000200070002043
S31500008480419A010069990100FFF7FEBF53B94AB945
S31500008490002908BF00281CBF4FF0FF314FF0FF3006
S315000084A000F07EB9ADF1080C6DE904CE00F006F8D7
S315000084B0DDF804E0DDE9022304B070472DE9F0475A
S315000084C0089D04468E46002B4ED18A4294466DD9AD
S315000084D0B2FA82F757B1C7F1200EB94020FA0EFE64
S315000084E002FA07FC4EEA010E00FA07F44FEA1C49AD
S315000084F0210CBEFBF9F61FFA8CF809FB16EE41EAD1
S315000085000E4106FB08F38B420AD91CEB010106F16A
S31500008510FF3280F027818B4240F22481023E614483
S31500008520C91AA4B2B1FBF9F009FB101144EA0144DF
S3150000853000FB08F8A0450AD91CEB040400F1FF3340
S3150000854080F00E81A04540F20B810238644440EA77
S315000085500640A4EB080400267DB1FC4000232C60F5
S315000085606B603146BDE8F0878B4209D9002D00F0DB
S315000085701481002685E8030030463146BDE8F087C1
S31500008580B3FA83F6002E40F090808B4202D38242EB
S3150000859000F2FD80841A61EB030101208E46002D56
S315000085A0EBD085E810403146BDE8F0871AB94FF0A8
S315000085B0010CBCFBF2FCBCFA8CF7A7BBA1EB0C03CD
S315000085C04FEA1C421FFA8CF80126B3FBF2FE210C7F
S315000085D002FB1E3341EA034108FB0EF38B4208D926
S315000085E01CEB01010EF1FF3002D28B4200F2D1806A
S315000085F08646C91AA3B2B1FBF2F002FB101143EA98
S31500008600014408FB00F8A04508D91CEB040400F15E
S31500008610FF3302D2A04500F2B7801846A4EB080447
S3150000862040EA0E4098E7C7F1200301FA07F40CFA76
S3150000863007FC20FA03FED9404FEA1C424EEA040E1C
S31500008640B1FBF2F64FEA1E4302FB16111FFA8CF835
S3150000865043EA014306FB08F1994200FA07F40AD9F6
S315000086601CEB030306F1FF3080F08C80994240F248
S315000086708980023E63445B1A1FFA8EF1B3FBF2F067
S3150000868002FB103341EA034100FB08F38B4208D991
S315000086901CEB010100F1FF3E70D28B426ED902380D
S315000086A06144CB1A40EA06468FE7C6F1200722FA54
S315000086B007F8B34001FA06F448EA030320FA07FC78
S315000086C04FEA134EF9404CEA040CB1FBFEF94FEAAF
S315000086D01C440EFB19111FFA83F844EA014109FBF9
S315000086E008F48C4202FA06F200FA06FA08D959187A
S315000086F009F1FF3044D28C4242D9A9F1020919444A
S31500008700091B1FFA8CFCB1FBFEF00EFB10114CEAA4
S31500008710014400FB08F8A04507D91C1900F1FF31F8
S315000087202AD2A04528D902381C4440EA0940A4EBC5
S315000087300804A0FB02894C45C446494616D313D00B
S3150000874055B1BAEB0C0364EB010404FA07F7F340E6
S315000087501F43F4402F606C6000263146BDE8F08769
S315000087601846F4E61646DBE6C245E9D2B8EB020C3B
S3150000877069EB03010138E3E70846D6E7704690E760
S315000087808146BDE7064676E70238644446E730464A
S3150000879005E7AEF1020E61442BE72E462846ECE6CD
S315000087A0704700BF50B10B4B1A6822F01F021A60C7
S315000087B01A6801F01F01114319607047064B1A68C9
S315000087C022F01F021A601A6801F01F011143196096
S315000087D0704700BF0070024000B0034003680B60A2
S315000087E043684B6083688B60C3680B6103698B6168
S315000087F02C4BDB6CC3F303330F2B4DD8DFE803F0B0
S31500008800080F13171E2125292D3034383C404448C3
S315000088104FF48033CB6000234B61002070474FF04C
S31500008820FF33CB60F7E74FF0FF33CB60F3E74FF44E
S315000088300043CB604FF480534B61EEE70023CB60DF
S31500008840F8E74FF0FF33CB60E5E74FF0FF33CB603F
S31500008850E1E74FF0FF33CB60DDE70023CB60E9E7CC
S315000088604FF0FF33CB60D6E74FF48043CB60E1E7B0
S315000088704FF40043CB60DDE74FF48033CB60CAE7AB
S315000088804FF0FF33CB60C6E74FF0FF33CB60C2E754
S315000088904FF48033CB60BEE7CB68B3F5803FC9D3D6
S315000088A0B9E700BF0080044038B5184C247814F0AE
S315000088B0800F01D1022038BD1D460C46134B702196
S315000088C019708121D9719C71552C15D012F0DCF9E3
S315000088D0772C19D1C0B9B5B10C4B9A7A2A70DA7BCC
S315000088E01202AA80997B0A43AA805A7A12026A80E7
S315000088F01B7A1A436A8038BD110AD972D2B29A72AB
S3150000890012F0C2F938BD012038BD00BF0000024098
S315000089102DE9F84F9846344B5B7813F0010F02D1DE
S315000089200420BDE8F88F05460E46914603698B4242
S3150000893041D88A1841690B449A423FD8B9F1000FD1
S315000089403FD04FF0040B4FF0010A274C1CE098F87B
S31500008950032098F802301B0443EA026398F80020CB
S31500008960134398F8012043EA022333605F462FE061
S31500008970237813F0710314BF012000203E44B8444D
S31500008980B9EB07092ED0A3B916F0030F02D1B9F13E
S31500008990030FDCD816F0010F16D1B9F1010F13D968
S315000089A098F8012098F8003043EA02233380022722
S315000089B00EE0BDE8F88F0120BDE8F88F0120BDE884
S315000089C0F88F0020BDE8F88F98F8003033705746CE
S315000089D0637813F0010FCBD1AB69B3F1FF3FF7D04A
S315000089E09847F5E7BDE8F88F0000024038B50D4C12
S315000089F0247814F0800F01D1022038BD094C70256F
S31500008A0025708025E571A3719DF8103063719DF87E
S31500008A10143083F001032371E172A27212F034F96B
S31500008A2038BD00BF0000024070B5B4B0114D00243F
S31500008A3005F124062A7A696801AB181907F060F86F
S31500008A402B7A1C44E4B20C35B542F3D1C72C01D9BC
S31500008A5000BFFDE709F0D2FC8DF8CC0003220649E1
S31500008A600DF1CD0007F04CF801A9022000F026FA1E
S31500008A7034B070BD0499FF1F3C0E002000B585B0D0
S31500008A8005F014FC00F0A8F91823ADF80630EA2327
S31500008A90ADF808301C23ADF80A300923ADF80030D4
S31500008AA0F123ADF80230CC23ADF80430F023ADF855
S31500008AB00C30ADF80E306946082000F0CDF905B04F
S31500008AC05DF804FB70B588B001A9032000F034FA04
S31500008AD068B10026094D0A4C28686968AA68EB68DF
S31500008AE00FC42869696903C4304608B070BD1822EE
S31500008AF001A9024807F004F80126EBE72080FF1FD2
S31500008B000000002030B589B00521144805F044FC6A
S31500008B1008B909B030BD124A1388013313801822F0
S31500008B201049114806F0FBFF0028F2D10D4D18221E
S31500008B30294601A806F0E4FF01A9032000F0BEF9CA
S31500008B40094C28686968AA68EB680FC428696969CE
S31500008B5003C40022024B1A80DBE700BF1800002086
S31500008B601A0000202080FF1F0000002000B5BDB0C5
S31500008B701222084901A806F0C3FFD82206490DF1C2
S31500008B80160006F0BDFF01A9042000F097F93DB0DC
S31500008B905DF804FBE80F0020FC0F002000B5BDB017
S31500008BA001A9042000F0C8F968B1122200210C487E
S31500008BB006F0B5FFD82200210A4806F0B0FF0020D3
S31500008BC03DB05DF804FB122201A9054806F098FFA6
S31500008BD0D8220DF11601034806F092FF0120EFE7B7
S31500008BE0E80F0020FC0F002000B5BFB001A9062049
S31500008BF000F0A2F940B101A9072000F09DF938B1B3
S31500008C0000203FB05DF804FB01A803F049FCF2E741
S31500008C1001A803F08DFC0120F3E708B50146062004
S31500008C2000F04CF908BD08B50146072000F046F9EA
S31500008C3008BD000000B5BFB0F022074901A806F044
S31500008C405FFF064B1B788DF8F43001A9012000F078
S31500008C5035F93FB05DF804FB0898FF1F841100202A
S31500008C6010B50A4C0023E371621E0634511CCB7901
S31500008C7012F8010F0344DBB2CB71A242F7D10349CC
S31500008C80DB43CB71002000F019F910BD88110020DC
S31500008C9008B50A49002000F04FF958B1074BFF22EA
S31500008CA01A705A7000229A70DA701A715A719A7193
S31500008CB01A7208BD0122014B1A7208BD88110020E4
S31500008CC0F0B5C1B06946012000F036F988B3214CF1
S31500008CD004F1F007204E10252A463146204606F0BC
S31500008CE00FFF1034A742F7D100221C4B1A706946B9
S31500008CF0022000F021F9054628BB194C04F1240690
S31500008D00227A0DEB0501606806F0FAFE237A1D440F
S31500008D10EDB20C34B442F3D19DF8C80009F074FBEF
S31500008D2003220DF1C9010F4806F0EAFE012041B009
S31500008D30F0BDF0226946074806F0E2FE9DF8F020F5
S31500008D40064B1A70D3E70024064B1C70FFF76CFE27
S31500008D502046ECE70898FF1FF897FF1F84110020B4
S31500008D600499FF1F3C0E002008B5FFF75DFE08BD05
S31500008D7008B5FFF759FE08BD08B5FFF755FE08BD53
S31500008D8000B589B01C220549684606F0B9FE694659
S31500008D90052000F093F809B05DF804FB0080FF1F82
S31500008DA000B589B06946052000F0C6F818B1002064
S31500008DB009B05DF804FB1C226946024806F0A0FED5
S31500008DC00120F5E70080FF1F024A537803F07F0376
S31500008DD0537070470000024030B583B00022164938
S31500008DE012200DF077FD12200DF094FD134C214654
S31500008DF01348FFF7F3FC63693BB100231A46194693
S31500008E000E48FFF751FD03B030BD254601230193FF
S31500008E10002400942346082202212846FFF7E6FD97
S31500008E2029460748FFF7DAFC23462246214628460C
S31500008E30FFF73AFDE7E700BFC98D0000480D0020A7
S31500008E409CAC010008B50B4600F1A0510148FFF7A4
S31500008E505FFD08BD480D002070B4064610B31548E6
S31500008E608C1E731EDBB201EB4301002234F8023F75
S31500008E7020F8083C40F80C2C13F0030F1CBF23F01D
S31500008E800303043320F8063C30F8063C04339BB257
S31500008E9020F8063C1A4492B2B2F5805F07D20C3035
S31500008EA08C42E3D1044B1E70002070BC7047032037
S31500008EB0FBE700BF28000020940000201C4B1B7815
S31500008EC0834201D80420704770B582B00C4605462F
S31500008ED0184805EB45039B00C618B288C058FFF733
S31500008EE0B1FFB2880AB3631E013A14FA82F1002276
S31500008EF013F8014F22448B42FAD1524202A941F89B
S31500008F00042D0C4B6A00501953F820000438154400
S31500008F1003EB8503DB8804221844FFF793FF002840
S31500008F200CBF0020042002B070BD0022E5E700BFA0
S31500008F30940000201C0000201E4B1B78834201D8A1
S31500008F4006207047F0B406461B4B00EB400080003D
S31500008F501A181C5804F1A055D388234403F1A053D2
S31500008F6053F8047C93880BB3013B2C46013414FA66
S31500008F7083F42B46002213F8010B02449C42FAD1DB
S31500008F80D74202D00620F0BC7047084606EB4606DC
S31500008F90094B03EB860615F8013B01F8013B0B1A5A
S31500008FA0DBB2B2889342F6D30020ECE7002FFBD069
S31500008FB00620E8E7940000201C00002000487047C7
S31500008FC02080FF1F024AD37943F00F03D371704705
S31500008FD02080FF1F00F1180210F8013B1944C9B2A6
S31500008FE08242F9D1FF2914BF00200120704700F109
S31500008FF01801002310F8012B1344DBB28142F9D18A
S31500009000D843C0B27047000070B5084E084D3446CC
S3150000901028686968AA68EB680FC42869696903C487
S315000090203046FFF7E4FF307670BD00BF5080FF1F6B
S315000090302080FF1F08B50948017EFFF7CBFF48B126
S31500009040074B064A9178997011791971D178D970C0
S31500009050D279DA710022024B9A7108BD5080FF1F47
S315000090602080FF1F70B50E4D0E4E05F13804306896
S315000090707168B268F3680FC43069716903C405F199
S315000090803800FFF7B4FF85F85000012385F8563005
S3150000909085F8553085F8543085F8573070BD00BFD7
S315000090A05080FF1F2080FF1F0138032816D8DFE8F5
S315000090B000F002070C110022094B83F85620704776
S315000090C00022074B83F8572070470022044B83F891
S315000090D0542070470022024B83F85520704700BF8A
S315000090E05080FF1F08B52E4890F850103830FFF713
S315000090F071FF002849D02A4B93F8563053B1294BBB
S31500009100274A92F83A10997092F83F10DA7961F38B
S315000091100002DA71224B93F8543063B1214B204A96
S3150000912092F83D10597192F83F20D979C2F3400266
S3150000913062F34101D9711A4B93F8553063B1194B5B
S31500009140174A92F83C10197192F83F20D979C2F368
S31500009150C00262F3C301D971114B93F8573063B162
S31500009160104B0F4A92F83B10D97092F83F20D979EC
S31500009170C2F3800262F38201D9710A4B5B79042B38
S3150000918006D00022074B9A7108BDFFF71BFFF4E7D4
S31500009190044B00215971DA7961F34102DA71F0E783
S315000091A05080FF1F2080FF1F7047000008B5104B3E
S315000091B093F82230012B08D00E4B1B788BB90E4941
S315000091C00B480AF09DFA00B208BD094BB3F902201C
S315000091D0B3F900309A42EFDD0222054B83F82220D4
S315000091E0EAE7064902480AF08BFA00B208BD00BF5A
S315000091F04C0E0020950000200094FF1F1C94FF1FBA
S31500009200014B1870704700BF9500002008B5154B3C
S31500009210187B00F05BFC0138042821D8DFE800F059
S31500009220030711191D0000220E4B5A7308BD0D4B82
S3150000923000225A731B79032B12D90422094B1A7187
S3150000924008BD084B1B79032B0AD90422054B1A715A
S3150000925008BD0022034B5A7308BD0022014B9A70C9
S3150000926008BD00BF2080FF1F0A4B1B7B0C2B04D0C0
S315000092700D2B06D00E2B08D070470022054B5A71D5
S3150000928070470122034B5A7170470222014B5A71F3
S31500009290F2E700BF2080FF1F10B5964B9C7A06F0C0
S315000092A095FC01380F286BD8DFE800F093546A6A02
S315000092B06A6A6A6A6A6A6A6A6A6A31088E4B9B795E
S315000092C0002B5DD18C4B1C7B0134E4B2204600F0B0
S315000092D0FDFB204600F0FAFB172C06D8874B1B88AF
S315000092E04BB1854BDB7C834202D0FFF7BDFF47E0E5
S315000092F0814B1C73F9E7062802D07F4B1C73F4E7F9
S315000093007F4B1B78002BF0D07B4B1C73EDE77A4B21
S315000093109B79002B34D1784B1C7B012C40F20182C7
S31500009320013CE4B2204600F0D1FB002C40F0FD8168
S315000093300422714B1A73FFF797FF21E0062802D02B
S315000093406D4B1C73F7E76E4B1B78002BF3D06A4B03
S315000093501C73F0E7684B9B79002B31D10134E4B2E2
S31500009360072C28BF0724644B1C71634BDA796FF313
S31500009370C302DA71FF2006F001F90420FFF794FE1C
S31500009380FFF744FF5F4B1B7A042B4CD95C4B1B78D1
S31500009390012B40D0584B1A7B531EDBB2012B3ED912
S315000093A0172A3CD01421584804F0F6FF002842D072
S315000093B0534B1B78012B3ED10022514B1A703AE0D9
S315000093C04D4B00229A715B79042BCED1FFF78AFEB2
S315000093D0CBE7494B9B794BB9012C03D9013C464B52
S315000093E01C7109E00122444B1A7105E0424B002230
S315000093F09A715B79042B0BD0FF2006F0BFF83E4B29
S31500009400DA796FF3C302DA710420FFF74DFEB7E78E
S31500009410FFF768FEF0E70022394B1A70BAE704221C
S31500009420354B1A73BEE7344B1A7B531EDBB2012B46
S3150000943001D9172AB6D105F001FE002800F0828175
S31500009440B0F5C05F00F03B8130D8102800F0D7801F
S3150000945014D9B0F5807F00F09580B0F5006F7DD00F
S31500009460802840F08C80244B9B79002B40F087802D
S31500009470FFF7CAFD0122204B9A7180E0012800F017
S31500009480A08002287BD11C4BDB78002B40F0838028
S315000094900122194BDA70184BDA796FF38202DA710E
S315000094A000225A720220FFF7FFFD68E04AF202022C
S315000094B090425DD02AD94FF60272904200F01E818A
S315000094C04FF60372904200F009814FF60362904214
S315000094D055D1094B9B79002B51D1074BB3F900307D
S315000094E0B3F5A07F4BD10F200BF060FB69200BF08A
S315000094F02DFB44E0AC0D00202080FF1FD80D00207E
S31500009500980000203880FF1F96000020B0F5005F0D
S3150000951045D0B0F5004F32D18B4B9B79002B40F0F4
S31500009520A080894B5B79042B00F0BF80FFF79AFD82
S31500009530854B1B79042B40F2BB80834B04225A7166
S315000095400021D97001229A70DA7902F0F80261F3EB
S31500009550C302DA7100227C4B5A7210E07A4B9B7977
S31500009560012B0CD1FFF766FD0022774B9A7106E0BE
S315000095700122764B1A700021754804F00DFFFFF7A3
S3150000958045FE10BD704B1B7A012B0CBF0022012239
S315000095906D4B1A72F3E700226B4BDA707BE76A4B6E
S315000095A09B7943B9684B5B7B012B0CBF00220122E0
S315000095B0654B5A73E3E7FFF73DFD0122624B5A7391
S315000095C0DDE7614B9B7983B95F4B9B78012B0CBF21
S315000095D0002201225C4B9A705B4BDA796FF3000232
S315000095E0DA710120FFF760FDC9E7FFF723FD564B4F
S315000095F0DA796FF30002DA7101229A70F1E7524BC1
S315000096009B7993B9504B5B79042B23D00133DBB2A2
S31500009610032B22D84C4A53710320FFF745FD4A4BD2
S31500009620DA796FF34102DA71A9E7FFF703FD464BDA
S31500009630DA796FF3C302DA7101221A715B79134486
S31500009640DBB2032B02D8404A5371E5E700223E4BBA
S315000096505A71E1E7FFF746FDDEE700223A4B5A7101
S31500009660DAE7FFF7E7FC384B5B79042B19D0FFF7F5
S31500009670F9FC354B04225A710021D97001229A70E7
S31500009680DA7902F0FC0261F3C302DA711B79042B6A
S315000096903FF660AF05222C4B1A71142005F06EFFC1
S315000096A058E70022284B5A71E1E7FFF71BFD51E707
S315000096B00522254B1A71142005F060FF3DE7224B69
S315000096C09B79002B7FF45BAF1F4BB3F90030B3F5EA
S315000096D0A07F7FF454AF04F037F950E71A4B9B791B
S315000096E0002B7FF44CAF184BB3F90030B3F5A07FD5
S315000096F07FF445AF32200BF059FA40E7124B9B79C5
S31500009700002B7FF43CAF104BB3F90030B3F5A07FCC
S315000097107FF435AF01200BF049FA01200BF016FA61
S315000097202DE7012000F0D2F901240A4B1B88002BFB
S315000097303FF404AE044BDB7C83427FF4FCAD024B6A
S315000097401C73F8E510BD00BF2080FF1F98000020A5
S3150000975096000020D80D00207047704708B5104BC2
S3150000976093F82230012B08D00E4B1B788BB90E498B
S315000097700B4809F0C5FF00B208BD094BB3F902203A
S31500009780B3F900309A42EFDD0222054B83F822201E
S31500009790EAE70649024809F0B3FF00B208BD00BF78
S315000097A0740E0020990000205494FF1F3894FF1F68
S315000097B0014B1870704700BF99000020064B1B88AC
S315000097C001339BB2632B03D96422034B1A80704783
S315000097D0014A1380704700BFA000002010B582B078
S315000097E09E4B1B7813F0040F11D09D4AD37903F0DA
S315000097F0F4036FF38203D3710A219A4804F07CFDC7
S3150000980050B9FFF7A9FFFFF747FD02B010BD0AF0F8
S31500009810C3F80AF077F9EFE701F0FEFD904B1B7AEB
S31500009820914A12789A4205D08F4A137000218F48C8
S3150000983004F0C6FD8A4B1B7A012B00F09E800022A5
S315000098408B4BDA71864B5B79042B99BF894AD25CC4
S31500009850884B1A79864B5A71814B9B79002B40F0C5
S3150000986099807F4BDB7913F0080F40F09F807C4B8B
S315000098701B79072B02D90722794B1A71784B1A7973
S315000098807D4B33F912307D4A1380794A5380744BED
S315000098901A797B4B1A7001227A4B1A70704B9B799E
S315000098A0002B00F09380774A002393729371D37252
S315000098B09370537053731373D371734A9370684BD9
S315000098C01988704A91801B7A012B0CBF0122002255
S315000098D06C4B9A73624B597B6A4A5174DB78012B45
S315000098E000F0B280674B00221A7201225A72664B50
S315000098F0644A9179D970117A5971917A9971517C2A
S31500009900D971917B1972D2791A7101229A72152234
S315000099105A7253490A7B02EB820252001A808B79F3
S31500009920002B40F097804E4BDB8823F480631B05A9
S315000099301B0DB3F5306F0CBF012300238DF80630E5
S3150000994000200BF03FF9464B9A788DF802204C4ADE
S3150000995012788DF805205A798DF80320DA788DF87B
S3150000996004201B7B03EB83035B0002A820F8083D61
S315000099700BF02EF9FFF722FF43E74FF461713B48E6
S3150000998004F01EFD20B10022354B1A72012257E762
S31500009990012255E700223A4B1A7001F04FFD0128CB
S315000099A07FF479AF0022324B5A8074E704200AF024
S315000099B02FFC324C208005F0EDFD294B18712288D2
S315000099C02B4B5A80142005F0D9FD60E701222E4B5F
S315000099D09A702B4B1A782B4B9A72214B9B78012B42
S315000099E004D01F4BDB7913F0010F21D00122254B48
S315000099F09A711B4BDB7903F00B030B2B0CBF012277
S31500009A000022204BDA721F4B00229A7001225A70F4
S31500009A10134B5B7A83B11B4B5A73114B9B7A7BB109
S31500009A200122184B1A730E4B5A79164BDA7146E718
S31500009A300022144B9A71DCE70022124B5A73ECE7B2
S31500009A400022104B1A73EEE7134601221A72002207
S31500009A505A724CE702200BF0B5F88BE73C0E00205B
S31500009A602080FF1F9C000020A30000209E000020F5
S31500009A70CC0D00208094FF1F7094FF1FA4000020CF
S31500009A80A2000020AC0D0020300E002038B50A4B95
S31500009A9000241C705C70094D2C722146084804F0A5
S31500009AA07BFC084B1C70FFF757FE074B1C80EC74C1
S31500009AB06C74AC7438BD00BF6C0D00202080FF1F95
S31500009AC09A000020A2000020A0000020031FDBB2A5
S31500009AD0022B24D9A0F10803DBB2032B01D8022004
S31500009AE07047A0F10C03DBB2022B01D803207047AC
S31500009AF0A0F11003DBB2022B01D804207047A0F1BD
S31500009B001403DBB2022B01D805207047172808D0B2
S31500009B10431EDBB2022B34BF062000207047012013
S31500009B20704706207047C31EDBB2042B09D9A0F18B
S31500009B300803DBB2012B06D90D280CBF022000203A
S31500009B40704701207047022070470000134BDB7CF2
S31500009B50013B042B20D8DFE803F003090E141A009A
S31500009B600E4B00225A710122DA7070470B4B00220D
S31500009B705A71DA707047094B01225A710022DA7065
S31500009B807047064B02225A710022DA707047034B67
S31500009B9002225A710022DA70704700BF2080FF1F30
S31500009BA004380A2814D8DFE800F0060B1313131341
S31500009BB0131313101000074B1A88074B5A8170476E
S31500009BC0044B1A88044B5A8170473222024B5A8042
S31500009BD0704700BF1A95FF1FD00E002010B5914B9D
S31500009BE09B79012B4ED08F4B187BFFF76FFF0446F6
S31500009BF08D4BB3F9003013F1460F02DB00218B4A7F
S31500009C00117013F1770F02DA0122884B1A70884B14
S31500009C101B78A3424CD0834BDB7C002B34D0002135
S31500009C20844804F0B9FB7F4A0023D3749374824AB4
S31500009C301370824A138843F040031380062C49D0E0
S31500009C40784B9B79012B4FD0764B9B7C013B162B97
S31500009C5063D8DFE813F09900B300CE0001010101DB
S31500009C600101CE003E013E013E013E01710171013E
S31500009C707101CE00960196019601CE00B701B7019B
S31500009C80B701D8010024B3E74FF41671694804F010
S31500009C9083FB18B9684B1B78002BCAD0614BDC7468
S31500009CA0634A14701A7B9A742046FFF74FFFC0E789
S31500009CB05C4BDB7CA34204D05A4BDC742046FFF796
S31500009CC045FF584B1A7B9A745C4A138823F040036D
S31500009CD01380B3E7534B0620D874554A10701A7B8D
S31500009CE09A74FFF733FFABE7554B5B7853B14F4B95
S31500009CF01B781BB10A224B4B5A7413E00922494BBD
S31500009D005A740FE04E4B1B781BB10422454B5A7414
S31500009D1008E00022434B5A7404E0424B00225A7476
S31500009D205A759A75404BB3F90020952A40F36F8116
S31500009D300021444B197093B2C82B94BF0020012018
S31500009D404149087046339BB2DC2B94BF00210121A8
S31500009D503E4B1970962A00F3638100223C4B1A7021
S31500009D60304B5B7C033B0B2B00F27B81DFE813F06F
S31500009D70680168016801A701A701C301C301E701E2
S31500009D807901E701C301E701324B32221A805A807A
S31500009D9000229A805A814FF42071D980FA211981C4
S31500009DA01A735A739A73DA731A745A769A835A74B0
S31500009DB01C4B012159745A759A75B3E7254B32220B
S31500009DC01A805A8000229A805A814FF42071D980D5
S31500009DD0FA2119811A735A7301219973D973197467
S31500009DE05A769A835A740F4B022159745A759A758A
S31500009DF098E7134B5B7853B10C4B1B781BB10A22C7
S31500009E00084B5A748EE70922064B5A748AE70C4BA4
S31500009E101B781BB10422034B5A7483E70022014BC3
S31500009E205A747FE72080FF1F3880FF1FBC00002088
S31500009E30A8000020B40000200295FF1F9C0E002001
S31500009E40D80D0020BF000020C0000020C100002067
S31500009E50C2000020A00E00208A4B5B78FBB18A4B23
S31500009E601B78C3B10A22894B5A74894B64221A8023
S31500009E7000225A809A805A814FF42071D980FA21A3
S31500009E8019811A735A7301219973D9731974597602
S31500009E909A835A7446E709227C4B5A74E5E77B4B52
S31500009EA09B78012B06D0774B1B7873B10422774B36
S31500009EB05A74DAE7734B1B781BB10522734B5A743D
S31500009EC0D3E70322714B5A74CFE700226F4B5A74C3
S31500009ED0CBE76C4B5B78FBB16B4B1B78C3B10A22AB
S31500009EE06A4B5A746A4B64221A8000225A809A80FE
S31500009EF05A814FF42071D980FA2119811A735A7345
S31500009F0001219973D973197459769A835A7409E79A
S31500009F1009225E4B5A74E5E75A4B1B781BB10422A3
S31500009F205A4B5A74DEE7594B9B78012B0CBF06221D
S31500009F300022564B5A74D5E7524B5B7853B1524BBD
S31500009F401B781BB10A22514B5A74EBE609224F4B80
S31500009F505A74E7E64B4B1B781BB104224B4B5A74E1
S31500009F60E0E64A4B9B78012B07D0484B5B7B012BE5
S31500009F7003D00022454B5A74D4E60722434B5A7449
S31500009F80D0E6404B1B781BB10422404B5A74C9E6FD
S31500009F903E4B9B78012B06D03A4B5B7873B1092276
S31500009FA03A4B5A74BEE6374B5B781BB10D22374BE2
S31500009FB05A74B7E60822354B5A74B3E60022334B7F
S31500009FC05A74AFE62F4B1B781BB104222F4B5A74E1
S31500009FD0A8E62E4B5B7B012B06D02A4B5B7873B130
S31500009FE00A222A4B5A749DE6264B5B781BB10E2239
S31500009FF0264B5A7496E60C22244B5A7492E600229B
S3150000A000224B5A748EE60F22204B5A748AE6214B55
S3150000A0109B8A002B7FF48FAE01211F4B19708AE6B5
S3150000A02001221E4B1A70194B5B7C033B0B2B18D875
S3150000A030DFE803F0060606454561617C177C617C16
S3150000A040154B1B78002B2FD00022104B5A740D4A4B
S3150000A050938A43F001039382114A138843F0200345
S3150000A06013800A4C607CFFF75EFD20750D4B1B7854
S3150000A070012B52D0022B53D0044B1A7D094B1A7078
S3150000A08010BD00BFD80D0020BC0000202080FF1F9F
S3150000A090A00E0020F00D0020BF000020C20000200E
S3150000A0A09C0E0020C6000020284A138823F02003B7
S3150000A0B01380274A938A23F001039382D1E7254B25
S3150000A0C01B786BB10022244B5A74214A938A43F0C1
S3150000A0D0010393821D4A138843F020031380C0E7CF
S3150000A0E01B4A938A23F001039382184A138823F0AC
S3150000A0F020031380B5E7194B1B7843B10022164B9A
S3150000A1005A74134A938A43F001039382A9E7104ACB
S3150000A110938A23F001039382A3E70228ACD101E0DE
S3150000A1200128A9D100220C4B1A75A5E700220A4B7B
S3150000A1305A74074A938A43F00103938291E7044ACB
S3150000A140938A23F0010393828BE700BF9C0E0020C5
S3150000A150D80D0020C00000202080FF1FC100002075
S3150000A16070B582B001F074F9FFF720F8934B587C74
S3150000A170934B1B78834203D0914B1870FFF710FD69
S3150000A1808E4B5B7C032B22D0052B5AD0042B7ED022
S3150000A190062B00F0A280072B00F0C180082B00F0F0
S3150000A1A03B810D2B00F09381092B00F0DD810C2BF8
S3150000A1B000F005820E2B00F03F820A2B00F0A082F1
S3150000A1C07E4A0023537593757E4A137637E07B4BA0
S3150000A1D000255D7501209875997C043909B27A4B82
S3150000A1E033F91130794C2380794A9383794B9A88D5
S3150000A1F06280B3F90030B3F5D77FA8BF4FF4D773A9
S3150000A200FA2BB8BFFA23A3F5D772734BB3F9003014
S3150000A21003FB02F3714A82FB0362DB17C3EBA20363
S3150000A2206F4A32F8112013446381664B5D8258767B
S3150000A2306C4A1288DA836C4A12881A84187602B03D
S3150000A24070BD5E4901224A758A755E4B1A76897C15
S3150000A25004395D4830F911005C4908805C4CA083E4
S3150000A2605C4880884880614800884881002159827E
S3150000A2705F490988D9835C4909881984DA735D4B7B
S3150000A2801B78032BDBD94F4B5A745A76D7E74B4BC7
S3150000A29001225A75002098754A4B1A764B494C4C48
S3150000A2A0258A0D80A4894C80504C24884C81588284
S3150000A2B051490988D9834C4909881984DA734D4B69
S3150000A2C01B78032B03D93F4B5A745A76B7E73D4B9D
S3150000A2D000225A761A765A74B1E7384B00225A751C
S3150000A2E001249C75374A147638491E200880384D5B
S3150000A2F0A8833848808848809B7C083B1BB23F482F
S3150000A30030F8130048813E4931F8133053825476B1
S3150000A310344B1B88D383344B1B8813848FE7274B1E
S3150000A32000225A759A75274A33490988D1832E49DE
S3150000A33009881184997809B101229A751F4B5B7BB4
S3150000A3401BB11E4A937D02339375204A1E23138048
S3150000A3501F4883831F4B9B885380184B9B7C0C3B69
S3150000A3601BB2284830F813005081274A32F81300F0
S3150000A370144A508201291CBF124A002151761176D7
S3150000A380224A32F91310224A11801248C08850809E
S3150000A3900F48C1831F4931F813305381074B5B7B4C
S3150000A3A03BB10122074B9A8341F28832054B5A840E
S3150000A3B045E70022034B9A83F6E700BF2080FF1F84
S3150000A3C0A9000020A00E0020BC94FF1FF40E002060
S3150000A3D0240D00203880FF1F9494FF1F6766666671
S3150000A3E0B494FF1F2695FF1F2A95FF1F0895FF1F90
S3150000A3F01295FF1FC80E00202495FF1FC494FF1F4F
S3150000A400CC94FF1FEC94FF1FF494FF1FFC94FF1FD6
S3150000A4104C0E0020E494FF1FA64D00226A7502230D
S3150000A420AB75A54E3376ADF800203222ADF802208A
S3150000A430A24A116802AA42F8041DA1490988F183BB
S3150000A440A04C6946B4F9000004F0ACFD3084AA7C47
S3150000A450103A12B29C4B33F912109C4B19809C484F
S3150000A460C183E1885980B4F9003003F14601994B64
S3150000A470B3F9003003FB01F3974981FB0301DB17B6
S3150000A480A3EBA103954931F8122013441BB2B3F58F
S3150000A490487F11DB8D4A53814FF47A72864B5A827C
S3150000A4A0844B9B78012B0CD0834B00225A761A766C
S3150000A4B00122814BDA73C2E64FF44872834B5A810C
S3150000A4C0EAE77D4B01225A7602221A76F0E7794BAB
S3150000A4D002225A759A7578490A7601224A769A7C3A
S3150000A4E0103A12B2784B33F9123078490B8078481B
S3150000A4F0C383744BD8884880B3F9000000F1460145
S3150000A500744BB3F9003003FB01F3734981FB03413C
S3150000A510DB17A3EBA103714931F8122013441BB2D8
S3150000A520B3F5487F1DDA4FF44872684B5A81624C86
S3150000A5304FF47A7363820023ADF800303223ADF80E
S3150000A54002305E4B1B6802AA42F8043D02236946AC
S3150000A55004F028FD2084624B1B88E3830123E37308
S3150000A5606DE65A4A5381E2E7524A022353750021A7
S3150000A5709175514C2376554A5548058A1580808930
S3150000A58050805848008850814FF47A7262820125C3
S3150000A5906576ADF800103222ADF80220474A116800
S3150000A5A002AA42F8041D69464648B0F9000004F0C4
S3150000A5B0F9FC2084424B1B88E383E5733FE63D4A62
S3150000A5C000215175022393753B4B1976597601216B
S3150000A5D09983454909885984927C143A12B2434BAF
S3150000A5E033F9123042490B803948C383354BD8883A
S3150000A5F04880B3F9003003F1C8013E4BB3F900308F
S3150000A60003FB01F3344981FB0301DB17A3EBA10331
S3150000A610394931F8122013441BB2B3F5967F08DC92
S3150000A6204FF49672324B5A814FF47A72224B5A8209
S3150000A63005E62F4A5381F7E71E4A022353759375A1
S3150000A6401D4B002119765976012199832B490988DA
S3150000A6505984927C143A12B2244B33F912302449AD
S3150000A6600B801B48C383174BD8884880B3F900304A
S3150000A67003F1C8011F4BB3F9003003FB01F3164980
S3150000A68081FB0301DB17A3EBA1031B4931F8122061
S3150000A69013441BB2B3F5967F08DC4FF49672144B45
S3150000A6A05A814FF47A72044B5A82C8E5104A538194
S3150000A6B0F7E700BF2080FF1FA00E002090AC01002E
S3150000A6C02895FF1F3880FF1FDC94FF1F740E0020A3
S3150000A6D0240D00209494FF1F67666666D494FF1FBE
S3150000A6E01495FF1F0A95FF1F1895FF1FA494FF1FBF
S3150000A6F04C0E00209894FF1F9C94FF1F1695FF1F79
S3150000A700124B02225A7500229A75114B1A765A7606
S3150000A71001229A830F4A12885A840F4B0F4A118AD4
S3150000A720198092895A800E4BB3F90030B3F5967FA3
S3150000A73008DC4FF49672084B5A814FF47A72044B38
S3150000A7405A827CE5044A5381F7E700BF2080FF1F49
S3150000A750A00E00201095FF1F4C0E0020240D002097
S3150000A7600E95FF1F38B500F073FEFEF7F7FF9B4B03
S3150000A770B3F904209A4BB3F900309A4248DA974B62
S3150000A780B3F90420974BB3F900309A4205DC964B97
S3150000A7909A8A40F23E339A4249D9904B1B8803F17C
S3150000A7A0460292B2DC2A07D80021904A11709049DD
S3150000A7B00A8822F020020A8077339BB2B3F59F7F86
S3150000A7C007D90122894B1A70894A138863F020033E
S3150000A7D01380884B9B7D13F0010F35D00122864BE9
S3150000A7E09A76864B1B7823B1824B5B7D13F0010F63
S3150000A7F037D0834B1B78002B33D1824B012283F851
S3150000A80024205A8A804B9A82002000F04DFE2EE0CA
S3150000A8100A217E4803F0D4FD0028B0D00022774BF1
S3150000A8201A70734A138823F010031380A7E70021D8
S3150000A830764803F0C5FD0122704B1A706C4A1388E6
S3150000A84043F010031380A8E76A4A527D12F0010F05
S3150000A85049D00122684B9A76694B1B78002B00F091
S3150000A860D9810023674A82F82430674A93820A21F5
S3150000A870674803F091FD002869D0664B1A780132CB
S3150000A880D2B21A706449654B5B88088803441BB2D0
S3150000A8900B806349B1F900108A4258DB00215D4AFA
S3150000A8A01170604A82FB0302DB17C3EBA2031BB2E3
S3150000A8B05A4A5380584A11805B4A1278012A63D05B
S3150000A8C0022A00F0B98040F6340293423BDD464B43
S3150000A8D09B8AB3F57A7F31DDC83B544A1380012247
S3150000A8E0514B1A7037E013F0020313D0424A127E1E
S3150000A8F09AB10121404A91763C4A1278BAB94C4A3B
S3150000A90082F82410518A404A918263B10020FEF7F2
S3150000A9104FFFACE712F0020FE8D10023364A9376D8
S3150000A920394A9382A3E70120FEF742FF9FE70023FF
S3150000A9303F4A82F82430344A938298E74FF44872AB
S3150000A9403A4B1A80CBE742F21072384B1A80364BDC
S3150000A9501B78022B73D0264A138823F00103138039
S3150000A960254B9B7E002B00F041810122264BDA7697
S3150000A970304B1B78013B042B6AD8DFE813F09400B8
S3150000A9809E00E500EA00F50040F63402934215DD2C
S3150000A990154B9B8A40F25232934203DC0222224B31
S3150000A9A01A704CE0B3F57A7F03DDC83B1F4A13806B
S3150000A9B0D1E74FF448721D4B1A80CCE7B3F5C86F48
S3150000A9C0C9DA1A4A138864331BB2138042F2107232
S3150000A9D09342C0DD0022144B1A70BCE73880FF1F7B
S3150000A9E08C94FF1F8A94FF1FF00D0020BB000020EF
S3150000A9F09C0E00202080FF1FA00E0020BA00002021
S3150000AA00BF000020F40E0020D00E0020B800002069
S3150000AA10B2000020C7000020C4000020240D002042
S3150000AA209294FF1F67666666A70000202095FF1FA9
S3150000AA30740E0020A600002000227C4B1A80002203
S3150000AA407B4B9A827B4A138843F00103138087E786
S3150000AA500122794B1A700021784803F09DFC764B51
S3150000AA601B78032B32D0734A138843F002031380FA
S3150000AA700024734B93F82430012B00F08E80714B29
S3150000AA8093F82430012B00F08D8032216E4803F0BC
S3150000AA9033FC002800F0C880002C40F0888000229B
S3150000AAA06A4B9A8238BD0A21644803F075FC002877
S3150000AAB0D5D00222604B1A70D5E70A215F4803F011
S3150000AAC06BFC0028CBD003225B4B1A70584B9C8A38
S3150000AAD05F4BB3F906005F49B1F91E30B1F920505A
S3150000AAE05249B1F90010002C49D024B28342A8BFC4
S3150000AAF003469C42A8BF1C46AC42B8BF2C468C42BB
S3150000AB00A8BF0C46B0F5487F3BDA4A4A138843F0A3
S3150000AB10040313800024474A138823F0020313809A
S3150000AB20A7E74B4BB3F904304BB93221434803F046
S3150000AB3033FC002893D004223F4B1A7093E7002180
S3150000AB403E4803F029FC8AE700213C4803F024FC38
S3150000AB5085E70A21394803F01FFC00283FF47FAF40
S3150000AB600522354B1A707EE70A21344803F014FC9F
S3150000AB7000283FF474AF00222F4B1A7073E70024AD
S3150000AB80C0E72C4A138823F004031380B4F5487FEA
S3150000AB90C1DB0022274B1A806BE72146284808F0C4
S3150000ABA0A3FE72E72146274808F09EFE6DE7274B75
S3150000ABB0988A001B00B204F0BEF91D2834DD234B31
S3150000ABC09B8AA3420CDD1E3B204A93821F4B9B8A25
S3150000ABD0B3F5487F28DA4FF448721C4B9A8238BD89
S3150000ABE0A342F3DA1E33194A9382EFE7124B1B781E
S3150000ABF0013B042B3FF62FAF01A252F823F000BF12
S3150000AC00A7AA0000BBAA000023AB000053AB0000BC
S3150000AC1069AB00000A4B012083F824005A8A044BD2
S3150000AC209A8200F041FC22E638BD00BF2095FF1F46
S3150000AC30D00E00209C0E0020A6000020AC000020B4
S3150000AC40F40E0020740E0020B6000020F00D002047
S3150000AC50D80D0020A00E002008B5FEF7A7FA304B4D
S3150000AC601B7E002B50D12F4B5B7D13F0020F3AD089
S3150000AC702D4B012283F824205A8A2C4BDA82294B49
S3150000AC809B7D13F0020F3BD00020FEF7B9FA284B4C
S3150000AC90B3F90030254AD28A9A42BCBF234AD382EE
S3150000ACA0244BB3F90830214AD28A9A42C4BF1F4ABC
S3150000ACB0D3821B4BB3F92230B3F5FA6F03DA4FF4A4
S3150000ACC0FA62174B5A84164BB3F92230174AD28AC6
S3150000ACD09A42C4BF154AD382144BB3F916101248D0
S3150000ACE008F002FE16E00F4B9B7D13F0020F0BD00F
S3150000ACF00D4B012283F824205A8A0C4BDA82C3E7D3
S3150000AD000120FEF77DFAC2E70023074A82F82430C5
S3150000AD10064AD382054BDA8A074BDA8208BD00BFA2
S3150000AD20A00E00202080FF1F4C0E0020D00E002019
S3150000AD302295FF1FD80D0020F00D002008B5804B8E
S3150000AD405B7C042B1DD07F4B1B7E022B7E4B0CBFE6
S3150000AD50012200229A73DA737C4B1B78022B16D0E1
S3150000AD60042B14D0032B4DD0774B9B7B13B90022B9
S3150000AD70774B9A73744BDB7B7BB90022744BDA7387
S3150000AD800BE0714B00229A730122DA73E4E7704BF1
S3150000AD906D4A917B9973D27BDA73694B5A7C531E49
S3150000ADA0DBB2012B43D93AB1664B1B7E022B43D053
S3150000ADB0684B1A88644BDA80634BDA88644BDA8016
S3150000ADC05F4B5B7C63B15E4B9B7C013BDBB2012B33
S3150000ADD03CD95B4B5B7D012B3CD000225A4B5A8100
S3150000ADE0594B5A895A4B5A81554B5B7C5A1E0D2A30
S3150000ADF062D8DFE802F05E5E858585858585858576
S3150000AE0061858585524BDA894F4BDB899A4207D09B
S3150000AE104D4B9B8A23B1504A136843F001031360DC
S3150000AE204B4B494A917B9973D27BDA73B5E74FF462
S3150000AE302072454BDA80BFE7484A49494448B0F991
S3150000AE40140004F0AFF8404BD880B5E7FA223E4B29
S3150000AE505A81C5E73D4B1B78022B21D0042B1FD00E
S3150000AE60032BBDD13F4B19783F4803F0A9FA0028C0
S3150000AE70B6D03E4BB3F90C20B3F91030143B9A42CE
S3150000AE80AEDC314A3A4B197853895B1A9BB253812F
S3150000AE90384AB2F900209342A2DA2B4B5A819FE737
S3150000AEA0354B1A88284B5A8100212F4803F088FA1F
S3150000AEB096E73221244A1180234A1188244A1180B8
S3150000AEC02BB3A3F10902D2B2012A1DD95A1ED2B25E
S3150000AED0012A31D90D3BDBB2012B53D91A4B5B7CCE
S3150000AEE01E2B40F29580254B1B78002B40F0868068
S3150000AEF03222154B5A800021214803F061FA06E000
S3150000AF006421114A1180D7E764220F4B5A800E4BF9
S3150000AF10597C1A4A11705A880D4B5A80084B5B7C33
S3150000AF20013B0D2B7BD8DFE803F077777F7F7F7FB0
S3150000AF307F7F7F7F7A7F7F7F3222034B5A80E6E7CF
S3150000AF402080FF1FA00E0020D00E0020A6000020AB
S3150000AF50F00D00200695FF1FF00E0020B094FF1F95
S3150000AF60AC94FF1F2E95FF1FB0000020240D00207B
S3150000AF702D95FF1F1E95FF1F1A95FF1FBD00002070
S3150000AF80AE0000202A4B9B8AB3F5487F1DD0294B83
S3150000AF901988294803F014FA0028B8D0274BB3F9CA
S3150000AFA00C20B3F91030A3F114018A4215DA244AB1
S3150000AFB0244B1B7851880B445380214B5B88642BB0
S3150000AFC0A5D964221E4B5A80A1E732221C4B5A8017
S3150000AFD00021194803F0F4F999E714339A42ECDD9D
S3150000AFE0174B5B88174A1278934203D80022144BFA
S3150000AFF05A808CE79B1A124A5380DEE73C2112489E
S3150000B00003F0DEF9002882D000220D4B5A807EE73D
S3150000B01000220B4B5A807AE70022094B9A80084B94
S3150000B0209A88034B9A8008BD0122054B9A80F6E761
S3150000B030F00D00209094FF1FAA000020240D002090
S3150000B040D00E00202C95FF1FAE0000203B4B5B7CF2
S3150000B050072B35D03A49B1F9023003EB83031B01C4
S3150000B060384A82FB0302DB17C3EBE203CB80364B85
S3150000B0709A8A2B2303FB02F3344A82FB0312DB1763
S3150000B080C3EB621319B22E4A91813148C08A5081AE
S3150000B090B2F90220914227DAD31A1BB2284A138149
S3150000B0A0B3F5FA7F20DB254B5B7D0BBB234A927DF4
S3150000B0B0002A36D1264B0022DA761A775A7770475D
S3150000B0C01F4BB3F90230B3F5FA7FD0DDA3F5FA735F
S3150000B0D003EB83031B011B4A82FB0312DB17C3EB43
S3150000B0E0E203174AD380C2E70022154B1A81DAE73A
S3150000B0F00121174AD17613F0010F15D00121144A08
S3150000B100517713F0020F04D10C4B9B7D13F0020F05
S3150000B11003D001220E4B1A77704700220C4B1A7788
S3150000B120704701210A4AD176044A927D12F0010F36
S3150000B130E4D10021064A5177E3E700BF2080FF1FD4
S3150000B140D80D002083BEA02FD00E0020676666664D
S3150000B150F00D00202DE9F843844B5B7C012B50D089
S3150000B160022B52D0824D834F834C02232A46394606
S3150000B170B4F9180003F016FF064602232A467F4953
S3150000B180B4F9160003F00EFF814602232A4639461B
S3150000B190B4F91A0003F006FF804602232A46394610
S3150000B1A0B4F9140003F0FEFEF3B24B45A7BF744A90
S3150000B1B01374734B83F81090714B1B7C4345BCBFD3
S3150000B1C06F4B83F810806E4B1B7C8342BCBF6C4B6D
S3150000B1D018746B4B1A7C6B4B1A74644B5B7C012B9B
S3150000B1E017D0022B23D06149497D002949D064211B
S3150000B1F06348417463484174063BDBB2012B0DD8AA
S3150000B2001AE000225E4B1A74E3E764225C4B1A7460
S3150000B210DFE700235A494B745A494B74534B5B7D05
S3150000B22013F0020F36D06421554B997407E064235E
S3150000B23053494B7453494B746421514B9974504B89
S3150000B240997C504B9974504B1B7A552B02D901208F
S3150000B2504E4908704F2B02D800214C4B1970434BB6
S3150000B2601B7D002B5CD0002A3CD0484A1278012A6C
S3150000B27019D064214248818142488181002A3AD00E
S3150000B28016E000213E4841743E484174063BDBB25D
S3150000B290012BD1D9354B9B7D13F0020FC3D1002171
S3150000B2A0374B9974CBE74623354A9381354A9381C8
S3150000B2B0334B00225A761A76324B314A517E5976F2
S3150000B2C0127E1A76BDE8F8832B4BB3F90230B3F53C
S3150000B2D0966FC8BF5176B3F57A7FEDDA0022284B18
S3150000B2E05A76E9E7002226498A8126498A81274A31
S3150000B2F01278002ADCD10121214A11768B42E3D053
S3150000B3001D4BB3F90230B3F5C86F02DD01211C4AAB
S3150000B3105176B3F5966FCFDA0022194B5A76CBE702
S3150000B3200023174A9381174A9381184B1B78002BE9
S3150000B330BED1114BB3F91430B3F5C87F02DB01213E
S3150000B3400F4A1176B3F5B97F02DC00210C4A11765B
S3150000B350B3F5FA7F02DB0121094A5176B3F5EB7F9B
S3150000B360AADC0022064B5A76A6E700BF2080FF1F04
S3150000B370B4AC0100B8AC0100240D0020B0AC010053
S3150000B380D00E0020F00D00203880FF1FBE000020E8
S3150000B3901A4BDB7C043BDBB2012B1BD9174BDB784A
S3150000B3A0012B174B0CBF5A781A78164B1A71164B8D
S3150000B3B01A78164B1B78991A154B5B8A03FB01F317
S3150000B3C0144981FB0301DB17C3EBA11313440D4A98
S3150000B3D093717047094BDB78012B0AD0084A137822
S3150000B3E05278D21A48BF033203EBA203054A1371FF
S3150000B3F0DDE7034B5A78034B1A71D8E72080FF1F0D
S3150000B4008894FF1FCC0D00208F94FF1F8E94FF1F82
S3150000B410A00E0020D34D621008B5FEF7DFFBFEF745
S3150000B4209FFEFFF79FF9FFF717FCFFF787FCFFF773
S3150000B43091FEFFF70BFEFFF7ABFF08BD024B187836
S3150000B440033818BF01207047A6000020704700008F
S3150000B45008B5114B03221A8493F82230012B08D029
S3150000B4600E4B1B788BB90E490B4808F049F900B210
S3150000B47008BD094BB3F90220B3F900309A42EFDA5E
S3150000B4800222054B83F82220EAE70649024808F023
S3150000B49037F900B208BD00BFF40E0020C800002036
S3150000B4A04C95FF1F3095FF1F014B1870704700BF6A
S3150000B4B0C8000020094B00229A70DA705A719A71FE
S3150000B4C0DA711A721A7101229A7215225A72044A94
S3150000B4D0127B02EB820252001A807047300E002067
S3150000B4E02080FF1F7047000008B509F07BFB254A46
S3150000B4F000239371D3721372937293705370137403
S3150000B50013705373137353729373D373D3719380FE
S3150000B5101D4A13705380D371537213721B4A938161
S3150000B5209373D3731374537493749382D382137681
S3150000B5305376D376137753779377154A9370D370F0
S3150000B54053719371D371137213710123937215237F
S3150000B5505372104B1B7B03EB83035B0013804FF48A
S3150000B5607A610D4802F0C8FE30B101220B4B1A7009
S3150000B570012000F00DFB03E0084B1B78002BF7D1F0
S3150000B58008BD00BFAC0D0020CC0D0020F00D002042
S3150000B590300E00202080FF1FCA000020CC000020B3
S3150000B5A008B50021044802F0A7FE0020034B1870DE
S3150000B5B000F0EEFA08BD00BFCA000020CC00002053
S3150000B5C008B530B10122094B1A700022084B1A70D7
S3150000B5D006E0064B1B78002BF7D10122044B1A70AC
S3150000B5E00021044802F0D8FE08BD00BF6895FF1F81
S3150000B5F0CD000020CE00002010B5134B00229A701B
S3150000B600DA705A719A71DA711A721A719A725A72DA
S3150000B6101A800E4B1B78012B08D90D4B1A7001248A
S3150000B62003F00CFD04F0D2FA204610BD0A210948A9
S3150000B63002F0B2FE10B10222044B1A70022009F089
S3150000B640C1FA0024ECE700BF300E0020CD00002038
S3150000B6506895FF1FCE00002010B4002808BF012007
S3150000B6600C4B1C7800230C490130C0B2132828BFAC
S3150000B67001200A1812F8012C144207D10133DBB25B
S3150000B680122BF1D100205DF8044B7047122B28BF16
S3150000B6900020F8E76995FF1FE80F0020014B18709E
S3150000B6A0704700BFD000002038B504F08FFA03F0D1
S3150000B6B0C5FC80280CD1FF227F4B1A707F4AD379B4
S3150000B6C043F00F03D371002009F07CFA012038BD46
S3150000B6D00446794B1B78052BF0D8DFE803F00314FA
S3150000B6E03E7B86990021764802F056FE0024754B73
S3150000B6F01C700125744B1D70204609F063FA6E4BD1
S3150000B7001D70204638BD0A216D4802F045FE30B155
S3150000B7106C4A13780133DBB21370052B0DD8694BD5
S3150000B7201B7813F0010F0FD009F0FCF909F0A4FA09
S3150000B730022009F047FA002038BD02225E4B1A703B
S3150000B7400020604B187038BD09F0F6F909F0A2FA2E
S3150000B750012009F037FA002038BD0A21584802F0C6
S3150000B7601BFE30B1574A13780133DBB213700F2B2F
S3150000B77015D8544B1B78082B1AD90F21002002F03C
S3150000B7800BFF0F21012002F007FF0F21022002F01C
S3150000B79003FF0021084602F089FE002038BD03227F
S3150000B7A0454B1A700020474B187009F00BFAE0E77A
S3150000B7B0F021002002F0F0FEF021012002F0ECFE64
S3150000B7C0F021022002F0E8FE0121002002F06EFEC8
S3150000B7D0002038BD962009F0E9F9692009F0B6F98C
S3150000B7E00422354B1A70002038BD09F0D9F900281B
S3150000B7F060D10522304B1A700024344B1C70344B38
S3150000B8001C702046FFF728FF324B1870204638BDC3
S3150000B81005212B4802F0C0FD38B12C4B1B780133B3
S3150000B820DBB2042B1BD8294A1370284B1B7813F064
S3150000B830010F1FD0002009F0C5F9264B187800EB40
S3150000B8408000400009F0B2F9B4F5004F1DD048F26F
S3150000B85001039C4229D0012C10D0002038BD0022C3
S3150000B8601A4B1A701A4B1B7823B91A4D2878FFF712
S3150000B870F3FE2870022009F0A5F9E5E7154C2078BB
S3150000B880FFF7EAFE2070002038BD0F4B1B78012B16
S3150000B89004D001220C4B1A70002038BD08220A4B36
S3150000B8A01A7000200B4B187038BDFF2001F0FCFB0E
S3150000B8B0002038BD002038BDD00000202080FF1FAA
S3150000B8C0D2000020D70000206995FF1FD600002077
S3150000B8D0D5000020D400002008B5FFF761FE08F06F
S3150000B8E069FF08BD08B501F0D3FF02F03DFE08F080
S3150000B8F045FF02F04DF908BD08B503F099FA02F0CC
S3150000B9005FF902F00FFA08BD08B502F0E7F901F099
S3150000B910BFFF08BD08B54B1E032B11D8DFE803F0A7
S3150000B9200A020D05FFF7DEFF08BD03280DD0FFF75D
S3150000B930D3FF08BDFFF7E0FF08BDFFF7D3FD08BD45
S3150000B940012802D109B9FFF7DFFF08BD38B500208D
S3150000B95004F09AFA044607F085FBA3B2A3F55772E2
S3150000B96092B2B2F5437F02D90121754A1170A3F252
S3150000B97085339BB240F2BA22934217D80022704B0D
S3150000B9801A70704B5B6813F4803F14D100216E4827
S3150000B99002F0B2FC1E216D4802F0AEFC10B100228E
S3150000B9A06B4B1A7000226B4B1A701FE0654B5B687D
S3150000B9B013F4803F24D00122614B1A70B4F5C86F8E
S3150000B9C0CCBF4FF4FA71C8215F4802F095FC10B164
S3150000B9D001225F4B1A7000215C4802F08DFC5D4B22
S3150000B9E01B78012B02D001225A4B1A705A4B1B7836
S3150000B9F0013B042B09D8DFE803F086244B3176009F
S3150000BA004F4B1B78002BD9D1C0E74FF4FA7153483E
S3150000BA1002F072FCC8B1012007F056FB4C4B1B78B4
S3150000BA203BB94D4C02212078FFF774FF02232370A7
S3150000BA3038BD494C04212078FFF76CFF042323709E
S3150000BA4038BD434B1B78012B00D038BD04210220A2
S3150000BA50FFF760FF0422404B1A7038BD3C4B1B7841
S3150000BA6073B13F4B1B78002BEFD0B4F5167FECDAA1
S3150000BA70394C03212078FFF74DFF0323237038BD8F
S3150000BA8002210420FFF746FF0222334B1A70E8E733
S3150000BA902F4B1B78BBB1324B1B78E3B107F0DCFAB6
S3150000BAA00028D2D12C4C05212078FFF733FF05233F
S3150000BAB023700021294802F01FFC002007F004FB38
S3150000BAC007F010FB38BD02210320FFF723FF0222F7
S3150000BAD0214B1A70DFE7204C04212078FFF71AFF6C
S3150000BAE004232370DAE764211C4802F005FC0028D1
S3150000BAF0ABD0012007F0E8FA174C01212078FFF7B8
S3150000BB0009FF0123237000240E4D02F0E6FA07F028
S3150000BB10A9FA07F0A1FA48B9204604F01DFBB0F5D2
S3150000BB202F7FF2DD6B6813F4803FEED107F094FAB5
S3150000BB3010B902F0DBFA88E702F0D8FA38BD00BF88
S3150000BB40DE000020F8130020D8000020DA000020D4
S3150000BB50DF000020E0000020E1000020DC000020E3
S3150000BB606A95FF1F014B1878704700BFE10000205F
S3150000BB7010B5064C00212078FFF7CCFE0023237079
S3150000BB8007F0BAFA06F0B6FC10BD00BFE1000020CF
S3150000BB90014B1870704700BF6A95FF1F7047000081
S3150000BBA0034648B101280CD0022803BF074B18688A
S3150000BBB0C0F3404000207047044B1868C0F3C02013
S3150000BBC07047034B1868C0F34000704750F00F40B1
S3150000BBD010F10F4088B1012841F2883303FB01F1CF
S3150000BBE00C4B83FB01234FEAE171C1EB631107BFE5
S3150000BBF0094B9963094B1964704741F2883303FB7B
S3150000BC0001F1044B83FB0123C917C1EB6311024BFE
S3150000BC10196470471F85EB51009003400080034074
S3150000BC202DE9F8430A21304802F066FB002858D077
S3150000BC302E4A1388013313802D4C00252F4690463B
S3150000BC404FF0010927E0224634F80C3C1BB9B8F83E
S3150000BC50001024F80A1C013322F80C3C12E00221E1
S3150000BC6004F8011C28E0BE2A2CD9032203F8022C72
S3150000BC7033F80A2C23F8042CB8F8002023F8062CF5
S3150000BC8023F80C7C34F8101C3046FFF7A3FF01356F
S3150000BC901034032D25D0EEB23046FFF781FF012880
S3150000BCA0D1D0234634F80C2C5A2A13D914F8011C87
S3150000BCB00029D4D104F8019CF02AD4D9042203F82F
S3150000BCC0022CD5E78C2A86BF022203F8022C03F841
S3150000BCD0029CCDE73C2A84BF04F8017C04F8027C70
S3150000BCE0CEE7BDE8F88300BFE4000020E2000020B4
S3150000BCF02C0F00205C2903D80001044B1952704711
S3150000BD0000015D22014B1A52704700BF1C0F002034
S3150000BD10024B03EB0010807B704700BF1C0F002016
S3150000BD202DE9F843184C00252F464FF002094FF035
S3150000BD3001080CE004F8017C14F8043CDBB9012886
S3150000BD4016D006F8027C01350434042D1AD0264696
S3150000BD5014F8041CE8B200F031F804F8030C14F8E7
S3150000BD60013C0133DBB2642BE4D804F8013CEAE77A
S3150000BD7004F8028CE7E7012BE3D10028E1D104F8AF
S3150000BD80029CE0E7BDE8F883500F0020064B13F84D
S3150000BD9020308B4206D0044B03F8201003EB8003BF
S3150000BDA00022DA70704700BF4C0F0020024B03EBF5
S3150000BDB080008078704700BF4C0F002038B1012802
S3150000BDC00FD0022817D003281FD000207047144B2D
S3150000BDD01A6861F351421A6050331868C0F3004084
S3150000BDE07047104B1A6861F30C321A6010331868EA
S3150000BDF0C0F3C03070470B4B1A6861F349221A60D2
S3150000BE0010331868C0F340307047054B1A6861F369
S3150000BE108E321A6040331868C0F38020704700BF26
S3150000BE20C0F00F4000F10F400B4651B1421E4B1EB1
S3150000BE3050FA83F1002312F8010F0344DBB28A4261
S3150000BE40F9D1D843C0B270470B4651B1421E4B1EC2
S3150000BE5050FA83F1002312F8010F0344DBB28A4241
S3150000BE60F9D1FF2B14BF00200120704700B585B023
S3150000BE700221744802F040FA98B1734B1B78012BEB
S3150000BE8012D90022704B1A7003F06FFA102003F0DB
S3150000BE90B1FA012865D06D4A13880133138003F087
S3150000BEA076FA05B05DF804FB03F05FFA112003F0A3
S3150000BEB0A1FA012816D0654A13880133138003F0CE
S3150000BEC066FA05216846FFF7BFFF18B19DF80330F3
S3150000BED0AA2B32D000BF00BF00BF5C4A13880133D3
S3150000BEE01380DEE7584A137801331370142002F0EA
S3150000BEF0CAF903F0BAFA8DF80000012003F064FADB
S3150000BF0003F0B3FA8DF80100012003F05DFA03F0A7
S3150000BF10ACFA8DF80200012003F056FA03F0A5FAF8
S3150000BF208DF80300012003F04FFA03F09EFA8DF816
S3150000BF300400002003F048FAC1E79DF8000068B944
S3150000BF409DF801309DF8020000EB032080B2404BC3
S3150000BF5018800028A5D003F089F8A2E703F006FEB2
S3150000BF60EEE70C223B49684603F0CAFD0C21684601
S3150000BF70FFF75AFF8DF80C009DF8000003F03AFA1F
S3150000BF80354B18701B78DBB2012B88D19DF8010068
S3150000BF9003F030FA304B18700A2002F074F99DF85D
S3150000BFA0020003F027FA0A2002F06DF99DF803005B
S3150000BFB003F020FA0A2002F066F99DF8040003F067
S3150000BFC019FA0A2002F05FF99DF8050003F012FA4B
S3150000BFD00A2002F058F99DF8060003F00BFA0A2031
S3150000BFE002F051F99DF8070003F004FA0A2002F066
S3150000BFF04AF99DF8080003F0FDF90A2002F043F91A
S3150000C0009DF8090003F0F6F90A2002F03CF99DF8C4
S3150000C0100A0003F0EFF90A2002F035F99DF80B004B
S3150000C02003F0E8F90A2002F02EF99DF80C0003F05F
S3150000C030E1F90A2002F027F99DF80D0003F0DAF97C
S3150000C0402DE700BFE6000020E8000020640F002076
S3150000C0505E0F0020300E0020620F002008B5112868
S3150000C06000F2AF80DFE800F0090B12AD19222BAD0C
S3150000C070ADAD34475A6D8093ADA6012008BD0420AE
S3150000C08003F00EFF003018BF012008BD052003F0A5
S3150000C09007FF003018BF012008BD012002F002FB97
S3150000C0A010F00C0F14BF0120002008BD002002F084
S3150000C0B0F9FA10F00C0F14BF0120002008BD022071
S3150000C0C002F0F0FA10F00C0F14BF0120002008BD9A
S3150000C0D00221062003F0AEFE092801D8012008BD82
S3150000C0E00221062003F0A6FE40F2DE33984294BFFA
S3150000C0F00020012008BD0221072003F09BFE09282D
S3150000C10001D8012008BD0221072003F093FE40F26A
S3150000C110DE33984294BF0020012008BD022108208A
S3150000C12003F088FE092801D8012008BD0221082055
S3150000C13003F080FE40F2DE33984294BF00200120D7
S3150000C14008BD02210A2003F075FE092801D8012046
S3150000C15008BD02210A2003F06DFE40F2DE3398424C
S3150000C16094BF0020012008BD02210B2003F062FECF
S3150000C170092801D8012008BD02210B2003F05AFE30
S3150000C18040F2DE33984294BF0020012008BD022110
S3150000C1900C2003F04FFE092801D8012008BD02211A
S3150000C1A00C2003F047FE40F2DE33984294BF002095
S3150000C1B0012008BD06F0A4FC002814BFC120802081
S3150000C1C008BD002008BD000038B50446002003F075
S3150000C1D05BFE0A4A61000B1902EB8303084D85FBDF
S3150000C1E000C5C017C0EBA50098704FF4807098602A
S3150000C1F08C2018711A46FF23D37038BDFC0F00201F
S3150000C2006766666638B504468A4B1A7B02705A7CA6
S3150000C2104270DB7913F0020F12BF5523854B5B7911
S3150000C2208370844BDB7913F0040F12BF5523814BC7
S3150000C230DB78C3707F4BDB7913F0080F12BF5523F1
S3150000C2407C4B1B7903717B4BDB7913F0010F12BF1B
S3150000C2505523784B9B784371774DB5F9023083713E
S3150000C2601B12C371032003F00FFE2072032003F09C
S3150000C2700BFE00126072B5F90030A3721B12E37256
S3150000C280042003F001FE2073042003F0FDFD0012DC
S3150000C2906073B5F90430A3731B12E373674B9A8B73
S3150000C2A0227493F91D206274B5F90620A274121245
S3150000C2B0E274DA8B227593F91F2062752A7AA275C9
S3150000C2C0B3F90620E27512122276B3F904206276DB
S3150000C2D01212A276B3F90A20E27612122277B3F985
S3150000C2E0082062771212A277B3F90220E2771212BF
S3150000C2F084F82020B3F9002084F82120121284F853
S3150000C3002220B3F90C2084F82320121284F824206A
S3150000C310B3F90E2084F82520121284F82620B3F9EA
S3150000C320102084F82720121284F82820B3F912303E
S3150000C33084F829301B1284F82A30414DB5F90230B1
S3150000C340404A82FB0312DB17C3EBA20384F82B30AF
S3150000C35003F020F984F82C002B7884F82D30002087
S3150000C36002F07EF984F82E00002002F08BF984F8A2
S3150000C3702F00012002F074F984F83000012002F049
S3150000C38081F984F83100022002F06AF984F832005B
S3150000C390022002F077F984F833002B4B9A8A84F84E
S3150000C3A03420120A84F83520DA8A84F83620120AF4
S3150000C3B084F83720254AB2F9022084F83820121270
S3150000C3C084F839201A8884F83A205A8884F83B2061
S3150000C3D09A8884F83C205A8984F83D20120A84F809
S3150000C3E03E20DA8884F83F20120A84F840209A8991
S3150000C3F084F84120120A84F842209A7B84F843206C
S3150000C400DA7B84F844201A7C84F845205A7C84F828
S3150000C41046209A7C84F847205A7E84F848201B7E62
S3150000C42084F849300A4B1B8884F84A301B0A84F882
S3150000C4304B3038BD2080FF1F3880FF1F240D0020A1
S3150000C440CC0D002067666666F00D0020D80D002032
S3150000C4509C0E0020114B1968F1B12DE9F0410646FA
S3150000C4600025A8462C461F4607EBC5052A79304607
S3150000C47003F046FB2B791E4443441FFA83F801342C
S3150000C48024B2254657F834100029EDD1B8F1F00F43
S3150000C49000D900BEBDE8F081704700BF8495FF1F3C
S3150000C4A02DE9F04180460E4B186890B146460025AE
S3150000C4B02C461F4607EBC5052A79314603F020FBBB
S3150000C4C02B791E44013424B2254657F8340000283F
S3150000C4D0F0D14046FCF7A1FB0120BDE8F08100BF8A
S3150000C4E08495FF1F114B1968F1B12DE9F0410646FD
S3150000C4F00025A8462C461F4607EBC5052A79304677
S3150000C50003F0FEFA2B791E4443441FFA83F80134E4
S3150000C51024B2254657F834100029EDD1B8F1F00FB2
S3150000C52000D900BEBDE8F081704700BFF496FF1F3A
S3150000C5302DE9F04180460E4B186890B1464600251D
S3150000C5402C461F4607EBC5052A79314603F0D8FA73
S3150000C5502B791E44013424B2254657F834000028AE
S3150000C560F0D14046FCF75FFB0120BDE8F08100BF3B
S3150000C570F496FF1F38B5044602783B4B1A7342788F
S3150000C5809A708278DA70C2785A7102791A71427991
S3150000C5901A7282795A73354BC2791A70417A027AC5
S3150000C5A002EB01225A80827A9A71C27A5A71027B10
S3150000C5B01A71427BDA71092200F10E012C4803F050
S3150000C5C09FFA222204F117012A4803F099FA2A4D0C
S3150000C5D00A2204F1E601284603F092FA2B7813F0BA
S3150000C5E0040004D0204AD1796FF30001D17113F011
S3150000C5F0080104D01C4AD4796FF38204D47113F075
S3150000C600100204D0184CE5796FF34105E57113F07B
S3150000C610200F04D0144CE5796FF3C305E57113F0D0
S3150000C620020F04D0104BDC796FF30004DC7120B1EB
S3150000C6300D4BD8796FF38200D87121B10A4BD979A5
S3150000C6406FF34101D9714AB1074BDA796FF3C3022F
S3150000C650DA711B7923B10022034B9A71012038BD90
S3150000C6600122014B9A71F9E72080FF1FC00D0020BF
S3150000C670700D0020880D0020400E002010B50446E5
S3150000C680184B1A7B02709A784270DA7882705A795F
S3150000C690C2701A7902711A7A42715B7B8371124BEE
S3150000C6A01A78C271B3F902200272121242729A7992
S3150000C6B082725A79C2721A790273DB79437309223C
S3150000C6C00A490E3003F01CFA2222094904F1170028
S3150000C6D003F016FA0A22074904F1E60003F010FAFD
S3150000C6E010BD00BF2080FF1FCC0D00203880FF1F2B
S3150000C6F0240D0020400E0020F0B4204B5B7813F090
S3150000C700200F03D01E4A11881E4A118013F0400FD5
S3150000C71003D01B4A51881B4A518013F0800F28D141
S3150000C720164B9B7813F0010F03D0154AD188154A92
S3150000C730D18013F0020F03D0114B1A7A114B1A72E3
S3150000C7401223114C114901270C4E01F12205C3F3A6
S3150000C750C400A3EBC00207FA02F2305C02421CBF1F
S3150000C76022880A80023102340133A942EFD1F0BC9B
S3150000C7707047034B9A88034B9A80D1E7400E0020FE
S3150000C780700D00203880FF1F880D0020240D00202A
S3150000C790884B93F90030002B29DB864B5B7813F02E
S3150000C7A0010F03D0844A5188844A518013F0020F46
S3150000C7B003D0814A9179814A917113F0040F03D015
S3150000C7C07D4A51797D4A517113F0080F03D07A4A98
S3150000C7D011797A4A117113F0100F03D0764BDA797A
S3150000C7E0764BDA71764B5B7C0F2B05D07047724B1C
S3150000C7F01A78724B1A70D0E730B472494A6802F060
S3150000C80001024B68C3F3813303EB82036C4A537115
S3150000C8104B68C3F34303694803EB830303EB8303CA
S3150000C8209B0043800A68C2F304624B68C3F3421359
S3150000C830654C257803EBC203DBB26278521B02FB20
S3150000C84003F2624C84FB02C3D217C2EBE3022A4412
S3150000C85002710A68C2F304420B685D4D2D78D2005E
S3150000C86002EB5372D2B25B4B1B785B1B03FB02F3EA
S3150000C87084FB0324DB17C3EBE4032B4483710A68B0
S3150000C880C2F304220B68C3F3425303EBC20303EB68
S3150000C890830303EB83035B009BB24F4CE382086880
S3150000C8A000F003000A68C2F3423202EBC002C2EB98
S3150000C8B0421102EB8102920092B2A282002B61D059
S3150000C8C00122E27622773F4A1368C3F3C003424946
S3150000C8D08B731368C3F38003CB731068C0F3031024
S3150000C8E0642303FB00F33D4880FB03401844DB1739
S3150000C8F0C3EBE0038B813A484368C3F302434468C1
S3150000C900DB0103EB54634B814468C4F3042443689E
S3150000C910C3F3C44303EB4413CB8053685268C2F39A
S3150000C920074203F440731344B3F5207F36D80B81D6
S3150000C9302B4B5B68C3F34133022B34D0284B5B6827
S3150000C940C3F34133012B244B4FF000025A7608BF44
S3150000C95001221A76224A5168C1F3C0311E4B9980D2
S3150000C9601168090E19805168C9B259801168197485
S3150000C9701168C1F3072159741268C2F307429A7409
S3150000C98030BC33E722B1144B0122DA765A779AE7A4
S3150000C990114B0022DA765A771A7794E74FF4207211
S3150000C9A00D4B1A81C4E70C4B01225A7600221A76E7
S3150000C9B0D0E700BF400E0020C00D0020CC0D0020A7
S3150000C9C02080FF1F001400208894FF1F676666669C
S3150000C9D08F94FF1F8E94FF1FF00D00208988888892
S3150000C9E03C1300202DE9F047274CA61C002541F2F8
S3150000C9F0883A4FF00109A84625E01421304601F097
S3150000CA00CBFCD8B1022304F80A3C04F8099C24F8AC
S3150000CA10088C637112E014F8023C7BB104F80A8CAE
S3150000CA2004F8099C34F8063C24F8083C06E0514614
S3150000CA30204601F061FC08B184F8049001351034F9
S3150000CA401036082D1ED0E9B2A4F10A0000F02EF827
S3150000CA500028ECD04146204601F04EFC84F80480C4
S3150000CA606379012BC9D0022BD5D04146304601F05F
S3150000CA7093FC04F80A9C04F8099C24F8088C84F8B2
S3150000CA800590DBE7BDE8F087720F0020024B03EB51
S3150000CA9000108180704700BF680F0020024B03EB37
S3150000CAA00010807B704700BF680F002030B402463C
S3150000CAB00B46002962D1B949C97981B10021B74B2A
S3150000CAC0D971B74991F83830C3F34103037291F82D
S3150000CAD03A3091F83B1003EB0123C3800123B048A1
S3150000CAE090F83010C9B2AF4D2970AF498C7944F037
S3150000CAF001048C7190F83040947880F8304090F8BA
S3150000CB003140E4B26C708C7944F002048C7190F878
S3150000CB1031405488240A80F83140887900F0FC00BE
S3150000CB208871A248817901F0FE0181715178E9B1DD
S3150000CB309B4890F8321041F0010180F832109B4971
S3150000CB40887900F0FD008871954C94F833001278CE
S3150000CB5002F0070200F0F800024384F833208A79D5
S3150000CB6002F0FB028A71184630BC70478C4890F878
S3150000CB70321001F0FE0180F83210E0E7012912D0F0
S3150000CB80072974D0022900F0D680032900F012810B
S3150000CB90042900F04181052900F07B81062900F077
S3150000CBA0C6810020E0E77D49497A002955D000205A
S3150000CBB07A4948727A4890F84810C1F341011172D7
S3150000CBC090F84A1090F84B0001EB0021D1801846EE
S3150000CBD0734991F84030DBB2724D2B70724B1C7A60
S3150000CBE044F001041C7291F84040947881F840406A
S3150000CBF091F84140E4B26C701C7A44F002041C7255
S3150000CC0091F841405488240A81F84140197A01F08C
S3150000CC10FC01197265490B7A03F0FE030B72537817
S3150000CC20EBB15F4991F8423043F0010381F842309D
S3150000CC305E490B7A03F0FD030B72594D95F843409C
S3150000CC40137803F0070304F0F802134385F8433022
S3150000CC500B7A03F0FB030B7286E70020B8E7504916
S3150000CC6091F8423003F0FE0381F84230E0E74B4B87
S3150000CC70DB7A002B55D00021484BD972484991F8F0
S3150000CC805830C3F34103037291F85A3091F85B10A0
S3150000CC9003EB0123C3800120414991F85030DBB2F8
S3150000CCA0404D2B70404B9C7A44F001049C7291F8E5
S3150000CCB05040947881F8504091F85140E4B26C703D
S3150000CCC09C7A44F002049C7291F851405488240ADC
S3150000CCD081F85140997A01F0FC01997233498B7AB7
S3150000CCE003F0FE038B725378EBB12D4991F8523065
S3150000CCF043F0010381F852302C498B7A03F0FD038F
S3150000CD008B72274D95F85340137803F0070304F010
S3150000CD10F802134385F853308B7A03F0FB038B72CA
S3150000CD2022E70020B8E71E4991F8523003F0FE03CF
S3150000CD3081F85230E0E7194B5B7833B30021174B8B
S3150000CD405970174B9B7AC380012001231372144C30
S3150000CD5063785388C3EB0323154981FB0351DB1723
S3150000CD60C3EB6113DBB2637010490B7803F0FD036C
S3150000CD700B7053785BB1237843F0010323700B4AA1
S3150000CD80137803F0FE031370EEE60020DDE7044A95
S3150000CD90137803F0FE031370F1E700BFEC0C0020DC
S3150000CDA0C0A1FF1FE40C0020000D0020A8A1FF1F5A
S3150000CDB01F85EB51844BDB783BB10021824BD97048
S3150000CDC0824B9B7EC380012000E00020012313726A
S3150000CDD07E4C637C5388C3EB03237D4981FB03515F
S3150000CDE0DB17C3EB6113DBB263747A498B7803F00C
S3150000CDF0FD038B7053784BB1237C43F001032374FE
S3150000CE00744A937803F0FE039370ADE66F4A137C81
S3150000CE1003F0FE031374F3E76B4B5B793BB300211E
S3150000CE20694B5971694B93F828309B09C3800120DF
S3150000CE30012313725388E3B1644991F8203043F01B
S3150000CE40020381F8203063490B7903F0FD030B716F
S3150000CE505378B3B15D4A92F8203043F0010382F86B
S3150000CE6020305C4A137903F0FE0313717CE6002040
S3150000CE70DEE7564991F8203003F0FD0381F82030B3
S3150000CE80E1E7524A92F8203003F0FE0382F82030A0
S3150000CE90E7E74D4B5B7B6BB100214B4B59734B491D
S3150000CEA091F86530C3F3C003037291F86430C38010
S3150000CEB0012000E00020454991F86030002381F808
S3150000CEC06030444B1C7B04F0FE041C7391F86240F6
S3150000CED00F2481F86240197B01F0F701197353881A
S3150000CEE0C3B13A4A92F8613003F0FB0382F861302D
S3150000CEF0384A137B03F0FB031373344A92F861300C
S3150000CF0043F0010382F86130324A137B03F0FD03DC
S3150000CF10137329E62D4A92F8613043F0040382F830
S3150000CF2061302C4A137B03F0FB031373E5E7264BB2
S3150000CF30DB7B002B39D00021234BD973234991F891
S3150000CF406D30C3F3C003037291F86C30C3800120C7
S3150000CF501E4991F86830002381F868301D4BDC7B50
S3150000CF6004F0FE04DC7391F86A400F2481F86A40ED
S3150000CF70DC7B04F0F704DC7391F8694044F00104AB
S3150000CF8081F86940D97B01F0FD01D973538873B9E3
S3150000CF900E4A92F8693043F0040382F869300D4A6C
S3150000CFA0D37B03F0FB03D373DEE50020D0E7074A0B
S3150000CFB092F8693003F0FB0382F86930054AD37BA7
S3150000CFC003F0FB03D373CFE5EC0C0020C0A1FF1FD9
S3150000CFD01F85EB51A8A1FF1FF8B5FBF7DFFDA8B928
S3150000CFE01E4B187888B11E4A1E490138531C53FA45
S3150000CFF080F00024537823F0030343F0400302F843
S3150000D000013F01F8014F8242F4D1F8BD164B174A91
S3150000D01002F1D804002612E012F8015C092D87BF40
S3150000D02021F028011970013502F8015C1670197893
S3150000D03021F00401197001330C32A24209D019788B
S3150000D04011F0400FF7D111F0020FE5D002F8016C94
S3150000D050F1E70122064B1A70C2E700BFE900002083
S3150000D060E70F0020F3000020E80F0020FD0F00204E
S3150000D070D497FF1F08B5122806D900200023074AB7
S3150000D0801370074A137008BD064B18700022044B34
S3150000D0901A70FFF7A1FF0120F0E700BFEA000020A9
S3150000D0A008010020E9000020FF2813D0164B1B784A
S3150000D0B0834228D95022154B1A540022144B1A5475
S3150000D0C000EB4000134B03EB800042700122124B31
S3150000D0D01A70704730B40C4B1C7884B10F4B104853
S3150000D0E00C4A013C591C51FA84F45025002103F8DE
S3150000D0F0015F00F8011F51700C32A342F7D10122E3
S3150000D100054B1A7030BC7047E9000020E80F00207C
S3150000D110F4000020FC0F0020D497FF1FE70F00202B
S3150000D120F30000202DE9F0410821B04801F0E4F8B1
S3150000D13090B90024AE4B1B88F92B0AD90022AC4BC0
S3150000D1401A80AC4B1B7823B1AB4B1B78012B00F03C
S3150000D150F1802046BDE8F081A54A1388013313808B
S3150000D160002002F091FE0446A34B1B78022B1ED032
S3150000D170032B58D0012B10D040F2DC519F4801F010
S3150000D180BBF8D8B1A4F561739BB2B3F52F7F8CBF02
S3150000D19002220122984B1A7010E0A0F561739BB22F
S3150000D1A0B3F52F7F0AD90222934B1A7006E0A0F23C
S3150000D1B0B7339BB240F2562293422CD9B4F5FA7F8C
S3150000D1C047DA00228C4B1A708D4B1B7813B901225B
S3150000D1D08B4B1A70002002F057FE0446A0F2F5139E
S3150000D1E09BB2B3F5C77F42D840F21451854801F08F
S3150000D1F083F810B10122844B1A70B4F5C86F42DD72
S3150000D20040F21451814801F077F8002846D00122F7
S3150000D2107F4B1A7042E00021784801F06DF8032236
S3150000D220754B1A70CAE7A0F561739BB2B3F52F7FF1
S3150000D2300AD84FF4FA71714801F05EF80028BDD0A3
S3150000D24001226D4B1A70B9E700216C4801F054F8C1
S3150000D250EFE740F2B6339C42BCDD694B1B78012BED
S3150000D260B8D10022664B1A70FFF7B6FEB2E700216E
S3150000D270644801F041F840F2B6339C42BDDD00221D
S3150000D280614B1A70B9E70021604801F035F840F2A9
S3150000D2900D639C4202DC00225D4B1A70564B1B78D4
S3150000D2A00BB9FE2446E705F077F808B9FF2441E7F5
S3150000D2B0584B1B78002B3BD00024574F574EDFF8B6
S3150000D2C0348186E0504B1878012838D081283FD029
S3150000D2D0C1283BD0002800F0A580802808BF224640
S3150000D2E071D1E223BB54B35C13F0100F17D123F0B6
S3150000D2F04103B35467E0464B1878E5E7C1283BD0B5
S3150000D30005EB450301EB83035A7042E023F050031B
S3150000D31043F001037355012388F8003049E023F0F8
S3150000D3205103B354012388F800304CE0012401E78F
S3150000D3300124FFE62F4B1A70FBF718FC09E7254678
S3150000D3403B571B2B05DC02333B553CE0254600E0F2
S3150000D35025461E237B55735D13F0020F20D143F043
S3150000D3600202725505EB45022D4901EB8202527805
S3150000D3700132D2B2012AC1D905EB4502284901EB97
S3150000D38082020221517043F00A0373552046FEF7CC
S3150000D3901BFF735D43F004037355012388F80030C7
S3150000D3A0735D13F0100FB1D123F0400343F0010376
S3150000D3B07355735D13F0200F05D143F020037355A9
S3150000D3C0012388F800300134E4B2124B1B78A342E3
S3150000D3D0ACD9072C3FF476AF082C8CD0064B1B78C3
S3150000D3E0012BF0D12046FEF739FE6DE7EC00002058
S3150000D3F006010020D497FF1FEA000020EE0000205F
S3150000D40008010020F20000200A010020F0000020A0
S3150000D41009010020E9000020F4000020E80F0020A8
S3150000D420FC0F002022463B5713F11C0FFFF659AFA5
S3150000D430013B3B55C7E700BF10B50220FFF72EFBA7
S3150000D440002850D001224A4BDA700320FFF726FB52
S3150000D45000285AD00122464B1A710020FFF71EFB06
S3150000D46080B9444B93F858301B090BD1414B93F8C4
S3150000D470583013F0010F05D13E4B93F8593013F095
S3150000D480030F54D001223A4B1A700120FFF706FB16
S3150000D49080B9384B93F848301B090BD1354B93F8BC
S3150000D4A0483013F0010F05D1324B93F8493013F091
S3150000D4B0030F40D001222E4B5A702E4B93F8283082
S3150000D4C013F0010F3BD12B4B93F8293013F0300F9B
S3150000D4D035D1284B93F8283013F03C0F2FD100227A
S3150000D4E0234B9A702EE0234B5B7A13F0300F04D156
S3150000D4F0204B1B7A13F03C0F03D002221C4BDA7030
S3150000D500A3E700221A4BDA709FE71A4B5B7E13F0F3
S3150000D510300F04D1174B1B7E13F03C0F03D00222B1
S3150000D520134B1A7199E70022114B1A7195E70022E5
S3150000D5300F4B1A70A9E700220D4B5A70BDE7012266
S3150000D5400B4B9A700020FEF7E3FB094C607201203A
S3150000D550FEF7DEFBA0720220FEF7DAFBE072002087
S3150000D560FEF724FC20720120FEF720FCE07110BDBE
S3150000D570180D0020C0A1FF1F08B50DF039F90020D5
S3150000D5800DF010FB0022042110460DF033F908BD02
S3150000D59008B500F08BFE00F0C7FB00F015F900F0AF
S3150000D5A01CF900F0E3F900F07DF9FEF7E1FAFFF768
S3150000D5B0E3FF00F077FE03E000F0CCFA00F038F964
S3150000D5C000F06CFE00F078FA00F028F9FEF7BEF9DC
S3150000D5D0FEF7C8FA0228EFD0FEF7C4FA042806D0F0
S3150000D5E0FEF7C0FA0328EBD1FDF764FFE8E7FDF785
S3150000D5F07BFFE5E704207146014214BFEFF3098182
S3150000D600EFF308810D480160084B1B68084A136058
S3150000D6109A69084B1A604FF0E023D3F8283D1B0C9B
S3150000D6201B04054A136000BEFEE700BF1001002080
S3150000D6300C01002008110020F81000201001002025
S3150000D64004207146014214BFEFF30981EFF308810C
S3150000D650124801600C4B1B680C4A13609A690C4B0C
S3150000D6601A604FF0E023D3F8283DDBB2094A136075
S3150000D670136813F0800F05D04FF0E023D3F8342D54
S3150000D680054B1A6000BEFEE7100100200C010020C9
S3150000D69008110020001100201411002010010020A4
S3150000D6A004207146014214BFEFF30981EFF30881AC
S3150000D6B0134801600D4B1B680D4A13609A690D4BA8
S3150000D6C01A604FF0E023D3F8283D03F47F430A4A5B
S3150000D6D01360136813F4004F05D04FF0E023D3F81E
S3150000D6E0382D064B1A6000BE704700BF100100209F
