S01800005333324B3134345F5374616E6450726A2E73726563EB
S31500008000007000202184000089840000898400001B
S315000080108984000089840000898400000000000033
S31500008020000000000000000000000000898400003D
S31500008030898400000000000089840000AD20010052
S31500008040713E01007B3E0100853E01008F3E01002E
S31500008050993E0100A33E0100AD3E0100B73E01007E
S31500008060C13E0100CB3E0100D53E0100DF3E0100CE
S31500008070E93E0100F33E0100FD3E0100073F01001D
S31500008080113F010089840000898400008984000072
S3150000809089840000898400008984000089840000A6
S315000080A08984000089840000898400008984000096
S315000080B08984000089840000898400008984000086
S315000080C08984000089840000898400008984000076
S315000080D0898400008984000089840000F9BF0000BB
S315000080E00DC0000089840000898400008984000096
S315000080F0898400008984000089840000E9BF0000AB
S31500008100B9BF0000898400008984000089840000CA
S315000081108984000089840000898400008984000025
S315000081208984000089840000898400008984000015
S315000081308984000089840000898400008984000005
S3150000814089840000898400008984000089840000F5
S3150000815089840000898400008984000089840000E5
S3150000816089840000898400008984000089840000D5
S315000081708984000089840000412701004B27010003
S31500008180552701005F270100692701008984000047
S3150000819089840000732701007D270100898400007F
S315000081A087270100898400008984000089840000F3
S315000081B0912701009B27010089840000A527010063
S315000081C08984000089840000898400008984000075
S315000081D08984000089840000898400008984000065
S315000081E08984000089840000898400008984000055
S315000081F08984000089840000898400008984000045
S315000083F0898400008984000089840000FFFFFFFF54
S31500008400FFFFFFFFFFFFFFFFFFFFFFFFFE7FFFFFF7
S315000084104101012D45010011000100020001010288
S3150000842072B64FF000014FF000024FF000034FF01C
S3150000843000044FF000054FF000064FF00007B84665
S31500008440B946BA46BB46BC460A490B4A521A013AD5
S3150000845005DD0020042308601944043AFBDA0748C6
S315000084608546074880470748804762B603F0A0FA6A
S31500008470FEE700000090FF1F007000200070002043
S3150000848095590100BD580100FFF7FEBF53B94AB91F
S31500008490002908BF00281CBF4FF0FF314FF0FF3006
S315000084A000F07EB9ADF1080C6DE904CE00F006F8D7
S315000084B0DDF804E0DDE9022304B070472DE9F0475A
S315000084C0089D04468E46002B4ED18A4294466DD9AD
S315000084D0B2FA82F757B1C7F1200EB94020FA0EFE64
S315000084E002FA07FC4EEA010E00FA07F44FEA1C49AD
S315000084F0210CBEFBF9F61FFA8CF809FB16EE41EAD1
S315000085000E4106FB08F38B420AD91CEB010106F16A
S31500008510FF3280F027818B4240F22481023E614483
S31500008520C91AA4B2B1FBF9F009FB101144EA0144DF
S3150000853000FB08F8A0450AD91CEB040400F1FF3340
S3150000854080F00E81A04540F20B810238644440EA77
S315000085500640A4EB080400267DB1FC4000232C60F5
S315000085606B603146BDE8F0878B4209D9002D00F0DB
S315000085701481002685E8030030463146BDE8F087C1
S31500008580B3FA83F6002E40F090808B4202D38242EB
S3150000859000F2FD80841A61EB030101208E46002D56
S315000085A0EBD085E810403146BDE8F0871AB94FF0A8
S315000085B0010CBCFBF2FCBCFA8CF7A7BBA1EB0C03CD
S315000085C04FEA1C421FFA8CF80126B3FBF2FE210C7F
S315000085D002FB1E3341EA034108FB0EF38B4208D926
S315000085E01CEB01010EF1FF3002D28B4200F2D1806A
S315000085F08646C91AA3B2B1FBF2F002FB101143EA98
S31500008600014408FB00F8A04508D91CEB040400F15E
S31500008610FF3302D2A04500F2B7801846A4EB080447
S3150000862040EA0E4098E7C7F1200301FA07F40CFA76
S3150000863007FC20FA03FED9404FEA1C424EEA040E1C
S31500008640B1FBF2F64FEA1E4302FB16111FFA8CF835
S3150000865043EA014306FB08F1994200FA07F40AD9F6
S315000086601CEB030306F1FF3080F08C80994240F248
S315000086708980023E63445B1A1FFA8EF1B3FBF2F067
S3150000868002FB103341EA034100FB08F38B4208D991
S315000086901CEB010100F1FF3E70D28B426ED902380D
S315000086A06144CB1A40EA06468FE7C6F1200722FA54
S315000086B007F8B34001FA06F448EA030320FA07FC78
S315000086C04FEA134EF9404CEA040CB1FBFEF94FEAAF
S315000086D01C440EFB19111FFA83F844EA014109FBF9
S315000086E008F48C4202FA06F200FA06FA08D959187A
S315000086F009F1FF3044D28C4242D9A9F1020919444A
S31500008700091B1FFA8CFCB1FBFEF00EFB10114CEAA4
S31500008710014400FB08F8A04507D91C1900F1FF31F8
S315000087202AD2A04528D902381C4440EA0940A4EBC5
S315000087300804A0FB02894C45C446494616D313D00B
S3150000874055B1BAEB0C0364EB010404FA07F7F340E6
S315000087501F43F4402F606C6000263146BDE8F08769
S315000087601846F4E61646DBE6C245E9D2B8EB020C3B
S3150000877069EB03010138E3E70846D6E7704690E760
S315000087808146BDE7064676E70238644446E730464A
S3150000879005E7AEF1020E61442BE72E462846ECE6CD
S315000087A0704700BF50B10B4B1A6822F01F021A60C7
S315000087B01A6801F01F01114319607047064B1A68C9
S315000087C022F01F021A601A6801F01F011143196096
S315000087D0704700BF0070024000B0034003680B60A2
S315000087E043684B6083688B60C3680B6103698B6168
S315000087F02C4BDB6CC3F303330F2B4DD8DFE803F0B0
S31500008800080F13171E2125292D3034383C404448C3
S315000088104FF48033CB6000234B61002070474FF04C
S31500008820FF33CB60F7E74FF0FF33CB60F3E74FF44E
S315000088300043CB604FF480534B61EEE70023CB60DF
S31500008840F8E74FF0FF33CB60E5E74FF0FF33CB603F
S31500008850E1E74FF0FF33CB60DDE70023CB60E9E7CC
S315000088604FF0FF33CB60D6E74FF48043CB60E1E7B0
S315000088704FF40043CB60DDE74FF48033CB60CAE7AB
S315000088804FF0FF33CB60C6E74FF0FF33CB60C2E754
S315000088904FF48033CB60BEE7CB68B3F5803FC9D3D6
S315000088A0B9E700BF0080044038B5184C247814F0AE
S315000088B0800F01D1022038BD1D460C46134B702196
S315000088C019708121D9719C71552C15D00DF0B0F815
S315000088D0772C19D1C0B9B5B10C4B9A7A2A70DA7BCC
S315000088E01202AA80997B0A43AA805A7A12026A80E7
S315000088F01B7A1A436A8038BD110AD972D2B29A72AB
S315000089000DF096F838BD012038BD00BF00000240CA
S315000089102DE9F84F9846344B5B7813F0010F02D1DE
S315000089200420BDE8F88F05460E46914603698B4242
S3150000893041D88A1841690B449A423FD8B9F1000FD1
S315000089403FD04FF0040B4FF0010A274C1CE098F87B
S31500008950032098F802301B0443EA026398F80020CB
S31500008960134398F8012043EA022333605F462FE061
S31500008970237813F0710314BF012000203E44B8444D
S31500008980B9EB07092ED0A3B916F0030F02D1B9F13E
S31500008990030FDCD816F0010F16D1B9F1010F13D968
S315000089A098F8012098F8003043EA02233380022722
S315000089B00EE0BDE8F88F0120BDE8F88F0120BDE884
S315000089C0F88F0020BDE8F88F98F8003033705746CE
S315000089D0637813F0010FCBD1AB69B3F1FF3FF7D04A
S315000089E09847F5E7BDE8F88F0000024038B50D4C12
S315000089F0247814F0800F01D1022038BD094C70256F
S31500008A0025708025E571A3719DF8103063719DF87E
S31500008A10143083F001032371E172A2720DF008F89D
S31500008A2038BD00BF0000024070B5B4B0114D00243F
S31500008A3005F124062A7A696801AB181905F06CF865
S31500008A402B7A1C44E4B20C35B542F3D1C72C01D9BC
S31500008A5000BFFDE707F026FC8DF8CC00032206498F
S31500008A600DF1CD0005F058F801A9052000F026FA11
S31500008A7034B070BDF496FF1F380B002000B585B0EA
S31500008A8003F065FB00F0A8F91823ADF80030EA23DF
S31500008A90ADF802301C23ADF804300923ADF80630DA
S31500008AA0F123ADF80830CC23ADF80A30F023ADF849
S31500008AB00C30ADF80E306946082000F0CDF905B04F
S31500008AC05DF804FB70B588B001A9002000F034FA07
S31500008AD068B10026094D0A4C28686968AA68EB68DF
S31500008AE00FC42869696903C4304608B070BD1822EE
S31500008AF001A9024805F010F80126EBE72080FF1FC8
S31500008B000000002030B589B00521144803F096FB1B
S31500008B1008B909B030BD124A1388013313801822F0
S31500008B201049114805F007F80028F2D10D4D18221A
S31500008B30294601A804F0F0FF01A9002000F0BEF9C3
S31500008B40094C28686968AA68EB680FC428696969CE
S31500008B5003C40022024B1A80DBE700BF1800002086
S31500008B601A0000202080FF1F0000002000B5BDB0C5
S31500008B701222084901A804F0CFFFD82206490DF1B8
S31500008B80160004F0C9FF01A9012000F097F93DB0D5
S31500008B905DF804FB100C0020240C002000B5BDB0CD
S31500008BA001A9012000F0C8F968B1122200210C4881
S31500008BB004F0C1FFD82200210A4804F0BCFF0020BF
S31500008BC03DB05DF804FB122201A9054804F0A4FF9C
S31500008BD0D8220DF11601034804F09EFF0120EFE7AD
S31500008BE0100C0020240C002000B5BFB001A90620FF
S31500008BF000F0A2F940B101A9072000F09DF938B1B3
S31500008C0000203FB05DF804FB01A802F03DFBF2E74F
S31500008C1001A802F05CFB0120F3E708B50146062037
S31500008C2000F04CF908BD08B50146072000F046F9EA
S31500008C3008BD000000B5BFB0F022074901A804F046
S31500008C406BFF064B1B788DF8F43001A9042000F069
S31500008C5035F93FB05DF804FBF895FF1F640D002061
S31500008C6010B50A4C0023E371621E0634511CCB7901
S31500008C7012F8010F0344DBB2CB71A242F7D10349CC
S31500008C80DB43CB71032000F019F910BD680D0020FD
S31500008C9008B50A49032000F04FF958B1074BFF22E7
S31500008CA01A705A7000229A70DA701A715A719A7193
S31500008CB01A7208BD0122014B1A7208BD680D002008
S31500008CC0F0B5C1B06946042000F036F988B3214CEE
S31500008CD004F1F007204E10252A463146204604F0BE
S31500008CE01BFF1034A742F7D100221C4B1A706946AD
S31500008CF0052000F021F9054628BB194C04F124068D
S31500008D00227A0DEB0501606804F006FF237A1D4404
S31500008D10EDB20C34B442F3D19DF8C80007F0C8FA9E
S31500008D2003220DF1C9010F4804F0F6FE012041B0FF
S31500008D30F0BDF0226946074804F0EEFE9DF8F020EB
S31500008D40064B1A70D3E70024064B1C70FFF76CFE27
S31500008D502046ECE7F895FF1FE895FF1F640D0020FD
S31500008D60F496FF1F380B002008B5FFF75DFE08BD1F
S31500008D7008B5FFF759FE08BD08B5FFF755FE08BD53
S31500008D8000B589B01C220549684604F0C5FE69464F
S31500008D90022000F093F809B05DF804FB0080FF1F85
S31500008DA000B589B06946022000F0C6F818B1002067
S31500008DB009B05DF804FB1C226946024804F0ACFECB
S31500008DC00120F5E70080FF1F024A537803F07F0376
S31500008DD0537070470000024030B583B00022164938
S31500008DE0122009F06BFC122009F088FC134C214676
S31500008DF01348FFF7F3FC63693BB100231A46194693
S31500008E000E48FFF751FD03B030BD254601230193FF
S31500008E10002400942346082202212846FFF7E6FD97
S31500008E2029460748FFF7DAFC23462246214628460C
S31500008E30FFF73AFDE7E700BFC98D0000A80A00204A
S31500008E40445A010008B50B4600F1A0510148FFF74E
S31500008E505FFD08BDA80A002070B4064610B3154889
S31500008E608C1E731EDBB201EB4301002234F8023F75
S31500008E7020F8083C40F80C2C13F0030F1CBF23F01D
S31500008E800303043320F8063C30F8063C04339BB257
S31500008E9020F8063C1A4492B2B2F5805F07D20C3035
S31500008EA08C42E3D1044B1E70002070BC7047032037
S31500008EB0FBE700BF28000020940000201C4B1B7815
S31500008EC0834201D80420704770B582B00C4605462F
S31500008ED0184805EB45039B00C618B288C058FFF733
S31500008EE0B1FFB2880AB3631E013A14FA82F1002276
S31500008EF013F8014F22448B42FAD1524202A941F89B
S31500008F00042D0C4B6A00501953F820000438154400
S31500008F1003EB8503DB8804221844FFF793FF002840
S31500008F200CBF0020042002B070BD0022E5E700BFA0
S31500008F30940000201C0000201E4B1B78834201D8A1
S31500008F4006207047F0B406461B4B00EB400080003D
S31500008F501A181C5804F1A055D388234403F1A053D2
S31500008F6053F8047C93880BB3013B2C46013414FA66
S31500008F7083F42B46002213F8010B02449C42FAD1DB
S31500008F80D74202D00620F0BC7047084606EB4606DC
S31500008F90094B03EB860615F8013B01F8013B0B1A5A
S31500008FA0DBB2B2889342F6D30020ECE7002FFBD069
S31500008FB00620E8E7940000201C00002000487047C7
S31500008FC02080FF1F024AD37943F00F03D371704705
S31500008FD02080FF1F00F1180210F8013B1944C9B2A6
S31500008FE08242F9D1FF2914BF0020012070470000FA
S31500008FF00138032816D8DFE800F002070C1100221A
S31500009000094B83F8562070470022074B83F85720F8
S3150000901070470022044B83F8542070470022024B0D
S3150000902083F85520704700BF5080FF1F08B52E48B3
S3150000903090F850103830FFF7CDFF002849D02A4B62
S3150000904093F8563053B1294B274A92F83A10997043
S3150000905092F83F10DA7961F30002DA71224B93F845
S31500009060543063B1214B204A92F83D10597192F861
S315000090703F20D979C2F3400262F34101D9711A4BFC
S3150000908093F8553063B1194B174A92F83C10197191
S3150000909092F83F20D979C2F3C00262F3C301D971B5
S315000090A0114B93F8573063B1104B0F4A92F83B10AF
S315000090B0D97092F83F20D979C2F3800262F3820117
S315000090C0D9710A4B5B79042B06D00022074B9A71A3
S315000090D008BDFFF777FFF4E7044B00215971DA79F1
S315000090E061F34102DA71F0E75080FF1F2080FF1F15
S315000090F07047000008B50B4B93F82230012B05D0C2
S315000091000949084807F09CFE00B208BD054BB3F9B3
S315000091100220B3F900309A42F2DA0222014B83F8B8
S315000091202220EDE7480B00200094FF1F10B57D4B71
S315000091309C7A04F027FD01380F285BD8DFE800F0A1
S315000091407F455A5A5A5A5A5A5A5A5A5A5A5A2708EE
S31500009150754B9B79002B4DD1734B1C7B0134E4B2CC
S31500009160204600F003FB172C03D917226E4B1A7307
S3150000917040E06D4B9B7C834206D06C4B1B88002BDA
S3150000918038D1694B1C7335E0674B1C7332E0664B74
S315000091909B79002B2ED1644B1B7B002B00F0BA80F1
S315000091A0013BDCB2204600F0E1FA002C00F0B5806D
S315000091B05D4B9B7C834205D05C4B1B88D3B95A4BD5
S315000091C01C7317E0584B1C7314E0574B9B796BBB11
S315000091D00134E4B2082C28BF0824534B1C71524BAF
S315000091E0DA796FF3C302DA71FF2004F069FA04201A
S315000091F0FFF7FEFE03F084FE002862D04FF60362FE
S31500009200904265D03ED8B0F5807F51D0B0F5C05FB2
S3150000921037D1454B9B79002B53D1434BB3F90030E3
S31500009220B3F5A07F4DD102F099FC10BD3E4B002254
S315000092309A715B79042BD2D1FFF7F8FECFE73A4B50
S315000092409B794BB9012C03D9013C374B1C7109E0C2
S315000092500122354B1A7105E0334B00229A715B7976
S31500009260042B0BD0FF2004F02BFA2F4BDA796FF387
S31500009270C302DA710420FFF7BBFEBBE7FFF7D6FE99
S31500009280F0E710BD4FF60272904232D04FF60372ED
S3150000929090420CD1244B9B799BB9234BB3F90030F8
S315000092A0B3F5A07F0DD10A2008F098FE10BD10BDC1
S315000092B01D4B9B792BB91C4BB3F90030B3F5A07F3E
S315000092C000D010BD1A4BB3F9040008F087FE10BD9C
S315000092D0154B9B79002BF4D1134BB3F90030B3F542
S315000092E0A07FEED1012008F079FE012008F0F6FB00
S315000092F010BD0D4B9B79002BE3D10B4BB3F900301E
S31500009300B3F5A07FDDD1012008F068FE012008F04A
S31500009310E5FB10BD002000F029FA1722024B1A7354
S3150000932068E700BFE80A00202080FF1F140B00201A
S315000093303880FF1F7047704708B50B4B93F82230F3
S31500009340012B05D00949084807F07AFD00B208BD8F
S31500009350054BB3F90220B3F900309A42F2DA022241
S31500009360014B83F82220EDE7700B00201C94FF1FB1
S31500009370064B1B8801339BB2632B03D96422034B34
S315000093801A807047014A1380704700BF9E00002074
S3150000939010B584B09E4B1B7813F0040F11D09D4A74
S315000093A0D37903F0F4036FF38203D3710A219A4849
S315000093B002F0F4FE50B9FFF7BDFFFFF7B7FE04B0A9
S315000093C010BD07F071FE07F025FFEFE701F026FB61
S315000093D0904B1B7A914A12789A4205D08F4A1370A5
S315000093E000218F4802F03EFF8A4B1B7A012B44D0A6
S315000093F000228C4BDA7123218B4802F01FFF10B13B
S3150000940001228A4B1A708A4BB3F9003013F1320FDE
S3150000941002DA0121874A117013F11D0F02DB0022C7
S31500009420844B1A70824BB3F90430834AB2F9002098
S315000094309A4202DA0021814A1170814AB2F900206B
S315000094409A4202DD01227D4B1A70724B9B790BBB4F
S31500009450704A1279F2B16F4A927852B1754A12780F
S315000094603AB9764A127822B9704A1278002A40F040
S31500009470B68000216B4A11700FE04FF461716848A5
S3150000948002F0F0FE20B10022624B1A720122B0E710
S315000094900122AEE70021634A11705E4AD278012AA2
S315000094A00CBF012100215F4A1171ABB9584B1B78E3
S315000094B013F0040F00F09780624B1B78624A127813
S315000094C05449B1F9001000914FF4A071AA2003F09D
S315000094D047FC80B2534B98714E4B5B79042B99BF76
S315000094E05A4AD25C594B1A794E4B5A71494B9B7961
S315000094F0002B40F08780474BDB7913F0080F40F0D4
S31500009500AF80444B1B79082B02D90822414B1A71B4
S31500009510404B1A794E4B33F912304E4A1380414A6A
S3150000952053803C4B1A794C4B1A7001224B4B1A70E4
S31500009530384B9B79002B00F0A380484B00229A728F
S315000095409A71DA729A705A705A731A73DA71314BC9
S315000095501988424A91801B7A012B0CBF01220022F6
S315000095603E4B9A732B4BDB78012B00F0C4803B4BB0
S3150000957000221A7201225A72264B9B79002B40F068
S31500009580C080244BDB8823F480631B051B0DB3F5D9
S31500009590306F0CBF012300238DF80E30002008F039
S315000095A029FD1C4B9A788DF80A202B4A12788DF8E3
S315000095B00D205A798DF80B20DA788DF80C20B3F946
S315000095C00030B3F5A07FC0F2A08047F6FD73ADF87A
S315000095D0083002A808F014FDFFF7CAFEEBE60121E9
S315000095E0104A117059E7032008F09AF9154B1B78B9
S315000095F0154A127800904FF47A71002003F0B0FB00
S3150000960080B267E70023144A1370064A53808CE73A
S31500009610380B00202080FF1F98000020A2000020A9
S315000096209A000020080B0020960000209C000020D5
S315000096303880FF1FA00000205494FF1F9D000020CB
S315000096405294FF1F5694FF1F5794FF1F4C94FF1F01
S315000096503894FF1FA4000020A1000020E80A002083
S31500009660042008F05DF92C4C208004F035F82B4BD3
S31500009670187122882A4B5A80142004F021F850E7EA
S31500009680284B1A78284B9A72244B9B78012B04D0CE
S31500009690224BDB7913F0010F21D00122224B9A7164
S315000096A01E4BDB7903F00B030B2B0CBF01220022B0
S315000096B01D4BDA721C4B00229A7001225A70174B0E
S315000096C05B7A83B1184B5A73144B9B7A7BB1012298
S315000096D0154B1A73114B5A79134BDA7137E700227F
S315000096E0114B9A71DCE700220F4B5A73ECE700220C
S315000096F00D4B1A73EEE70C4B01221A7200225A72B6
S315000097003AE7022008F076FC66E7AA2BD8BF47F6B0
S31500009710FE73ADF808305CE7A40000202080FF1F30
S31500009720080B0020A1000020E80A002010B5094B14
S3150000973000241C705C70084B1C722146074802F01E
S315000097407DFD074B1C70074B1C70FFF7F3FD064BA6
S315000097501C8010BDCC0A00202080FF1F9600002030
S315000097609C000020A10000209E000020031FDBB209
S31500009770022B20D9A0F10803DBB2032B01D802206B
S315000097807047A0F10C03DBB2022B01D8032070470F
S31500009790A0F11003DBB2022B01D804207047A0F120
S315000097A01403DBB2022B01D80520704717280CBF23
S315000097B006200020704701207047C31EDBB2042B31
S315000097C009D9A0F10803DBB2012B06D90D280CBF7D
S315000097D002200020704701207047022070470000D9
S315000097E0134BDB7C013B042B20D8DFE803F0030995
S315000097F00F141A000E4B00225A710122DA707047BC
S315000098000B4B00225A710122DA707047084B012275
S315000098105A71DA707047064B02225A710022DA70CA
S315000098207047034B02225A710022DA70704700BF5C
S315000098302080FF1F10B5A64B9B79012B5DD0A44B52
S31500009840187BFFF793FF0446A24BB3F9003013F1E0
S31500009850460F02DB0021A04A117013F1770F02DADE
S3150000986001229D4B1A709D4B1B78A34257D0984BF3
S31500009870DB7C002B43D00021994802F0DFFC944B9F
S315000098800022DA749A749B79012B40F08580904B04
S3150000989000229A705A735A748E4BB3F90020952A97
S315000098A040F39C8100218F4B197093B2C82B94BF53
S315000098B0002001208C49087046339BB2DC2B94BFF4
S315000098C000210121894B1970962A00F3908100220C
S315000098D0874B1A707E4B5B7C033B0A2B00F29D8103
S315000098E0DFE813F0950195019501AB01AB01B301DA
S315000098F0B3019B019B019B01B3010024A4E74FF434
S315000099001671774802F09AFC68B1714BDC74734AA1
S3150000991014701A7B9A742046FFF762FF03E06C4BC3
S31500009920DC741A7B9A746A4B9B79012BAFD0684B17
S315000099309B7C023B152B2FD801A252F823F000BFC7
S31500009940CD99000099990000019A0000019A000043
S31500009950019A0000999900007B9A00007B9A00000A
S315000099607B9A00007B9A00000F9B00000F9B000073
S315000099700F9B000099990000599B0000599B00001D
S31500009980599B0000999900009B9B00009B9B00003F
S315000099909B9B000099980000564B32221A805A80F1
S315000099A000229A805A814FF42071D980FA211981B8
S315000099B01A735A739A73DA731A745A769A835A74A4
S315000099C0434B012159745A759A7565E7494B322202
S315000099D01A805A8000229A805A814FF42071D980C9
S315000099E0FA2119811A735A7301219973D97319745B
S315000099F05A769A835A74364B59745A759A754BE748
S31500009A003D4B5B78FBB1344B1B78C3B10A22304B1C
S31500009A105A74384B64221A8000225A809A805A81DE
S31500009A204FF42071D980FA2119811A735A730121D2
S31500009A309973D973197459769A835A742CE7092243
S31500009A40234B5A74E5E7224B9B78012B06D02A4B11
S31500009A501B7873B104221E4B5A74DAE7264B1B7827
S31500009A601BB105221A4B5A74D3E70322184B5A74BA
S31500009A70CFE70022164B5A74CBE71F4B5B78FBB13E
S31500009A80154B1B78C3B10A22114B5A74194B642229
S31500009A901A8000225A809A805A814FF42071D98008
S31500009AA0FA2119811A735A7301219973D97319749A
S31500009AB059769A835A74EFE60922054B5A74E5E7FC
S31500009AC00D4B1B78D3B10422014B5A74DEE700BF5D
S31500009AD02080FF1F3880FF1FBA000020A80000204A
S31500009AE0B2000020BC000020BD000020BE00002007
S31500009AF0BF0000209C0B0020140B00205D4B9B78C0
S31500009B00012B0CBF062200225A4B5A74BEE75A4B51
S31500009B105B7853B1594B1B781BB10A22554B5A74CB
S31500009B20BAE60922534B5A74B6E6534B1B781BB15F
S31500009B300422504B5A74AFE64E4B9B78012B07D04C
S31500009B404C4B5B7B012B03D000224A4B5A74A3E695
S31500009B500722484B5A749FE6474B1B781BB10422D9
S31500009B60444B5A7498E6434B9B78012B06D0424BE4
S31500009B705B7873B109223F4B5A748DE63E4B5B7896
S31500009B801BB10D223B4B5A7486E60822394B5A7498
S31500009B9082E60022374B5A747EE6374B1B781BB1A0
S31500009BA00422344B5A7477E6324B5B7B012B06D08A
S31500009BB0314B5B7873B10A222E4B5A746CE62E4BEE
S31500009BC05B781BB10E222B4B5A7465E60C22294B8F
S31500009BD05A7461E60022274B5A745DE6284B5B8A6D
S31500009BE0002B7FF462AE0121264B19705DE601223F
S31500009BF0254B1A701F4B5B7C033B0B2B0DD8DFE804
S31500009C0003F00606061C1C2424350C3524351D4B92
S31500009C101B7813B10022174B5A74164C607CFFF761
S31500009C20CCFD2075194B1B78012B16D0022B17D0B3
S31500009C30104B1A7D154B1A7010BD154B1B78002B57
S31500009C40EBD000220B4B5A74E7E7124B1B78002B24
S31500009C50E3D00022074B5A74DFE70228E8D101E07F
S31500009C600128E5D10022034B1A75E1E70022014BDA
S31500009C705A74D2E72080FF1F140B0020BA00002080
S31500009C801C0B0020BC000020BF000020C2000020EA
S31500009C90BD000020BE000020F0B583B000F0CCFE71
S31500009CA0FFF728FA9E4B5B7C032B23D0052B63D052
S31500009CB0042B00F0A980062B00F0CC80072B00F0C7
S31500009CC0E980082B00F05A810D2B00F0BA81092B90
S31500009CD000F015820C2B00F049820E2B00F0A882B2
S31500009CE00A2B00F0E5828E4A0023537593758D4A40
S31500009CF013763FE08A4E002474750121B175B57C58
S31500009D00043D2DB28848894B33F815300380884BC3
S31500009D109A884280B3F90030B3F5D77FA8BF4FF4D5
S31500009D20D773FA2BB8BFFA23A3F5D772814BB3F9D1
S31500009D30003003FB02F3804A82FB0372DB17C3EB9E
S31500009D40A2033279062A28BF0622043A7B4EB6F9C8
S31500009D5000607B4F37F8155006FB025213444381CF
S31500009D60704B5C825976774A1288DA83764A128873
S31500009D701A84197603B0F0BD694E01207075B0756E
S31500009D8068490876B57C043D2DB2674C674B33F8BD
S31500009D9015302380664B9A886280B3F90030B3F59C
S31500009DA0D77FA8BF4FF4D773FA2BB8BFFA23A3F512
S31500009DB0D772604BB3F9003003FB02F35E4A82FBB5
S31500009DC00372DB17C3EBA2033279062A28BF0622E9
S31500009DD0043A5A4EB6F90060594F37F8155006FB4B
S31500009DE002521344638100234B82584B1B88CB835A
S31500009DF0554B1B880B84C873554B1B78032BB9D95D
S31500009E000B4658745876B5E7454B01225A75002023
S31500009E109875444B1A7644494E4CA58A0D80248A7F
S31500009E204C804D4C24884C8158824C490988D983F2
S31500009E30454909881984DA73454B1B78032B03D9E6
S31500009E40384B5A745A7695E7364B00225A761A766C
S31500009E505A748FE7324B00225A7501219975314A9F
S31500009E60117631481E240480314CA48844809B7CA2
S31500009E70083B1BB23A4C34F813404481394830F859
S31500009E801330538251762F4B1B88D3832E4B1B885E
S31500009E9013846FE7224B00225A759A75214A2F497F
S31500009EA00988D183284909881184997809B1012242
S31500009EB09A751B4B5B7B1BB1194A937D02339375D5
S31500009EC0194A1E2313801A4B9B885380144B9B7C84
S31500009ED0083B1BB2244830F813005081234A32F85D
S31500009EE01300104A508201291CBF0E4A00215176E8
S31500009EF011761F4A1F4931F8131011800C49C98881
S31500009F0051801D4931F813305381054B5B7B1BB1E2
S31500009F100122044B9A832DE70022024B9A8329E7FC
S31500009F202080FF1F9C0B0020E80B00208094FF1F61
S31500009F303880FF1F5A94FF1F676666665C94FF1F92
S31500009F407894FF1FD894FF1FDC94FF1FCE94FF1F49
S31500009F50C00B0020880A0020C894FF1FD694FF1F5C
S31500009F608894FF1F9094FF1FB094FF1FB894FF1FA3
S31500009F70480B0020C094FF1FA894FF1F9B4D002292
S31500009F806A750223AB759A4E3376ADF800203222FD
S31500009F90ADF80220974A116802AA42F8041D9649B4
S31500009FA00988F183954C6946B4F9000002F082FFF6
S31500009FB03084AA7C0C3A12B2914B924931F81210B5
S31500009FC01980E1885980B4F9003003F146018E4BBF
S31500009FD0B3F9003003FB01F38C4981FB0301DB1766
S31500009FE0A3EBA1038A4931F8122013441BB2B3F53F
S31500009FF0487F1BDB824A538181497C4A1379023BA5
S3150000A0008448B0F90040488904FB03034B814FF4B0
S3150000A0107A71774B59829378012B0CD0744B0022BE
S3150000A0205A761A760122724BDA73A3E64FF4487217
S3150000A030734B5A81E0E76E4B01225A7602221A765A
S3150000A040F0E76A4B02225A759A7569490A76012227
S3150000A0504A769A7C0C3A12B269496A4B33F8123046
S3150000A0600B80664BD8884880B3F9000000F14601A2
S3150000A070654BB3F9003003FB01F3644981FB0341EF
S3150000A080DB17A3EBA103624931F8122013441BB27C
S3150000A090B3F5487F2EDB5A4A53815949534A1379FF
S3150000A0A0023B5C4CB4F900504C8905FB03434B81E1
S3150000A0B04FF47A714E4B59829378012B03D04C4B57
S3150000A0C000225A761A760023ADF800303223ADF816
S3150000A0D00230484B1B6802AA42F8043D0223694637
S3150000A0E002F0E8FE424B1884434A1288DA830122C2
S3150000A0F0DA733FE64FF44872414B5A81CDE73B4B4A
S3150000A10002225A750021997539490A763C4A424815
S3150000A110848A1480008A50804048008850814FF419
S3150000A1207A724A829B78012B1DD0314B00225A76D7
S3150000A1301A760023ADF800303223ADF802302D4BED
S3150000A1401B6802AA42F8043D022369462B48B0F96F
S3150000A150000002F0AFFE264B1884274A1288DA83E5
S3150000A1600122DA7306E601224A76E2E71F49002257
S3150000A1704A7502238B751E4B1A765A7601229A83EC
S3150000A1808B7C143B1BB22648264A32F813200280E9
S3150000A1901A4AD4884480B2F9002002F1C800224A43
S3150000A1A0128812FB00F2214830F813309B1A9AB23B
S3150000A1B00B79052B02D906210C4B19710B4B1B7918
S3150000A1C0033B1449B1F9001001FB03231BB2B3F59D
S3150000A1D0967F08DC4FF49672114B5A814FF47A72CF
S3150000A1E0034B5A82C6E50E4A5381F7E72080FF1FCC
S3150000A1F09C0B0020385A0100DA94FF1F3880FF1F9D
S3150000A200700B0020A094FF1F5A94FF1F67666666B6
S3150000A2109894FF1F5C94FF1F880A0020CA94FF1FB2
S3150000A220480B00206894FF1F5E94FF1F6094FF1F79
S3150000A230384902234B758B75374B00221A765A76AE
S3150000A24001229A838B7C143B1BB23448344A32F881
S3150000A25013200280334AD4884480B2F9002002F1E8
S3150000A260C800314A128812FB00F2304830F8133029
S3150000A2709B1A9AB20B79052B02D90621254B197127
S3150000A280244B1B79033B2A49B1F9001001FB032338
S3150000A2901BB2B3F5967F08DC4FF496721F4B5A81BA
S3150000A2A04FF47A721C4B5A8264E51C4A5381F7E7D5
S3150000A2B0184B02225A7500219975174A1176517664
S3150000A2C001219183154A1B49888A1080098A518089
S3150000A2D0194AB2F900201B79052B02D906210D4B2C
S3150000A2E019710C4B1B79033B1149B1F9001001FBA5
S3150000A2F003231BB2B3F5967F08DC4FF49672074B27
S3150000A3005A814FF47A72044B5A8233E5034A5381D9
S3150000A310F7E700BF2080FF1F9C0B0020480B0020A2
S3150000A3206894FF1F3880FF1F5E94FF1F6094FF1F15
S3150000A3305C94FF1F880A0020CC94FF1F10B500F024
S3150000A3407BFBFEF7F9FF984BB3F90430974AB2F955
S3150000A35000209A4202DC0021954A1170954AB2F912
S3150000A36000209A4202DB0122914B1A70924BB3F9FC
S3150000A3700A30B3F5967F07DD8F4AB2F90620D21A66
S3150000A380B2F5FA7F40F3BF818C4A528A002A40F028
S3150000A390BD8101218A4A1170C82B07DD864AB2F9B0
S3150000A3A00620D31AB3F5FA7F40F3B3810122854B19
S3150000A3B01A70AEE1804AB2F90620D31AB3F5FA7FD5
S3150000A3C040F3A7817D4B5B8A002BEFD0A1E17E4A4B
S3150000A3D0527D12F0010F40F0B48113F0020F52D0FB
S3150000A3E001227A4B9A76774B1B78002B54D1784B07
S3150000A3F01B78002B50D1774B83F824205A8A764B52
S3150000A4005A8205E00023754A82F82430724A538244
S3150000A4100A21734801F012FF00284DD0714B1A78BB
S3150000A4200132D2B21A707049634BDB880888034444
S3150000A4301BB20B806D49B1F900108A423CDB00214A
S3150000A440684A11706A4A82FB0302DB17C3EBA20358
S3150000A4501BB2594AD380644A1180664A1278012A8F
S3150000A46047D0022A6FD040F63402934220DD534B88
S3150000A4705B8AB3F57A7F16DDC83B5F4A13800122FB
S3150000A4805C4B1A701CE012F0020FA9D100234F4A50
S3150000A4909376514A5382BBE700234E4A82F8243012
S3150000A4A04D4A5382B4E74FF44872534B1A80E6E79D
S3150000A4B042F21072504B1A804E4B1B78022B45D03D
S3150000A4C04E4A136823F001031360404B9B7E002B1A
S3150000A4D000F050810122404B1A76494B1B78013B14
S3150000A4E0042B3CD8DFE813F0560092009B00F100E5
S3150000A4F0FC0040F63402934215DD304B5B8A40F295
S3150000A5005232934203DC02223A4B1A701EE0B3F534
S3150000A5107A7F03DDC83B384A1380D1E74FF448728F
S3150000A520354B1A80CCE7B3F5C86FC9DA324A1388BF
S3150000A53064331BB2138042F210729342C0DD0022D4
S3150000A5402C4B1A70BCE700222B4B1A800022224BA0
S3150000A5505A822A4A136843F001031360B5E70122C1
S3150000A560274B1A700021274801F068FE244B1B7800
S3150000A570032B54D0214A136843F00203136032219F
S3150000A580214801F00BFE002800F0B68000220B4B9C
S3150000A5905A8210BD0A211B4801F050FE0028E5D062
S3150000A5A00222174B1A70E5E73880FF1F5494FF1FED
S3150000A5B0B80000205294FF1F880A00201C0B0020C0
S3150000A5C0B6000020B70000202080FF1F9C0B002053
S3150000A5D0B9000020700B0020C80B0020E80B0020FB
S3150000A5E0B0000020C3000020C00000205894FF1FC8
S3150000A5F067666666A7000020D494FF1F980B0020AC
S3150000A600A6000020AA000020B40000200A21644809
S3150000A61001F014FE0028A9D00322624B1A70624B87
S3150000A620B3F91240614BB3F90630A342A8BF2346E3
S3150000A6305F4AD28B9342C8BF13B25D4AB2F920403B
S3150000A6405C4AB2F900209C42B8BF1C469442A8BF9F
S3150000A6501446594A136823F00203136032215748FF
S3150000A66001F09CFD002846D0002C8FD0544B588A10
S3150000A670001B00B202F0E7FB1D2840F38F80504B11
S3150000A6805B8AA34239DD1E3B4D4A53824C4B5B8AA3
S3150000A690B3F5487F80F282804FF44872484B5A8265
S3150000A6A010BD424BB3F9043053B932213C4801F096
S3150000A6B0C5FD00283FF45AAF04223A4B1A7059E7F9
S3150000A6C00021374801F0BAFD50E70A21344801F06D
S3150000A6D0B5FD00283FF44AAF0522324B1A7049E710
S3150000A6E00A212F4801F0AAFD00283FF43FAF0022BF
S3150000A6F02C4B1A703EE710BD10BDA342C6DA1E33BE
S3150000A7002F4A5382C2E7C82B03DC5BE6C82B3FF710
S3150000A71051AE2C4B1B8803F1460292B2DC2A02D8BA
S3150000A7200021294A117077339BB2B3F59F7F02D976
S3150000A7300122254B1A70254B9B7D13F0010F3FF428
S3150000A74046AE01221A4B9A76214B1B78002B7FF4DA
S3150000A75059AE204B1B78002B7FF454AE1E4B1B7852
S3150000A760002B7FF44FAE1D4B83F824205A8A0E4BE4
S3150000A7705A824DE60B4B1B78013B042B3FF6F2AE9B
S3150000A78001A252F823F000BF95A500000DA6000017
S3150000A790A3A60000CBA60000E1A6000010BD00BFE6
S3150000A7A0AA000020A6000020C80B0020140B0020E1
S3150000A7B09C0B0020D494FF1F980B0020B4000020AF
S3150000A7C01C0B00203880FF1FB90000202080FF1FCF
S3150000A7D0B8000020B6000020BC000020E80B0020D6
S3150000A7E008B57D4B5B7C042B1DD07C4B1B7E022B5E
S3150000A7F07B4B0CBF012200221A735A73794B1B78CC
S3150000A800022B16D0042B14D0032B46D0744B1B7B83
S3150000A81013B90022744B1A73714B5B7B7BB9002210
S3150000A820714B5A730BE06E4B00221A7301225A7356
S3150000A830E4E76D4B6A4A117B1973527B5A73664B78
S3150000A8405B7C3BB1654B1B7E022B36D0674B1A886F
S3150000A850634BDA80624BDA88634BDA805E4B5B7C53
S3150000A8604BB15D4B9B7C013BDBB2012B2FD95A4B85
S3150000A8705B7D012B2FD05A4B1A895B4B1A81564BA5
S3150000A8805B7C5A1E0D2A58D8DFE802F054547D7DB1
S3150000A890547D7D7D7979577D5454534B9A89504B1D
S3150000A8A09B899A42CBD04E4B5B8A002BC7D0504A2D
S3150000A8B0136843F001031360C1E74E4A4E494A4804
S3150000A8C0B0F9120002F0F6FA454BD880C2E7FA2238
S3150000A8D0434B1A81CFE7434B1B78022B21D0042B25
S3150000A8E01FD0032BC7D1454B1978454801F0BAFC58
S3150000A8F00028C0D0434BB3F91020B3F91430143BF1
S3150000A9009A42B8DC364A404B197813895B1A9BB2D7
S3150000A91013813E4AB2F900209342BCBF304B1A81E4
S3150000A920A9E73B4B1A882E4B1A810021344801F0C7
S3150000A93099FCA0E732212A4A1180294A11882A4A1D
S3150000A940118053B1013BDBB2012B20D9244BDB7BB9
S3150000A950012B20D00022224B5A80214BDA7B2D4B33
S3150000A9601A701D4B5B7C013B0D2B2CD8DFE803F0E6
S3150000A970282830303030303030302B3030306421C1
S3150000A980174A1180D9E70021154A1180D5E73222EE
S3150000A990134B5A80E1E71F4B1B783BB93222104B11
S3150000A9A05A8000211C4801F05DFCD6E73C211A487C
S3150000A9B001F058FC0028D0D00022094B5A80CCE781
S3150000A9C00122074B9A80064B9A88074B9A8008BD4E
S3150000A9D00022034B9A80F6E72080FF1F9C0B002085
S3150000A9E0C80B0020A60000201C0B0020C694FF1FE9
S3150000A9F0E40B00207494FF1F7094FF1FDF94FF1F69
S3150000AA00AE000020880A0020DE94FF1FD294FF1FAC
S3150000AA10D094FF1FBB000020AC00002008B5FEF755
S3150000AA2009FFFFF739F9FFF789FCFEF763FBFFF72C
S3150000AA30D7FE08BD7047000008B50B4B93F82230CF
S3150000AA40012B05D00949084806F0FAF900B208BDFD
S3150000AA50054BB3F90220B3F900309A42F2DA02222A
S3150000AA60014B83F82220EDE7E80B0020E094FF1F5E
S3150000AA707047704708B507F0CDFA144A0023937162
S3150000AA80D37213729372937053701374137053735B
S3150000AA90137353729373D373D37193800C4A1370E9
S3150000AAA05380D371537213724FF47A61094801F0DF
S3150000AAB075FB30B10122084B1A70012000F0B2FA82
S3150000AAC003E0054B1B78002BF7D108BDE80A0020F0
S3150000AAD0080B0020C4000020C600002008B5002195
S3150000AAE0044801F05BFB0020034B187000F09AFA53
S3150000AAF008BD00BFC4000020C600002008B530B164
S3150000AB000122094B1A700022084B1A7006E0064B08
S3150000AB101B78002BF7D10122044B1A700021044840
S3150000AB2001F08CFB08BD00BFFC94FF1FC70000208E
S3150000AB30C800002010B50D4B1B78012B09D9002247
S3150000AB400B4B1A70012402F0DBF903F01BF82046C8
S3150000AB5010BD0A21074801F071FB10B10222034B18
S3150000AB601A70022007F046FA0024ECE7C70000201E
S3150000AB70FC94FF1FC800002010B4002808BF012065
S3150000AB800C4B1C7800230C490130C0B2132828BF97
S3150000AB9001200A1812F8012C144207D10133DBB246
S3150000ABA0122BF1D100205DF8044B7047122B28BF01
S3150000ABB00020F8E7FD94FF1F100C0020014B1870D1
S3150000ABC0704700BFCA00002038B502F0DBFF02F074
S3150000ABD097F9B0F5006F0CD1FF227E4B1A707E4AB2
S3150000ABE0D37943F00F03D371002007F003FA012055
S3150000ABF038BD0446774B1B78052BF0D8DFE803F009
S3150000AC0003143E7B86990021744801F017FB00244B
S3150000AC10734B1C700125734B1D70204607F0EAF933
S3150000AC206C4B1D70204638BD0A216C4801F006FBAE
S3150000AC3030B16B4A13780133DBB21370052B0DD894
S3150000AC40674B1B7813F0010F0FD006F039FF07F0A2
S3150000AC50FBF9022007F0CEF9002038BD02225D4B39
S3150000AC601A7000205E4B187038BD06F02FFF07F0F3
S3150000AC70F9F9012007F0BEF9002038BD0A2157482E
S3150000AC8001F0DCFA30B1564A13780133DBB21370A7
S3150000AC900F2B15D8524B1B78082B1AD90F210020E1
S3150000ACA001F014FC0F21012001F010FC0F210220FD
S3150000ACB001F00CFC0021084601F04AFB002038BDDB
S3150000ACC00322444B1A700020454B187007F092F986
S3150000ACD0E0E7F021002001F0F9FBF021012001F06E
S3150000ACE0F5FBF021022001F0F1FB0121002001F02B
S3150000ACF02FFB002038BD0A2007F070F9012006F06E
S3150000AD00EDFE0422334B1A70002038BD06F0ECFF2E
S3150000AD1000285DD105222F4B1A700024324B1C707F
S3150000AD20324B1C702046FFF727FF314B1870204628
S3150000AD3038BD0521294801F081FA38B12A4B1B7824
S3150000AD400133DBB2042B18D8274A1370264B1B7825
S3150000AD5013F0010F1CD0002007F04CF9244B187893
S3150000AD6000EB8000400007F039F9102C1BD0112CA5
S3150000AD7029D0012C10D0002038BD00221A4B1A70A1
S3150000AD801A4B1B7823B91A4D2878FFF7F5FE287061
S3150000AD90022007F02FF9E8E7154C2078FFF7ECFEC4
S3150000ADA02070002038BD0F4B1B78012B04D00122E8
S3150000ADB00C4B1A70002038BD08220A4B1A7000206E
S3150000ADC00B4B187038BDFF2000F02AFC002038BD60
S3150000ADD0002038BDCA0000202080FF1FCC000020C4
S3150000ADE0D1000020FD94FF1FD0000020CF000020DE
S3150000ADF0CE00002008B5FFF771FE06F055FE08BD2F
S3150000AE0008B500F04FFE01F049FB06F031FE00F0F8
S3150000AE1085FF08BD08B501F093FF00F097FF01F02C
S3150000AE201FF808BD08B501F007F800F03BFE08BDA5
S3150000AE3008B54B1E032B11D8DFE803F00A020D05F7
S3150000AE40FFF7DEFF08BD03280DD0FFF7D3FF08BDCF
S3150000AE50FFF7E0FF08BDFFF70CFE08BD012802D191
S3150000AE6009B9FFF7DFFF08BD10B5002002F086FF25
S3150000AE70044605F0B3FD0021594801F08FF91E2163
S3150000AE80584801F08BF960B10022574B1A70574BA6
S3150000AE901B78013B042B0ED8DFE803F08B9E51375D
S3150000AEA07C00524B1B78013B042B04D8DFE803F0EF
S3150000AEB08121472D72004FF4FA714D4801F06EF969
S3150000AEC0002800F08980012005F0BAFD464B1B786A
S3150000AED03BB9464C02212078FFF7AAFF02232370D4
S3150000AEE010BD424C04212078FFF7A2FF04232370F3
S3150000AEF010BD3D4B1B78012B6ED104210220FFF7BC
S3150000AF0097FF0422394B1A7010BD374B1B7873B16B
S3150000AF10384B1B78002B5FD0B4F5167F5CDA334CC8
S3150000AF2003212078FFF784FF0323237010BD02213D
S3150000AF300420FFF77DFF02222C4B1A70E8E72A4B0C
S3150000AF401B78BBB12B4B1B78E3B105F041FD002804
S3150000AF5042D1264C05212078FFF76AFF052323708E
S3150000AF600021234801F01AF9002005F069FD05F0DB
S3150000AF7075FD10BD02210320FFF75AFF02221B4B6D
S3150000AF801A70DFE7194C04212078FFF751FF0423DC
S3150000AF902370DAE76421164801F000F9E0B10120D8
S3150000AFA005F04EFD114C01212078FFF741FF0123EA
S3150000AFB02370002401F07AF805F010FD05F008FD75
S3150000AFC028B9204603F034F8B0F52F7FF2DD05F0FE
S3150000AFD0FFFC10B901F073F810BD01F070F810BD58
S3150000AFE0D2000020D4000020D8000020D900002084
S3150000AFF0D6000020FE94FF1F014B1878704700BF53
S3150000B000D900002010B5064C00212078FFF710FF6C
S3150000B0100023237005F02CFD05F0C0F910BD00BF1C
S3150000B020D9000020014B1870704700BFFE94FF1F27
S3150000B0307047112801D00020704708B505F092FC32
S3150000B040002814BFC120802008BD000038B5044682
S3150000B050002002F093FE0A4A61000B1902EB8303FB
S3150000B060084D85FB00C5C017C0EBA50098704FF4CE
S3150000B070807098608C2018711A46FF23D37038BDF3
S3150000B080240C0020676666662DE9F04786B0044604
S3150000B09003A806F07DFCBDF90CA0BDF90E90BDF924
S3150000B0A01060684606F082FC9DF808709DF80980DD
S3150000B0B0644B1A88227093F901206270DB7913F0D1
S3150000B0C0020F12BF55235F4B5B79A3705D4BDB7993
S3150000B0D013F0040F12BF55235A4BDB78E370594B1C
S3150000B0E0DB7913F0080F12BF5523564B1B792371DA
S3150000B0F0544BDB7913F0010F12BF5523514B9B784C
S3150000B1006371514DB5F90230A3711B12E37103202F
S3150000B11002F034FE2072032002F030FE001260724C
S3150000B120B5F90030A3721B12E372042002F026FE6A
S3150000B1302073042002F022FE00126073B5F9043079
S3150000B140A3731B12E373B5F9063023741B126374E1
S3150000B1506B7AA37484F813A04FEA2A2A84F814A001
S3150000B16084F81590C9F3072984F81690E675361207
S3150000B17026762B7A6376BDF90430344A82FB0312B5
S3150000B180DB17C3EBA203A37602F0A6FAE076304BF8
S3150000B1901B7823772B4BDA7862775B79A3770020CD
S3150000B1A001F0F8F9E077002001F006FA84F82000B3
S3150000B1B0012001F0EFF984F82100012001F0FCF9EB
S3150000B1C084F82200022001F0E5F984F82300022029
S3150000B1D001F0F2F984F8240037B9B8F1000F2CD148
S3150000B1E0002384F8253001E084F82570164BB3F966
S3150000B1F00A2084F82620121284F82720B3F90C209E
S3150000B20084F82820121284F82920B3F9142084F82F
S3150000B2102A20121284F82B20B3F9102084F82C204F
S3150000B220121284F82D20B3F90E3084F82E301B123A
S3150000B23084F82F3006B0BDE8F08708F1100884F8CE
S3150000B2402580D3E72080FF1F3880FF1F676666666C
S3150000B250080B0020F8B50B4B196891B1064600257E
S3150000B2602C461F4607EBC5052A79304602F054FCEA
S3150000B2702B791E44013424B2254657F83410002990
S3150000B280F0D1F8BD0095FF1F2DE9F04180460E4B29
S3150000B290186890B1464600252C461F4607EBC505A3
S3150000B2A02A79314602F038FC2B791E44013424B247
S3150000B2B0254657F834000028F0D14046FDF7ADFC8E
S3150000B2C00120BDE8F08100BF0095FF1F704708B55B
S3150000B2D0FDF7A9FC012008BD38B50446394B417875
S3150000B2E0027802EB01221A8082789A70C278DA70AC
S3150000B2F002795A7142791A7182791A72324BC2797D
S3150000B3001A70417A027A02EB01225A80827A9A7185
S3150000B310C27A5A71027B1A71427BDA71122200F1EB
S3150000B3200E012A4802F0F8FB294D0A2204F1E60133
S3150000B330284602F0F1FB2B7813F0040004D0214AD2
S3150000B340D1796FF30001D17113F0080104D01D4AC1
S3150000B350D4796FF38204D47113F0100204D0194C1F
S3150000B360E5796FF34105E57113F0200F04D0154C14
S3150000B370E5796FF3C305E57113F0020F04D0114BA5
S3150000B380DC796FF30004DC7120B10E4BD8796FF3D2
S3150000B3908200D87121B10B4BD9796FF34101D97174
S3150000B3A04AB1084BDA796FF3C302DA711B7923B11C
S3150000B3B00022044B9A71012038BD0122014B9A717B
S3150000B3C0F9E700BF2080FF1FFC0A0020D00A0020FA
S3150000B3D03C0B002010B50446154B1A88027093F9F1
S3150000B3E0012042709A788270DA78C2705A790271B6
S3150000B3F01A7942711B7A83710E4B1A78C271B3F9AE
S3150000B40002200272121242729A7982725A79C272BA
S3150000B4101A790273DB794373122207490E3002F060
S3150000B4207BFB0A22054904F1E60002F075FB10BD1C
S3150000B4302080FF1F080B00203880FF1F3C0B0020D8
S3150000B440254B5B7813F0100F03D0244A1188244A49
S3150000B450118013F0200F03D0204A5188204A5180D2
S3150000B46013F0400F03D01D4A91881D4A918013F0B6
S3150000B470800F2CD1184B9B7813F0010F03D0174A7D
S3150000B480117A174A117213F0020F03D0134A517A38
S3150000B490134A517213F0040F03D0104A5189104A0F
S3150000B4A0518113F0080F03D00C4A91890C4A9181FF
S3150000B4B013F0100F03D0094AD189094AD18113F03C
S3150000B4C0200F03D0054B1A8A054B1A827047034B8F
S3150000B4D0DA88034BDA80CDE73C0B0020D00A002047
S3150000B4E03880FF1F174B1B7813F0400F03D0164A06
S3150000B4F01178164A117013F0800F1ED1114B5B782C
S3150000B50013F0010F03D0104A9179104A917113F08C
S3150000B510020F03D00C4A51790C4A517113F0040FF3
S3150000B52003D0094A1179094A117113F0080F03D0A3
S3150000B530054BDA79054BDA717047034B5A88034B92
S3150000B5405A80DBE73C0B0020FC0A0020080B002099
S3150000B550F8B5FDF723FBA8B91E4B187888B11E4A2B
S3150000B5601E490138531C53FA80F00024537823F007
S3150000B570030343F0400302F8013F01F8014F824202
S3150000B580F4D1F8BD164B174A02F1D804002612E092
S3150000B59012F8015C092D87BF21F0280119700135C9
S3150000B5A002F8015C1670197821F004011970013354
S3150000B5B00C32A24209D0197811F0400FF7D111F0E0
S3150000B5C0020FE5D002F8016CF1E70122064B1A7072
S3150000B5D0C2E700BFDA0000200F0C0020E3000020C5
S3150000B5E0100C0020250C0020C895FF1F08B5122856
S3150000B5F006D900200023074A1370074A137008BDB6
S3150000B600064B18700022044B1A70FFF7A1FF0120A9
S3150000B610F0E700BFDB000020F8000020DA00002081
S3150000B620FF2813D0164B1B78834228D95022154B7E
S3150000B6301A540022144B1A5400EB4000134B03EB30
S3150000B640800042700122124B1A70704730B40C4BC6
S3150000B6501C7884B10F4B10480C4A013C591C51FA16
S3150000B66084F45025002103F8015F00F8011F517092
S3150000B6700C32A342F7D10122054B1A7030BC704739
S3150000B680DA000020100C0020E4000020240C00202A
S3150000B690C895FF1F0F0C0020E30000202DE9F041A4
S3150000B6A00821B04800F07AFD90B90024AE4B1B8803
S3150000B6B0F92B0AD90022AC4B1A80AC4B1B7823B16C
S3150000B6C0AB4B1B78012B00F0F1802046BDE8F081E2
S3150000B6D0A54A138801331380002002F04FFB04466D
S3150000B6E0A34B1B78022B1ED0032B58D0012B10D056
S3150000B6F040F2DC519F4800F051FDD8B1A4F56173CA
S3150000B7009BB2B3F52F7F8CBF02220122984B1A7091
S3150000B71010E0A0F561739BB2B3F52F7F0AD9022220
S3150000B720934B1A7006E0A0F2B7339BB240F2562252
S3150000B73093422CD9B4F5FA7F47DA00228C4B1A7063
S3150000B7408D4B1B7813B901228B4B1A70002002F027
S3150000B75015FB0446A0F2F5139BB2B3F5C77F42D89A
S3150000B76040F21451854800F019FD10B10122844BB6
S3150000B7701A70B4F5C86F42DD40F21451814800F0EA
S3150000B7800DFD002846D001227F4B1A7042E00021B1
S3150000B790784800F003FD0322754B1A70CAE7A0F53E
S3150000B7A061739BB2B3F52F7F0AD84FF4FA717148D3
S3150000B7B000F0F4FC0028BDD001226D4B1A70B9E7E9
S3150000B7C000216C4800F0EAFCEFE740F2B6339C42F9
S3150000B7D0BCDD694B1B78012BB8D10022664B1A7071
S3150000B7E0FFF7B6FEB2E70021644800F0D7FC40F24E
S3150000B7F0B6339C42BDDD0022614B1A70B9E70021C9
S3150000B800604800F0CBFC40F20D639C4202DC002253
S3150000B8105D4B1A70564B1B780BB9FE2446E704F0B5
S3150000B8200FFD08B9FF2441E7584B1B78002B3BD08E
S3150000B8300024574F574EDFF8348186E0504B187876
S3150000B840012838D081283FD0C1283BD0002800F0FD
S3150000B850A580802808BF224671D1E223BB54B35C81
S3150000B86013F0100F17D123F04103B35467E0464B92
S3150000B8701878E5E7C1283BD005EB450301EB8303C8
S3150000B8805A7042E023F0500343F00103735501233D
S3150000B89088F8003049E023F05103B354012388F8B7
S3150000B8A000304CE0012401E70124FFE62F4B1A701B
S3150000B8B0FDF75CF909E725463B571B2B05DC0233F0
S3150000B8C03B553CE0254600E025461E237B55735D2F
S3150000B8D013F0020F20D143F00202725505EB450228
S3150000B8E02D4901EB820252780132D2B2012AC1D926
S3150000B8F005EB4502284901EB82020221517043F013
S3150000B9000A0373552046FFF7A1FB735D43F004035A
S3150000B9107355012388F80030735D13F0100FB1D111
S3150000B92023F0400343F001037355735D13F0200FBA
S3150000B93005D143F020037355012388F80030013404
S3150000B940E4B2124B1B78A342ACD9072C3FF476AF76
S3150000B950082C8CD0064B1B78012BF0D12046FFF724
S3150000B96068FB6DE7DC000020F6000020C895FF1F8D
S3150000B970DB000020DE000020F8000020E2000020AE
S3150000B980FA000020E0000020F9000020DA00002084
S3150000B990E4000020100C0020240C002022463B5717
S3150000B9A013F11C0FFFF659AF013B3B55C7E700BF2C
S3150000B9B008B500F0CCFB00F055FA00F0E1F800F015
S3150000B9C07BF8FFF71FFB00F0BEFB03E000F0A2F9D7
S3150000B9D000F038F800F0B3FB00F06AF900F028F840
S3150000B9E0FFF742FAFFF708FB0228EFD0FFF704FB48
S3150000B9F0042806D0FFF700FB0328EBD1FFF738F841
S3150000BA00E8E7FFF737F8E5E7084BF0221A8001214F
S3150000BA109971DA7902F0F4026FF38202DA71002288
S3150000BA209A7019715A71DA701A7270472080FF1F66
S3150000BA3008B5034B1B78022B01D0FDF763F808BD50
S3150000BA40FC0C002008B5154B1B78012B14D03BB11C
S3150000BA50022B14D00020114B1870FFF74FF808BDC9
S3150000BA60FFF768F80028FAD001220C4B1A7005F08F
S3150000BA7073FFFDF75BFE08BDFDF78AFC08BDFFF707
S3150000BA80A3F80028EBD00122044B1A70044BF022D5
S3150000BA901A80DA7942F00F02DA7108BDFC0C002038
S3150000BAA02080FF1F08B50020FFF728F80022014B71
S3150000BAB01A7008BDFC0C002008B500F091F928B9F1
S3150000BAC0FDF700F870B9FFF79FFF0BE0FFF79CFF4B
S3150000BAD01D4BC8221A805A824FF46172DA80FA220C
S3150000BAE09A825A80194B1B88AA3B9BB2962B02D985
S3150000BAF0F022164B1A80154B1B7913B90122134BF2
S3150000BB001A710023114A1372114A13705370114AA5
S3150000BB109371D3721372937293705370137413707C
S3150000BB205373137353729373D373D37193800A4A07
S3150000BB3013705380FF21917151711171D37153723A
S3150000BB401372FFF7AFFF08BD3880FF1F2080FF1F6D
S3150000BB50CC0A0020E80A0020080B002008B50222C3
S3150000BB60024B1A700020FFF729F808BDFC0C0020D4
S3150000BB70024A137801331370704700BFFE0000209D
S3150000BB8000B58FB0434B0993434B0A93434B0B933A
S3150000BB90434B0C930D93FCF771FF01210D2002F02E
S3150000BBA06FF809AB05220021032002F08BF800286C
S3150000BBB059D002220121642000F028FC002855D02B
S3150000BBC00121052000F052FC0121962000F098FB8F
S3150000BBD000284ED0334B93E803000790ADF82010B1
S3150000BBE007A9032001F03CF8002845D0062001F003
S3150000BBF0D1FA002843D01220FFF7F8FC2A4B059310
S3150000BC0000238DF80430ADF80C306423ADF808300D
S3150000BC101423ADF80A308DF80730ADF80E304FF426
S3150000BC207A73ADF8103008238DF80630F8238DF8B6
S3150000BC30183001A801F0E0FC06F0F4F901F098FFD5
S3150000BC4004F034FCFCF7D0FFFDF73AF8FDF720F8D6
S3150000BC5004F0FEFA154B9B78012B13D000F088F800
S3150000BC600FB05DF804FBFFF783FFA2E7FFF780FF45
S3150000BC70A6E7FFF77DFFADE7FFF77AFFB6E7FFF729
S3150000BC8077FFB8E70022094B9A70FCF7E9FF04F04A
S3150000BC9003FBE3E7F45A01008C5A0100C05A010085
S3150000BCA0585A01003C5A01003894FF1F680D0020C5
S3150000BCB008B500F087FA00F095FA02F0A9F801F04D
S3150000BCC085FA01F04DF900F0E1FA00F0FDFA04F012
S3150000BCD0A3FC02F013FF04F047FA02210C4800F01F
S3150000BCE091FA90B9FFF7FEFB06F0CAF906F0D6F90D
S3150000BCF005F01EFF05F068FEFFF7A2FB00F06CFCE6
S3150000BD0000F03CFB01F0EEFC08BD04F05BFBE9E74C
S3150000BD10FC00002008B506F081F908BD08B50A4BFD
S3150000BD205A6801325A605B69DAB2012A03D00649C1
S3150000BD300A6901320A6123F0FF0343F00103024A54
S3150000BD405361FDF71DF808BD0080FF1F08B5074BBE
S3150000BD505B69DAB2022A07D023F0FF0343F002033D
S3150000BD60024A5361FDF70CF808BD00BF0080FF1FB3
S3150000BD7008B5FDF715F888B1164B1A689A60164A89
S3150000BD8012681A60DA680132DA605B6923F47F426E
S3150000BD90DBB2022B16D00F4B5A6107E00D4B002287
S3150000BDA0DA600D490968996019605A61094A0023E9
S3150000BDB053601361094A1370064A536923F0FF035F
S3150000BDC0536108BD42F48072024B5A610122034B53
S3150000BDD01A70F1E70080FF1F000D0020040D0020FF
S3150000BDE0024B1868B0FA80F0400970471C80FF1FAC
S3150000BDF008B5002006F04EFC08BD00000D4B4FF0C4
S3150000BE00C062C3F8DC20D3F8DC2042F08042C3F8DD
S3150000BE10DC20A3F538339A6842F001029A600122C9
S3150000BE201A6149F640421A629A6A42F001029A621F
S3150000BE30704700BF0050064008B50749212006F0AC
S3150000BE40FBFA064B1A6842F001021A601A6842F0C1
S3150000BE5020021A6008BD00BF2499FF1F40F00F4062
S3150000BE607047000070B54A49002006F0F3F9002338
S3150000BE70484A0121484809F09BFC0021084609F080
S3150000BE80A5FC4649212006F0D7FAFFF7B7FF444C38
S3150000BE90D4F8EC3023F08043C4F8EC30D4F8EC301E
S3150000BEA043F08073C4F8EC30D4F8EC3043F08043B0
S3150000BEB0C4F8EC303B4B1A6842F05F021A601A6C09
S3150000BEC042F068021A640C265E640025C3F890509E
S3150000BED0C3F89450272006F011FCD4F89C3023F0C8
S3150000BEE08043C4F89C30D4F89C3043F08073C4F887
S3150000BEF09C30D4F89C3043F08043C4F89C302A4BE5
S3150000BF001A6842F05F021A601A6C42F068021A64FC
S3150000BF105E64C3F89050C3F89450282006F0EEFBF8
S3150000BF20D4F8E03023F08043C4F8E030D4F8E030B1
S3150000BF3043F08443C4F8E0301C4B5A6D42F00402CF
S3150000BF405A654FF400121A605D661D6740F69F72CF
S3150000BF509A6028225A634FF4FA629A631A6842F08A
S3150000BF6018021A60FFF768FF2A461149284606F0AC
S3150000BF7081FB2A460F493A2006F0A0FB302006F046
S3150000BF80BDFB3A2006F0BAFB284606F08DFB70BDD5
S3150000BF906C5F0100800A0020C49CFF1F2499FF1FCC
S3150000BFA00050064000B0034000700240008003408D
S3150000BFB07C5F0100F1BD000008B5094AD36843F073
S3150000BFC00103D36000F0E2F8064B1B680133042B33
S3150000BFD003D90022034B1A6008BD024A136008BD4C
S3150000BFE00070034004010020024A13680133136005
S3150000BFF0704700BF0001002008B5034B986C80B263
S3150000C00001F0C8FE08BD00BF00B0034008B5034BF1
S3150000C010986C80B201F0BEFE08BD00BF0070024001
S3150000C02008B50C289DBF054B195C01F07F011D2149
S3150000C030024B185CC009FCF7B5FB08BDCC95FF1F89
S3150000C04008B5012807D010B1022808D008BD002085
S3150000C05000F030FE08BD012000F02CFE08BD0220D5
S3150000C06000F028FE08BD08B501280AD018B102283C
S3150000C0700DD0002008BD01210A2001F055FEC0B2F6
S3150000C08008BD01210B2001F04FFEC0B208BD012101
S3150000C0900C2001F049FEC0B208BD00B1704708B5DA
S3150000C0A0022000F007FE08BD0020704708B500BF5B
S3150000C0B000F045F808BD08B509F08AFCFEE77047B0
S3150000C0C008B5002006F0E0F808BD000028B9064BC8
S3150000C0D01A686FF382021A607047034A136843F0C6
S3150000C0E004031360704700BF40F00F4028B9064BA9
S3150000C0F01A686FF341021A607047034A136843F0E7
S3150000C10002031360704700BF40F00F40024B1868EF
S3150000C110C0F3C000704700BF50F00F407047704733
S3150000C12001207047704708B5022001F027FE08BDC0
S3150000C13008B5002001F022FE08BD7047704708B51B
S3150000C140FFF7BEFF08BDEFF3108062B67047EFF34E
S3150000C150108072B670470068704762B110B4431E13
S3150000C160541E10FA84F011F8012B03F8012F8342B4
S3150000C170F9D15DF8044B704708B509F035FC80B27B
S3150000C18008BD08B509F040FC08BD0000024A138846
S3150000C19001331380704700BF16010020084B1A8830
S3150000C1A059B110B40388D31A9BB28B4226BF0280C2
S3150000C1B0012000205DF8044B704702800120704783
S3150000C1C01601002008B564210448FFF7E7FF18B1FF
S3150000C1D0034A13880133138008BD00BF12010020F3
S3150000C1E01001002008B54FF47A710448FFF7D6FF16
S3150000C1F018B1034A13880133138008BD0E010020CD
S3150000C2000C01002030B40C4B1C8871B10A46018821
S3150000C210631A9BB293420CD302F10A05AB42AEBF3E
S3150000C220048052180280012001E00480012030BC05
S3150000C23070470020FBE700BF16010020084B1A8854
S3150000C24059B110B40388D31A9BB28B4226BF028021
S3150000C250012000205DF8044B7047028001207047E2
S3150000C26010010020084B1A8859B110B40388D31A5C
S3150000C2709BB28B4226BF0280012000205DF8044B52
S3150000C28070470280012070470C01002010B50A4B50
S3150000C2901C6801341C6040F6B8310848FFF77EFF81
S3150000C2A030B1074B1C600023034A1360054A138014
S3150000C2B0034B186810BD00BF1C01002014010020AC
S3150000C2C0180100200A010020074B1988074A138825
S3150000C2D0CB1A9BB21180064A12889A423CBF044A86
S3150000C2E01380034B188870471601002008010020B0
S3150000C2F00A010020014B1888704700BF1601002074
S3150000C3004B1EDBB2022B16D8B8B10E4B18800E4B63
S3150000C3101970A1B170B40D4A00231E461546FF24BC
S3150000C320567005F8234001330432D8B28142F7D85B
S3150000C330084670BC704700207047002070470846CA
S3150000C340704700BFDA95FF1FDC95FF1F2001002014
S3150000C350084B1B7883420CD9074B13F820308B42CD
S3150000C36004D0054B03EB800301225A70024B03F8FD
S3150000C37020107047DC95FF1F200100202DE9F843AF
S3150000C3801F4B1B78002B39D01E4D00242746DFF8A3
S3150000C39078801B4E09E039462046FFF77EFE0134C1
S3150000C3A0E4B204353378A34228D9A94615F8013CEE
S3150000C3B0012B1BD0002BEED0022B02D005F8017CFE
S3150000C3C0EDE7B8F800102846FFF738FF58B915F81A
S3150000C3D0023CFF2B07D0012B0CBF01210221204676
S3150000C3E0FFF75BFEDBE709F8017CD8E7394628460C
S3150000C3F0FFF724FF022305F8013CD0E7BDE8F883E8
S3150000C400DC95FF1F22010020DA95FF1F531EDBB2C9
S3150000C410032B1AD8D9B1E0B110B4104C20801048C3
S3150000C420017010490A70B2B10F4C013303EBC3031C
S3150000C43004EB4303FF2003212070217112349C4238
S3150000C440FAD110465DF8044B704700207047084645
S3150000C4507047002070471046F4E700BFE295FF1FC3
S3150000C460E095FF1FE595FF1F180D0020831EDBB228
S3150000C470072B09D8042909D8884209D9054B188001
S3150000C480054B197001207047002070470020704747
S3150000C49000207047DE95FF1FE495FF1F094B1A78B1
S3150000C4A072B1013AD2B2013202EBC202064B03EB81
S3150000C4B0420205200021D870197112339342FAD135
S3150000C4C0704700BFE595FF1F180D002038B5FF29FE
S3150000C4D005D02E4B1B7883420FD8002038BD2C4A3E
S3150000C4E000EBC0035B00D118FF24D4540B79022B58
S3150000C4F044D00323CB70012038BD0C4605460629DF
S3150000C50038BF0624F92C28BFF92400EBC002204BC3
S3150000C51013F81200001B00F096FC032830DD05EB33
S3150000C520C5031B4A02EB43031B7963B905EBC5033D
S3150000C53002EB43030522DA7005EBC500144B03F842
S3150000C5401040012038BD012BF6D105EBC503104A7A
S3150000C55012F81330A34202D91A1B0A2A04DCA3429A
S3150000C56010D2E31A0A2B0FDD05EBC503084A02EBCE
S3150000C57043031222DA7000225A73DDE7012038BD28
S3150000C580012038BD002038BD002038BDE595FF1FCD
S3150000C590180D0020064B1B78834206D900EBC0001D
S3150000C5A0044B03EB4000407870470020704700BF03
S3150000C5B0E595FF1F180D0020054B1B78834283BFAE
S3150000C5C000EBC000034B13F810000020704700BFBB
S3150000C5D0E595FF1F180D00202DE9F84F0221BB48F5
S3150000C5E0FFF7DCFD002800F0D682B94B1B78002B44
S3150000C5F000F0D182B74E06F102094FF00008454619
S3150000C600DFF8E0B262E0FA2B84BFF82306F8083CB4
S3150000C61064E0FA288CBF02230123E3716CE0237ADD
S3150000C62013B1013B237267E00023E37164E000214C
S3150000C63004F8041CBF1AFF2A1CD094F807A0BAF10C
S3150000C640000F1ED114F8052C112A6DD8DFE812F060
S3150000C6507B009C00C200E7006C0028016C006C00A7
S3150000C6606C006F006C006C006C006C006C006C0061
S3150000C6706C000F01032304F8053CE379002B00F05E
S3150000C680CE80012304F8043C122304F8053C002163
S3150000C6902046FFF7D3FDE379012B0CBF04230823C3
S3150000C6A004F8033C4FF0000814F8073C04F8063C75
S3150000C6B041462846FFF7C4FC0135EDB2123609F1B2
S3150000C6C01209834B1B78AB4240F26582344616F85A
S3150000C6D0083C042B97D8072306F8083C2846FFF7A2
S3150000C6E0C2FC04F8070C431FDBB2F52B97D9237A5B
S3150000C6F0132B8ED80133237287B214F8082C14F842
S3150000C700063CFB1A9BB214F8041C03298FD80FF2BF
S3150000C710080C5CF821F000BF35C60000E9C800002F
S3150000C720FDC9000043CB0000092304F8053C0521A0
S3150000C7304846FFF783FD002800F01182002304F825
S3150000C740053CD046B0E703339BB2062B14D8BBF9A1
S3150000C75000309F4208DA5B429F4205DD002304F861
S3150000C760033C6371D0469FE7002FCCBF0223012311
S3150000C77004F8053CD04697E7102304F8033C112340
S3150000C78004F8053CD0468FE7534B93F900305B42E3
S3150000C7909F4214DA2379DBB9504B19882046FFF7FC
S3150000C7A04DFD002800F0DD81032304F8053C01233C
S3150000C7B004F8033C237901332371D04674E7092337
S3150000C7C004F8053C00214846FFF738FDD0466BE7E4
S3150000C7D01421E3E7404B93F90030BB4214DC237984
S3150000C7E0DBB93E4B19882046FFF728FD002800F0EC
S3150000C7F0BB81032304F8053C012304F8033C237999
S3150000C80001332371D0464FE7092304F8053C002184
S3150000C8104846FFF713FDD04646E71421E3E7BBF988
S3150000C82000309F4208DA5B429F4205DD002304F890
S3150000C830053C04F8033C37E72279294B1B789A42DA
S3150000C84005D3012304F8033C4FF000082CE76421CC
S3150000C8502046FFF7F3FC002800F08981002FB4BFC3
S3150000C8600123022304F8053C4FF000081CE70333BC
S3150000C8709BB2062B0ED80A214846FFF7DFFC00289C
S3150000C88000F07881002304F8053CA3790133A371F5
S3150000C890D04609E700214846FFF7D0FCD04603E71B
S3150000C8A000212046FFF7CAFC00232371A3712FB98C
S3150000C8B004F8053C04F8033CD046F5E6002FB4BF67
S3150000C8C00123022304F8053CD046EDE62C010020A6
S3150000C8D0E595FF1F200D0020E495FF1FE295FF1F41
S3150000C8E0E095FF1FDE95FF1F14F8053C133B032B55
S3150000C8F003D8DFE803F020415C7105212046FFF7ED
S3150000C9009DFC002800F03881E37963B16379012B3F
S3150000C91094BF1323162304F8053C6379013363712E
S3150000C9204FF00008C0E6152304F8053C0021204618
S3150000C930FFF784FCF1E764212046FFF77FFC10B186
S3150000C940142304F8053CE3792BB914F8073C343B6F
S3150000C950DBB2932B08D914F8033C042B0CBF4FF021
S3150000C96002084FF001089FE6152304F8053C002154
S3150000C9702046FFF763FCEEE714212046FFF75EFC36
S3150000C98020B1E3795BB1162304F8053C14F8033CA7
S3150000C990042B0CBF4FF001084FF0020884E6152364
S3150000C9A004F8053C00212046FFF748FCEEE7E37952
S3150000C9B013B1162304F8053C05212046FFF73EFC7B
S3150000C9C0002800F0DC804FF0000804F8058C04F81D
S3150000C9D0048C84F8048067E694F80780B8F1000FA9
S3150000C9E002D04FF000085FE6112304F8053C002151
S3150000C9F004F8041C2046FFF721FC55E614F8052C24
S3150000CA00183A092A06D8DFE802F0113B05050505A4
S3150000CA100505649600212046FFF710FC182304F84C
S3150000CA20053C4FF0000804F8028C3DE601339BB24A
S3150000CA30062B05D914F8023C43F0010304F8023C26
S3150000CA4064212046FFF7FAFB002800F09B8014F8CB
S3150000CA50073C092B0BD814F8023C43F0080304F8F2
S3150000CA60023C192304F8053C4FF001081CE6EF2BA5
S3150000CA70F7D814F8023C43F0040304F8023CF0E74C
S3150000CA8005339BB2062B05D914F8023C43F001038B
S3150000CA9004F8023C64212046FFF7D0FB002874D03E
S3150000CAA014F8073CFA2B0BD914F8023C43F00803A0
S3150000CAB004F8023C202304F8053C4FF00208F3E595
S3150000CAC00A2BF7D914F8023C43F0040304F8023C9D
S3150000CAD0F0E7BBF90030C3F1800290420EDD8033EF
S3150000CAE098420BDA14F8023C63F07F0304F8023C28
S3150000CAF0212304F8053C4FF0000804E010F0800FF5
S3150000CB0014D14FF0010864212046FFF797FB002857
S3150000CB103FF4CAAD14F8023C63F07D0304F8023C0E
S3150000CB20212304F8053C4FF00008BDE5812828BF05
S3150000CB304FF00208E7E7002304F8053C04F8043C3C
S3150000CB40B2E5FF2A24D0112304F8053C4FF0000873
S3150000CB5004F8048C41462046FFF770FBA4E5D04656
S3150000CB60A2E54FF001089FE54FF002089CE54FF063
S3150000CB70000899E5D04697E54FF0000894E54FF098
S3150000CB80000891E54FF001088EE54FF002088BE5AD
S3150000CB904FF0000888E5BDE8F88F00BF0C2801D9E2
S3150000CBA0FF20704770B406281ED90638C3B201208C
S3150000CBB001291CD000290CBF022400240BB1013B23
S3150000CBC0DBB25B00DBB29C40062202FA03F39AB2A8
S3150000CBD0084D41000E1835F8163023EA02032343A8
S3150000CBE025F8163070BC704703460020E0E70424A1
S3150000CBF0E4E700BF3C010020012800D97047F8B5E2
S3150000CC00164900EB400252008C188B5A43F420431D
S3150000CC1043F001039BB28B5262889A421DD00446B0
S3150000CC200D46460037187F00CA195380012200219D
S3150000CC30104600F06DFB00212046FFF76FFA00BF9B
S3150000CC4000BF1021E85B00F08BFB264405EB460590
S3150000CC50A88001212046FFF761FAF8BD3C010020BB
S3150000CC60124B1B78062B17D8F0B407464600002453
S3150000CC70012023460E4DCA5C2A55013AD2B20C2A2F
S3150000CC8028BF00200133DBB21C46B342F3DD40B1BE
S3150000CC90064B1F70F0BC704700200022034B1A7031
S3150000CCA070470022014B1A70F4E700BF48010020CC
S3150000CCB03001002070B5204B1B78834294BF0024BE
S3150000CCC001241E4B13F8106003EB40035D78012925
S3150000CCD011D0022918D000213046FFF75FFF00214E
S3150000CCE02846FFF75BFF062E1BD9062D15D9012016
S3150000CCF0FFF782FF1AE001213046FFF74FFF0021C0
S3150000CD002846FFF74BFFEEE700213046FFF746FFC8
S3150000CD1001212846FFF742FFE5E70020FFF76CFFF9
S3150000CD20E5E7062D04D80020FFF766FF204670BD14
S3150000CD300020FFF761FFDAE74801002030010020FC
S3150000CD4038B5064C4AF6AB2525800020FFF754FF80
S3150000CD50E5800120FFF750FF38BD00BF3C010020F1
S3150000CD6010B4BDF90440844211D08C4213D08842DD
S3150000CD700DD09B1A241A03FB04F3091A93FBF1F056
S3150000CD8001FB10335B00024493FBF1F31A4410B22B
S3150000CD905DF8044B70471A46F9E710B483B91C4690
S3150000CDA0FAB10B78834288BF234616D8234601334F
S3150000CDB0DBB29A4211D011F8014F8442F7D90CE048
S3150000CDC08AB10B78834210D300230133DBB29A4237
S3150000CDD003D011F8014F8442F7D218465DF8044B90
S3150000CDE070471346F9E71346F7E70023F5E710B453
S3150000CDF08BB91C460AB3B1F900308342C8BF23463B
S3150000CE0017DC23460133DBB29A4212D031F9024FC6
S3150000CE108442F7DD0DE092B1B1F90030834210DBB8
S3150000CE2000230133DBB29A4203D031F9024F844228
S3150000CE30F7DA18465DF8044B70471346F9E71346D0
S3150000CE40F7E70023F5E70028BCBF404200B2704771
S3150000CE50F8B51C4643B307460E4615460023224640
S3150000CE6029463046FFF7C3FF0146E0B184421BD393
S3150000CE70441EE4B2631C35F8130035F81420831AF7
S3150000CE801DB20B4B83FB05C3A3EBE5739BB21A44A0
S3150000CE9012B2964208DDC31A1BB29E4206DABC42A3
S3150000CEA038BF0C4600E004462046F8BD0C46FBE7BA
S3150000CEB056555555F0B583B007460E4615461C46E1
S3150000CEC000232246FFF793FF88B10146844211D022
S3150000CED000F10040013849006B5E35F91020715EA3
S3150000CEE036F910000097FFF73BFF03B0F0BDB5F928
S3150000CEF00000FAE704F10044013C35F91400F4E7B8
S3150000CF000A4B1B884BB9094B5B8823B9074B98889A
S3150000CF10022218B97047012200E00022034B33F8C1
S3150000CF201200002123F81210F4E700BF6001002070
S3150000CF300A4B1B8863B1094B5B882BB1074B9B8857
S3150000CF4023B1064B98807047012202E0022200E0DE
S3150000CF500022024B23F81200704700BF6001002038
S3150000CF6010B5FFF7A1F804467F4B1B88834247D0D4
S3150000CF7000217E48FFF712F900217D48FFF75EF990
S3150000CF804FF6FF727B4B1A80774B1C80794B1C88BF
S3150000CF904FF6FF739C425ED0774B1B8824EA03044E
S3150000CFA04FF6FF739C4256D0E3B2FF2B53D0002CB2
S3150000CFB042D0724B1B88A34242D000217048FFF733
S3150000CFC03DF900226F4B1A706C4B1B8834EA030341
S3150000CFD007D0B4F5C05F5CD0032C7ED02046FFF7A7
S3150000CFE0A7FF664B1C8034F4C05302D00022664B68
S3150000CFF01A7034F003032ED00022644B1A7010BD51
S3150000D00014215A48FFF7CAF808B15A4B1C804CB98C
S3150000D0100A215748FFF712F90028B5D00022564BCF
S3150000D0201A80B1E74FF496715148FFF707F90028C7
S3150000D030AAD0514B1C80A7E70022504B1A8010BD86
S3150000D040B4F5004F08D0B4F5804F05D0B4F5005FB5
S3150000D05071D0022C7BD010BD4A4B1B7813B1012B2B
S3150000D0600DD010BD07214648FFF7E8F80028F2D09A
S3150000D0700122444B1A702046FFF75AFF10BD0321C8
S3150000D0803F48FFF7DBF80028E5D02046FFF750FFC2
S3150000D09010BD3D4B1B7853B10133DBB2032B0ED8C9
S3150000D0A0394A13704FF4C052344B1A80A4E7012258
S3150000D0B0354B1A7000213648FFF7C0F8F2E7002218
S3150000D0C0314B1A701E213248FFF7B8F80028E9D113
S3150000D0D04FF4C050FFF72CFFE4E72C4B1B784BB105
S3150000D0E00133DBB2032B0DD8284A13700322234BDE
S3150000D0F01A807BE70122254B1A7000212448FFF78E
S3150000D1009DF8F3E70022214B1A701E212048FFF7F5
S3150000D11095F80028EAD1194B1B88022B06D0012B63
S3150000D120E4D14FF60370FFF703FFDFE74FF6036026
S3150000D130FFF7FEFEDAE732211148FFF77FF828B144
S3150000D14004F1FF0080B2FFF7F3FE10BD10BD3221DF
S3150000D1500B48FFF773F800283FF47DAFA4F5807005
S3150000D16080B2FFF7E5FE10BD5601002058010020F1
S3150000D17054010020520100205C0100205A010020C9
S3150000D180500100204E0100204A01002049010020E4
S3150000D1904C0100200F2811D80A4B187080B10A4B99
S3150000D1A0421ED2B2013202EB820203EB820200215E
S3150000D1B0198214339342FBD1012070470020704737
S3150000D1C001207047E695FF1F680100202DE9F04118
S3150000D1D019214948FEF7E2FF002800F08A80474BF4
S3150000D1E01B78002B7AD00024454DDFF81881434F79
S3150000D1F098F80060204604F05AFC25F8160014350D
S3150000D2000134E4B23B78A342F2D83E4A12780132A6
S3150000D210D2B2072A10D900213A4A1170002B68D0E1
S3150000D220374A591EC9B2013101EB810102EB810176
S3150000D230354C6425354E14E0324B1A70BDE8F0814A
S3150000D24017F1310FB8BF643B2DE0013386FB03C7EE
S3150000D250DB17C3EB670303EB8303438214328A4273
S3150000D2603AD002F1100C1346002033F9027B384401
S3150000D2706345FAD103460028B8BFC31DDB1003EB94
S3150000D28083171046B2F9103003EB8303C3EBC303D5
S3150000D2903B4484FB037CDF17C7EB6C1705FB173792
S3150000D2A0312FCDDD643384FB03C7DB17C3EB671374
S3150000D2B01BB20382B0F91270DF1B032FC5DC17F116
S3150000D2C0030FCBDA013B86FB03C7DB17C3EB670310
S3150000D2D003EB83034382C1E7BDE8F081094B1A786B
S3150000D2E00132D2B2072AA7D90022064B1A70BDE82E
S3150000D2F0F081BDE8F08100BF66010020E695FF1FC2
S3150000D30068010020940200201F85EB51676666665F
S3150000D31010B550B101280CD100200E4B1870012415
S3150000D32049B1012912D0002408E00124094B1C70E0
S3150000D330F6E70024F4E70021074B1970074B1A7033
S3150000D340054B1878FEF7C2FE204610BD0121024BA0
S3150000D3501970F3E79602002097020020950200203C
S3150000D3602DE9F04706460F46304B1B788BB94B1E0E
S3150000D370DBB2B1B10022520016F0010F18BF42F025
S3150000D38001027608013BDBB2FF2BF4D13C46164680
S3150000D39000E00C460025DFF89C80AA464FF0010904
S3150000D3A006E00C460026F5E7631E13F0FF041FD0C7
S3150000D3B06D0098F80000B0FA80F04009FEF786FE8E
S3150000D3C016F0010F14BF48465046FEF78FFE00BF09
S3150000D3D000BF98F80000FEF779FE00BF00BF00BF4F
S3150000D3E07608FEF793FE0028DED045F00105DBE760
S3150000D3F00F4B1878FEF76AFE0C4B1B7883B17B1E29
S3150000D400DBB287B10020400015F0010F18BF40F0D5
S3150000D41001006D08013BDBB2FF2BF4D1BDE8F087BC
S3150000D4202846BDE8F0870020BDE8F0879502002079
S3150000D430970200209602002000BF00BF704708B583
S3150000D4400120FEF76CFE0120FEF76CFEFFF7F4FFED
S3150000D4500020FEF764FEFFF7EFFF0020FEF762FEF6
S3150000D46008BD08B50020FEF75AFE0120FEF75AFE59
S3150000D470FFF7E2FF0120FEF752FEFFF7DDFF002077
S3150000D480FEF74DFE08BDF8B50746002426460125E1
S3150000D49007FA04F313F0800F14BF28463046FEF750
S3150000D4A03EFEFFF7C9FF2846FEF73CFEFFF7C4FF26
S3150000D4B03046FEF737FE0134082CE9D1FFF7BCFFF2
S3150000D4C00120FEF72CFEFFF7B7FF0120FEF72AFE2C
S3150000D4D0FFF7B2FFFEF724FE30B10020FEF722FE72
S3150000D4E0FFF7AAFF0020F8BDFEF71CFEFFF7A4FF1A
S3150000D4F00120F8BD08B5FFF7A2FFE620FFF7C3FF3E
S3150000D500A020FFF7C0FFFFF7ACFFFFF798FFE6206C
S3150000D510FFF7B9FF8320FFF7B6FFFFF7A2FFFFF77C
S3150000D5208EFFE620FFF7AFFFFC20FFF7ACFFFFF70B
S3150000D53098FF08BD10B50A2908D8054B1860054B99
S3150000D54019700124FFF7D6FF204610BD0024F9E725
S3150000D5509C020020E795FF1F70B54FF47A711448BE
S3150000D560FEF71CFE28B914211248FEF717FE18B95B
S3150000D57070BDFFF7BFFFF6E704F0E8FCFFF75FFFBB
S3150000D580E620FFF780FF0020FFF77DFF0A4B1B78A0
S3150000D5905BB10024094E084D3368185DFFF773FF31
S3150000D5A00134E4B22B78A342F6D8FFF75AFFDFE73F
S3150000D5B0980200209A020020E795FF1F9C02002097
S3150000D5C070B5FFF73CFFE620FFF75DFF0020FFF791
S3150000D5D05AFF084B1B7853B100242646054D3046AA
S3150000D5E0FFF751FF0134E4B22B78A342F7D8FFF7D7
S3150000D5F038FF70BDE795FF1F70B505461822014636
S3150000D6001D4800F089FA2C69AB7834F813201B4BBF
S3150000D6101A801B4B00229A80DA815A806989D98048
S3150000D6201A809A755A75DA745A749A7441B9EB78F5
S3150000D630FBB9114B19225A811422DA70002000E03E
S3150000D6400120AD7865B101210B46002634F913207F
S3150000D6508A42CCBF114630460133DBB2AB42F5D924
S3150000D660054B1B7DC72B03D8F822034B1A750020E8
S3150000D67070BD0120E5E700BFA4020020A202002041
S3150000D680BC02002010B504460B4B1888001B00B2E4
S3150000D690FFF7D9FB0A2809DD074BB3F90030002B49
S3150000D6A005DD054B00221A815A811C8010BD034BF3
S3150000D6B05A89014BDA80F4E7BC020020A40200205C
S3150000D6C0044BDB88834204D0024BD88000221A81A7
S3150000D6D05A817047BC020020014B987D704700BFFD
S3150000D6E0BC0200202DE9F04182B00A219848FEF7DD
